:1000000000000320D1010000AD5400006554000041
:1000100065540000655400006554000065540000FC
:10002000655400006554000065540000BD1E0000CA
:10003000AD54000065540000517800005578000070
:10004000AD540000AD540000AD540000AD540000AC
:10005000AD540000AD540000AD540000AD5400009C
:10006000AD540000AD540000AD540000AD5400008C
:10007000AD540000AD540000AD540000AD5400007C
:10008000AD540000AD540000AD540000AD5400006C
:10009000AD540000AD540000AD540000AD5400005C
:1000A000C1820000CD820000AD540000AD540000BC
:1000B000AD540000AD540000AD5400009D6400003C
:1000C000AD540000AD540000AD540000AD5400002C
:1000D000AD540000AD540000AD540000AD5400001C
:1000E000AD540000AD540000AD540000AD5400000C
:1000F000AD540000AD540000AD540000AD540000FC
:1001000095520000A9520000BD520000D1520000DB
:10011000AD54000061670000AD540000AD54000014
:10012000AD540000AD540000AD540000AD540000CB
:10013000AD540000AD540000AD540000AD540000BB
:10014000AD540000AD540000AD540000AD540000AB
:10015000AD540000AD540000AD540000AD5400009B
:10016000AD540000AD540000D9820000AD54000031
:10017000AD540000AD540000AD540000AD5400007B
:10018000AD540000AD540000AD540000AD5400006B
:10019000AD540000AD540000AD540000AD5400005B
:1001A000AD540000AD540000AD540000AD5400004B
:1001B000AD540000AD540000AD540000AD5400003B
:1001C000AD540000AD540000AD540000AD5400002B
:1001D0005C4B4CF2205210B51A804DF628121A8052
:1001E00000BF00BF05F066F9574B4FF030621A6050
:1001F000564A9A60564ADA60564B4FF470021A60BB
:10020000554B564A1A60564B1A78110703D51A787F
:1002100042F008021A70534B5349AA221A70534AEB
:10022000534B8B4204D252F8040F43F8040BF8E707
:10023000504B514900228B4202D243F8042BFAE77B
:100240004E494F4A002352F8230041F8230001335E
:10025000742BF8D14B4B4C4A802103F8011B93427D
:10026000FBD14A4B454A1A60494B8A221A70A3F5C2
:10027000805324225A70A0221A709A799207FCD5D2
:100280009A79D406FCD4434A937903F00C03082BE3
:10029000FAD1414B60221A7002331A78802AFCD1BD
:1002A0003C4B01221A715D225A719A799006FCD555
:1002B0009979384A4906FBD5384B394919600021EC
:1002C000596020231370937903F00C030C2BFAD19F
:1002D000344B354A1A60354A354C136813F4807331
:1002E00003D123604FF4A8531360324B324A1A6093
:1002F00000225A60072243F8042C304AC3F80C2D20
:1003000062B605F099FC2368DA0705D52C4805F09C
:10031000CDF92C4B2C4A1A602C4B1B785B0609D567
:10032000284C294B22689A4204D1254805F0BEF991
:100330000023236008F0A8FC05F0C2F804F0B4FE26
:10034000FEE700BF0E20054030800440823F0400DD
:100350000100002B88ED00E0002008E0030000858C
:1003600002D0074000E007408813FF1F94C7000039
:100370003007FF1F8813FF1F78A601200002FF1F10
:100380000000000000E400E064E400E008ED00E0AC
:10039000005006400040064001E007404480044011
:1003A0000000060204800440C010070010D0034083
:1003B00014D0034014E000E01FBF02000000202022
:1003C0006D0CF3601CE00340A5C3945A00F0074095
:1003D000FFFFFFFFFFFFFFFFFFFFFFFFFFFFFFFF2D
:1003E000FFFFFFFFFFFFFFFFFFFFFFFFFFFFFFFF1D
:1003F000FFFFFFFFFFFFFFFFFFFFFFFFFFFFFFFF0D
:10040000FFFFFFFFFFFFFFFFFFFFFFFFDEF9FFFF23
:1004100010B5054C237833B9044B13B10448AFF33E
:1004200000800123237010BD8813FF1F000000000F
:1004300090C70000084B10B51BB108490848AFF33E
:1004400000800848036803B910BD074B002BFBD0A0
:10045000BDE81040184700BF000000008C13FF1FCC
:1004600090C700008813FF1F0000000000B583B094
:100470001D4C1E4B009480224FF454711C4801F017
:100480002DFC1C4B009480224FF454711A4801F04B
:1004900025FC1A4B009480224FF45471184801F047
:1004A0001DFC184B009480224FF45471164801F043
:1004B00015FC164B009480224FF45471144801F03F
:1004C0000DFC144B009480224FF45471124801F03B
:1004D00005FC002300931148114B80224FF4547106
:1004E00001F0FCFBFEE700BF7822FF1F650900005A
:1004F000281FFF1FC9060000F01AFF1FF5070000A4
:10050000F816FF1FD9050000D09B01203905000017
:10051000A813FF1F550F000080980120309501207F
:100520005915000010B5044600F51C3000F5247084
:1005300002F062FD204610BD2DE9F8430746DFF8C2
:10054000949000F1E00600F1A0081FE019F80530D2
:1005500040461C4673B301F0F9F8FB68D3ED057A09
:10056000FDEEE77A404617EE904A01F0F9F8B42C18
:1005700022DDB42425461348214604F063FD1248C9
:10058000294604F05FFD062001F01CFC19210F48EC
:1005900006F074FF0E4804F0BBFE304601F0D6F8BA
:1005A000FB6893F89850304601F0DAF8062D4FF0CA
:1005B0000004CBD92546DEE7002CB8BF0024254631
:1005C000D9E700BF249F01202895012044BC0000EA
:1005D000A007FF1F3CBC00002DE9F047DFF8E490C6
:1005E000044600F1B00700F1340800F1280A1E218A
:1005F000324806F043FF324804F08AFE202686F394
:100600001188606801F016FD002585F311883846D1
:1006100001F09CF8E36886F31188D9F8282085F367
:1006200011885A636068E66801F0ACFC606886ED8A
:100630000A0AE66801F0AEFC606886ED0B0AE6681F
:1006400001F0B0FC384686ED0C0A01F089F8294625
:10065000404601F013FA0121064640B1B4F8963045
:100660000B44A4F896300D2005F088FABFE7384611
:1006700001F06CF8E368B4F88AE028330FCB0EEB96
:100680008E0540F2E63C04EB4515E64505F58C7514
:100690000EF1010E85E80F00A4F8966098BF1FFACE
:1006A0008EF65046A4F88A6001F00EFA384601F042
:1006B00057F8062001F086FB99E700BF60BC0000F8
:1006C000A007FF1F84A401202DE9F84FDFF820A127
:1006D000044600F1C00700F14C0900F1400B4FF057
:1006E000000817213F4806F0C9FE3F4804F010FEFD
:1006F000202585F31188A06802F0C8FB88F31188D3
:10070000384601F023F8E36885F31188DAF82820E9
:1007100088F311889A64A068E56802F0BBFBA068C2
:1007200085ED0E0AE56802F0B9FBA06885ED0F0AB9
:10073000E56802F0B7FBA06885ED100AE56802F0F5
:10074000B5FB85F84400384601F00AF8E36893F8F1
:100750004430012107200BB91946072005F00EFA95
:100760000021484601F08AF90121064640B1B4F85B
:1007700098300B44A4F898300D2005F0FFF9B0E74D
:10078000384600F0E3FFE368B4F88CC003F1380E9C
:10079000BEE80F000CEB8C0504EB451505F59475D0
:1007A0000FC540F2E633DEF800202A609C450CF1CC
:1007B000010CA4F8986098BF1FFA8CF65846A4F86C
:1007C0008C6001F081F9384600F0CAFF1321074818
:1007D00006F054FE044804F09BFD062001F0F2FAF6
:1007E0007FE700BF80BC0000A007FF1F98BC00008F
:1007F00084A401202DE9F047DFF86491044600F15C
:10080000A00700F11C0800F1100A1D21524806F053
:1008100035FE524804F07CFD202686F311882068BE
:1008200002F05AF8206802F08DF8206802F0DCF837
:10083000002585F31188384600F088FFE36886F3C9
:100840001188D9F8282085F3118820685A62B0F9F8
:100850003210E66801F0A2FC206886ED000AB0F9CB
:100860003410E66801F09AFC206886ED010AB0F9C0
:100870003610E66801F092FC206886ED020AB0F9B5
:100880002C10E66801F080FC206886ED030AB0F9C0
:100890002E10E66801F078FC206886ED040AB0F9B5
:1008A0003010E66801F070FC206886ED050AB0F9AA
:1008B0003810E66801F07CFC206886ED060AB0F985
:1008C0003A10E66801F074FC206886ED070AB0F97A
:1008D0003C10E66801F06CFC384686ED080A00F032
:1008E0003FFF2946404601F0C9F8064648B1B4F832
:1008F00094300133A4F8943001210D2005F03EF925
:1009000083E7384600F022FFD4F80CE0B4F888C042
:10091000BEE80F000CEB8C0504EB4515F0350FC558
:10092000BEE80F000FC59EE8030040F2E6339C4589
:1009300085E80300A4F894609CBF0CF10106B6B2F0
:100940005046A4F8886001F0BFF8384600F008FF70
:10095000062001F037FA58E7ACBC0000A007FF1FE3
:1009600084A401202DE9F04F83B000F17003DFF87B
:1009700038930093044600F1A00700F1E00500F170
:10098000C00600F17C0A4FF020081E21BA4806F08C
:1009900075FDBA4804F0BCFC384600F0D7FE284686
:1009A00000F0D4FE304600F0D1FEE36893F89820C2
:1009B0000C2A34D8DFE812F0A701B2017A0147010E
:1009C00038011F01F300DA00AF00970070005800F3
:1009D0000D00AB4A93ED1C7AD2ED007AB4EEE77AC3
:1009E000F1EE10FA7BD488F311880022D9F8283070
:1009F00082F31188A34AA449926AD1ED007A9B1A26
:100A000007EE103AB8EE477A9E4AB4EEE77AD36220
:100A1000F1EE10FAE368C4BF0D2283F8982088F342
:100A200011884FF0000BD9F828208BF31188C3F8F8
:100A30009C20284600F094FE384600F091FE304697
:100A400000F08EFE5946504601F018F88346002803
:100A500000F07D81B4F89C300133A4F89C30012172
:100A60000D2005F08BF890E7854A93ED1C7AD2EDC6
:100A7000007AB4EEE77AF1EE10FAD0DD88F311884F
:100A80000023D9F8282083F311887E49E3688A621D
:100A90000C2283F89820C2E77C4A93ED1F7AD2EDAE
:100AA000007AB4EEE77AF1EE10FA5BD488F311889D
:100AB0000022D9F8283082F31188724A7449126AE8
:100AC000D1ED007A9B1A07EE103AB8EE477A6D4ADC
:100AD000B4EEE77AF1EE10FA5362E3689FDD0B2281
:100AE00083F898209BE76B4A93ED1F7AD2ED007A4A
:100AF000B4EEE77AF1EE10FA91DD88F31188002365
:100B0000D9F8282083F311885E49E3680A620A2233
:100B100083F8982083E75D4A93ED1F7AD2ED007A3F
:100B2000B4EEE77AF1EE10FA61D488F3118800226E
:100B3000D9F8283082F31188524A5749D269019274
:100B4000DDED017A4F4A91ED007A9269F8EE677A0D
:100B50009B1AF4EEC77A4B4AF1EE10FA1361E36880
:100B60007FF75DAF092283F8982058E7474A93ED55
:100B70001F7AD2ED007AB4EEE77AF1EE10FA7FF741
:100B80004EAF88F311880023D9F8282083F3118809
:100B90003C49E3688A61082283F898203FE73F4A8E
:100BA00093ED1C7AD2ED007AB4EEE77AF1EE10FA0A
:100BB00000F30F8188F311880022D9F8283082F3DE
:100BC0001188304A3649D2680192DDED017A2D4A0A
:100BD00091ED007A5269F8EE677A9B1AF4EEC77AC3
:100BE000284AF1EE10FA1361E3687FF718AF072285
:100BF00083F8982013E7294A93ED1C7AD2ED007A06
:100C0000B4EEE77AF1EE10FA7FF509AF88F31188B8
:100C10000023D9F8282083F311881A49E3684A6130
:100C2000062283F89820FAE61E4A93ED1F7AD2ED49
:100C3000007AB4EEE77AF1EE10FA40F3B0800322C6
:100C400083F89820EBE6174A93ED1F7AD2ED007AED
:100C5000B4EEE77AF1EE10FA7FF5E1AE88F3118891
:100C60000023D9F8282083F311880649E3688A60B5
:100C7000042283F89820D2E6CCBC0000A007FF1F16
:100C80003C07FF1FF41EFF1F3807FF1F401EFF1FFA
:100C90006407FF1F6007FF1F5807FF1F209F0120E9
:100CA0003407FF1F4007FF1F84A401204B4A93ED28
:100CB0001F7AD2ED007AB4EEE77AF1EE10FA29D479
:100CC00088F311880022D9F8283082F31188444A29
:100CD00044491268D1ED007A9B1A07EE103AB8EE3B
:100CE000477A3F4AB4EEE77AF1EE10FA5360E368D0
:100CF0007FF795AE032283F898200121082004F0A5
:100D00003DFFE3688BE6A06802F0D0F8E3680028B6
:100D10003FF485AE012283F8982080E62F4A93EDB8
:100D20001F7AD2ED007AB4EEE77AF1EE10FA7FF78F
:100D300076AE88F311880023D9F8282083F3118830
:100D40002749E3680A60022283F8982067E628466C
:100D500000F0FCFCE168B4F88C30B4F890209831D5
:100D600003C903EB830304EB431303F5C47383E864
:100D7000030040F2E6339A42A4F89CB09CBF02F113
:100D8000010B1FFA8BFB0098A4F890B000F09CFEBA
:100D9000284600F0E5FC062001F014F8F5E588F39C
:100DA00011880022D9F8283082F311880C4A0E49A4
:100DB0009268D1ED007A9B1A07EE103AB8EE477AA6
:100DC000074AB4EEE77AF1EE10FAD360E3687FF7F2
:100DD00026AE052283F8982021E600BF5C07FF1F9E
:100DE000F41EFF1F6807FF1F5407FF1F38B5044696
:100DF00008460D4608F004FC2368024629465B6855
:100E0000204698470546204604F082FA284438BD1B
:100E10002DE9F04F87B000AF0546386008460C4614
:100E200008F0EEFB00F1080323F00703ADEB030D20
:100E300000F1010A21465246684604F079FA284634
:100E400008F0DEFB00F1080323F0070304466E46BA
:100E5000C7F804D0ADEB030D621C2946684604F0C8
:100E600067FA31465246281904F062FA29462B489F
:100E700002F084FAD8B3E8460125B5F57A7F07F188
:100E800008014FF00A022846E94635D007F024FF52
:100E9000404608F0B5FB044607F1080008F0B0FB37
:100EA000261806F10D0222F00702ADEB020D834673
:100EB00022464146684604F03BFA5A4607F10801CB
:100EC0000DEB040004F034FA796852460DEB06008D
:100ED00004F02EFA6946114802F050FA10B10135BB
:100EE000CD46CAE76946386808F010FBCD46386839
:100EF0001C37BD46BDE8F08F4146386808F078FAE7
:100F0000074A79680346106818605246D81C04F0F6
:100F10000FFA38681C37BD46BDE8F08F04A00120E9
:100F2000ECBC000038B50368094C5B68A02205469C
:100F300098472368B3F57A7F02D00133236038BD28
:100F40002B682846DB6898470023236038BD00BF24
:100F5000441EFF1F2DE9F04F2DED028BB1B000F1C3
:100F60001003009300F11C03029300F12803019386
:100F700000F13403059300F14003049300F14C03A6
:100F8000079300F1700300F51C3B06939FED688A00
:100F900000F17C0304460BF5247B00F1A00A00F16C
:100FA000B00900F1C00800F1E00703932EAE1C2148
:100FB000604806F063FA604804F0AAF9002500983A
:100FC0002D958DF8B8502F958DED1B8A8DED1C8ACF
:100FD0008DED1D8A8DED1E8A8DED1F8A8DED208A87
:100FE0008DED218A8DED228A8DED238A8DED248A67
:100FF0008DED258A8DED268A8DED278A8DED288A47
:101000008DED298A8DED2A8A8DED2B8A8DED2C8A26
:1010100000F012FD504600F099FBB4F892E00EEBA0
:101020008E0E04EB4E1E0EF1F00EBEE80F000DF119
:10103000200CACE80F00BEE80F00ACE80F009EE803
:1010400003008CE80300029800F03EFD504600F0DB
:1010500087FB019800F0F0FC484600F077FBB4F8FD
:10106000923003EB830304EB431303F58C730FCB34
:101070000DF1480E8EE80F00059800F025FD48465A
:1010800000F06EFB049800F0D7FC404600F05EFBD9
:10109000B4F892E00EEB8E0E04EB4E1E0EF5947E2D
:1010A000BEE80F000DF1580CACE80F00DEF8003080
:1010B0000798CCF8003000F007FD404600F050FBE8
:1010C000069800F0B9FC384600F040FBB4F89230C6
:1010D00003EB830304EB431303F5C47393E80300AA
:1010E00086E80300039800F0EFFC384600F038FB78
:1010F000B4F89230114840F2E63293429CBF5D1C36
:10110000ADB2A4F8925000F021FB08A95846FFF7B1
:1011100009FF0A4800F024FB1821094806F0AEF93F
:10112000054804F0F5F8062000F04CFE3FE700BF4C
:1011300000000000F0BC0000A007FF1F4407FF1FD5
:1011400010BD0000704700BFF8B5864803F038FFB7
:10115000854803F035FF854B854800250024DC6475
:101160001C655C659C65DC651C665C669C66DC6673
:101170001C675C679C67DC67C3F88040C3F88440E9
:10118000C3F88840C3F88C40C3F89040C3F894502B
:1011900083F89850C3F89C5000F042FF754800F067
:1011A0009BFF754801F042FC744B75489D6103F14B
:1011B000100703F11C0603F12801224603F1340451
:1011C0001F615F61DE6103F140071E62996203F1F6
:1011D0004C06D9625C6303F158019C6303F164041B
:1011E0001F645F64DE6403F170071E65996503F197
:1011F0007C06D9655C664FF47A719C6603F1A004A5
:101200001F675F6703F1B00EDE67C3F8806003F10C
:10121000C0075962D9635965D966C3F8841003F1D0
:10122000D0061D639D641D669D67A3F88850A3F8D2
:101230008A50A3F88C50C3F8A040C3F8A44003F12F
:10124000E004A3F88E50A3F89050A3F89250A3F8AE
:101250009450A3F89650A3F89850A3F89A50A3F886
:101260009C50C3F8A850C3F8AC50C3F8B850C3F8AA
:10127000BC50C3F8C850C3F8CC50C3F8D850C3F81A
:10128000DC50C3F8E850C3F8EC50C3F8B0E0C3F842
:10129000B4E0C3F8C070C3F8C470C3F8D060C3F83A
:1012A000D460C3F8E040C3F8E4402946F033DA6480
:1012B0001A655A659A65DA651A665A669A66DA6632
:1012C0001A675A679A67DA67C3F88020C3F88420E0
:1012D000C3F88820C3F88C20C3F89020C3F894107A
:1012E00083F89810C3F89C10A03383424FF0000499
:1012F0004FF00005DBD1234E06F52470C6F83C42C2
:10130000C6F84042C6F84442C6F84842C6F84C42C5
:10131000C6F85042C6F85442C6F85842C6F85C4275
:10132000C6F86042C6F86442C6F86842C6F86C4225
:10133000C6F87042C6F87442C6F87842C6F87C42D5
:10134000C6F88042C6F8845286F88852C6F88C5295
:1013500001F044FEA6F51C300B4A0C49BDE8F840EC
:1013600006F086BB249F012028950120501AFF1FFC
:10137000481AFF1F6C1EFF1F481EFF1F7822FF1F09
:1013800068940120789201203007FF1F2505000096
:10139000F0B55C4A5C4C5D485D498FB01378002B1A
:1013A000FCD02378DB07F9D503680D685B1B0E2B97
:1013B000F4D90121092004F0E7FB0121082004F001
:1013C000E3FB0121072004F0DFFB0121062004F0EC
:1013D000DBFB0121092004F0D1FB4E4D4E4C4F4E5A
:1013E0004F4F0121072004F0C9FB4E494E48FFF73B
:1013F000FDFC4E4B25602846252224216760E360D2
:10140000A66001F075F940B90121082004F0B6FB8F
:1014100047494548FFF7EAFCFEE72846102101F05E
:1014200009F93046222101F01DFBFE21414801F05F
:101430007BFE00285DD0404B93E80300083300900A
:101440008DF8041093E80300002302908DF80C102F
:1014500002A86946CDF811308DF80530CDF80D3071
:101460000593FFF7D5FC52230246324906A801F046
:1014700011FF0EAB04F51C349DF81C50089813F8AE
:10148000141D84F8945204F29D2202F10D06C4F852
:10149000980284F89C1213F8011F02F8011BB24253
:1014A000264CF8D10D9BC4F8AC3206A801F0A4FD7F
:1014B000234904F52470FFF799FC04F5247001F02A
:1014C00059FD40F6CA0340F2023202211D4803F0E2
:1014D0007BFD40F6CA0340F2023203211A4803F0B2
:1014E00073FD1A491048FFF781FC194800F08AF88B
:1014F000FEE70121082004F041FB16490A48FFF7E6
:1015000075FCFEE704A401201CA4012088A2012090
:1015100070A601206C1EFF1F7822FF1F481EFF1FB0
:10152000481AFF1FDCBE0000A007FF1F501AFF1F54
:101530002CBD000004A0012024BC000078920120F2
:1015400064BD0000249F012028950120A4BE000056
:101550006D040000B8BE000070B54FF4E1311848CA
:10156000184E194D03F0B8FD1B21184805F086FFF1
:10157000174803F0CDFE174800F0E8F801210620D7
:1015800004F0FCFAF468134800F0EAF84923532009
:10159000114A2B70E11C631E6870A87013F8010FCC
:1015A00002F8010F8B42F9D14721074804F072FE7F
:1015B0000021062004F0E2FA062000F003FCD3E745
:1015C0007407FF1F7822FF1F289F012010BF000013
:1015D000A007FF1F1823FF1F2A9F012008B5002026
:1015E00009F09CF8054A1368984205D9044909682E
:1015F00088423CBF10600346184608BD709F01201A
:10160000749F012010B582B072B6154C2060FFF7B0
:10161000E5FFADF10C03984201900AD2431EADF1F3
:101620000D01552203F8012F8B42FBD1ADF10C03C4
:1016300001930C4B1B6883F308880B4B1B6883F3E7
:101640000988062383F31488BFF36F8F00F01AFC18
:1016500000F056FA236803B19847FFF773FDFCE7E3
:10166000789F01206C07FF1F749F0120034B044AE1
:101670001B68A3F5C8731360704700BF6C07FF1F9A
:10168000749F0120304B826870B59C69002A56D047
:10169000A16893688B42054607D292F8203091608A
:1016A000062B33D0072B1DD09BB12B4603E0996846
:1016B000A268914202D31B689D42F8D15A686260C9
:1016C000236014605C6065620620BDE8704000F035
:1016D000D3B892E80A001960116810464B6000F018
:1016E000B5F8E2E792E80900186010684360566AAE
:1016F000334602E09868884202D31B689E42F9D1C3
:101700005968516013600A605A60CEE792E8090098
:10171000186010684360566A334602E09868884251
:1017200002D31B689E42F9D15968516013600A6068
:101730005A60B268A16893688B42AED3B5E7A36BD9
:10174000C3608460A06370BD84A4012008B5202319
:1017500083F31188FFF796FF002383F3118808BDF8
:10176000174B70B59D69202383F311880468C36803
:10177000AB6384421DD0E96B4BB11A68934203D02E
:101780009268914238BF1146DB68002BF5D10346C1
:101790002268A66BA96020461A6053609C60DE60D8
:1017A000A36300F053F800F005F9002383F31188D8
:1017B00070BD0023A360002383F3118870BD00BFB8
:1017C00084A4012010B4202383F3118890F82030E2
:1017D000072B0ED8DFE803F0280D0D2408040D08B0
:1017E000426A93680133936090E80C001A600268C3
:1017F00053604FF0FF34002281680E4B446280F842
:1018000020201B689A688A42FBD25A6842600360B3
:1018100000211060586081F311885DF8044B704717
:10182000436A00221A60E4E7002383F311885DF81D
:10183000044B704784A40120034B00221B605B60B3
:101840001B615B619A60704784A40120002281685B
:10185000084B10B4044680F820201B689A688A421E
:10186000FBD25A6862602360204614605C605DF8B9
:10187000044B704784A401200A4B99691A6810B47C
:1018800081F82000142081F82300106818600124DA
:10189000436082F8204010465DF8044B9A6100F0E6
:1018A0004DBB00BF84A4012030B54B1C87B012D0C3
:1018B0000C4C0D4AA369054601A800F09DFA284684
:1018C000FFF7DAFF049B13B101A800F0B3FAA36994
:1018D000586A07B030BD034CFFF7CEFFA369586AC2
:1018E00007B030BD84A40120C5170000164B70B4AA
:1018F00004469D694162A868A16881424FF00002D8
:101900000CD884F820201B689A689142FBD95A6849
:101910006260236014605C6070BC704785F82020B2
:101920001A46126891688842FBD3506868600126A5
:101930002A600560556084F82060294620469C6135
:1019400070BC00F0FBBA00BF84A40120084B9A6968
:101950001B6892F823109B68906821B9834234BFBA
:10196000002001207047834294BF0020012070476F
:1019700084A401200E4A1068036830B401219469E0
:101980005A60002580F82010A1681360906184F8E7
:10199000205000E01B689A688A42FBD85A6862604F
:1019A0002360214614605C6030BC00F0C7BA00BF01
:1019B00084A40120044B1A689B6992689B689A4230
:1019C00000D87047FFF7D6BF84A40120194830B46F
:1019D0000268816913680360586092F8235082613D
:1019E000012482F820409DB98C6881F8205000E0E5
:1019F0001B689A68A242FBD25A684A6014240B60A2
:101A00001160596081F82340806930BC00F096BABB
:101A100000228C6881F8202000E01B689A68A242AE
:101A2000FBD85A684A600B608069116030BC59600D
:101A300000F084BA84A40120202383F311888368F2
:101A4000013B002B836004DB0020002383F311881B
:101A5000704710B5084CA269506241685160034656
:101A600010600A6005205A60FFF706FFA369586AF4
:101A7000002383F3118810BD84A40120202383F365
:101A800011888268531E002B836004DB0020002332
:101A900083F31188704710B579B10A4A9269506290
:101AA0004468034682E81800052022605A60FFF768
:101AB000FBFE002383F3118810BD82604FF0FF30DE
:101AC000F7E700BF84A4012008B5202383F3118821
:101AD00083680133002B836003DD002383F31188C7
:101AE00008BD0346006802681A6000215360FFF7D2
:101AF000FDFE002383F3118808BD00BFFEE700BF91
:101B0000F8B5194C194E1A4DFFF796FE00F066F91C
:101B100000F02CFA20468022164900F05DF8164BA2
:101B2000012280F82020DF68144A44F8180C4FF690
:101B3000FF0139400A430024C461DA60F26842F0D0
:101B40008072F2602A68102042F0010220212A608F
:101B5000D87783F8221084F3118862B60848BDE86C
:101B6000F84000F0A3B800BFB4A40120F0ED00E0FD
:101B7000001000E054BF000000ED00E00003FA0593
:101B800034BF0000F8B5124DAA6992F8233013B1A2
:101B9000013B82F82330AA6AEB690E4E0132B34250
:101BA000AA6213D09C68013C9C607CB920271A680B
:101BB000D968DC605660EA6184F311881869884747
:101BC00087F31188EB699A68002AF0D0F8BD00BF4E
:101BD00084A40120A0A40120F0B5104CC263656963
:101BE00081610226826080F82060002200F12C01D1
:101BF0004FF0140E012700F128064561046180F8BA
:101C000023E080F8227080F82120826342632861FB
:101C100060618662C1620163F0BD00BF84A40120DF
:101C2000836841691F4AF0B5456806690468C7685A
:101C300043F8304C142003F8250C012003F8260C3F
:101C40004FF0020E002003F828EC03F8270C43F8AD
:101C50002C5CA3F1AC045569DFF84CE043F86C6CE4
:101C600043F8681C43F83C4CA3F14801A3F11C0461
:101C7000A3F1200643F8100C43F8140C43F8407C01
:101C800043F80C7C43F84CEC43F8382C43F8345CB4
:101C900008462961516143F8206C43F81C4C43F815
:101CA000184CF0BD84A40120551F000043688268D1
:101CB000934210B504D2552103F8011B9A42FBD17F
:101CC000202383F31188FFF7ABFF00210446FFF7C1
:101CD0000DFE002383F31188204610BDF8B5461889
:101CE000B04205D20546552705F8017BAE42FBD12F
:101CF000202484F31188483944181A4EE06177692A
:101D000044F8243C069B44F8203CA4F164010225DD
:101D10001423A260E160E26384F8205084F8233049
:101D2000002504F12C03DFF844E00F4944F804ECEB
:101D300004F12802012084F82200A1612661676174
:101D400084F82150A563656320463C612946A26260
:101D5000E36223637461FFF7C9FD85F311882046B0
:101D6000F8BD00BF84A401204CBF0000551F000037
:101D700038B5104B9C69A36A606204F128059D4246
:101D800007D01A68A2621846FFF760FDA36AAB424B
:101D9000F7D194F8223043B994F821309B0704D14D
:101DA000636922691A61226953610F20BDE83840D6
:101DB000FFF762BD84A40120202383F31188FFF77D
:101DC000D7BF00BF08B50146202383F31188082040
:101DD000FFF76AFD002383F3118808BD054B4FF020
:101DE000FF3003F11C02002158629962DA611A6225
:101DF000704700BF84A4012070B40D4EF469A5683B
:101E00000361A942C26004D92468491BA5688D42B8
:101E1000FAD3636843600460186060608160A368FF
:101E20004FF0FF32591AA160726270BC704700BF58
:101E300084A4012003688268416830B49D68064C20
:101E40002A449A600B60056800224FF0FF336960F6
:101E5000C260636230BC704784A4012008B52023AF
:101E600083F31188FFF78EFE002383F31188BDE80A
:101E7000084000F033B800BF10B5044603F0E8F99D
:101E8000204610BD4EF65F220149024803F096B984
:101E90005D1E00007C9F012030B4054B054A0649B9
:101EA000802400251C711D60184630BC05F0E0BD83
:101EB0007C9F01203007FF1F791E0000064A5368EF
:101EC00023F001035360EFF30983683383F3098838
:101ED000002383F31188704730EF00E0202383F361
:101EE0001188124B5B6813F4006302D183F31188ED
:101EF000704710B5F1EE103AEFF309840C4B4FF038
:101F00008072DB6844F8083C44F84C2CA4F1680368
:101F100083F30988FFF71AFD18B1064B44F8503CCB
:101F200010BD054B44F8503C10BD00BF00ED00E073
:101F300030EF00E0651F0000681F00002DE9F04F42
:101F40002DED108AC1F80CD0C3689D46BDEC108AF7
:101F5000BDE8F08F002383F311882846A0470020B6
:101F6000FFF72AFFFFF732FD00DFFEE7034A044BCD
:101F700002F1800159601A60704700BF849F012000
:101F800058A60120B0F9003000EE103ABAEEEA0A85
:101F9000704700BFB0F9023000EE103ABAEEEA0A1C
:101FA000704700BFB0F9043000EE103ABAEEEA0A0A
:101FB000704700BF10B5184C204605F0F9FD2046CB
:101FC000012105F033FE2046002105F057FE204692
:101FD000124905F059FE01210A2003F0D5FD002128
:101FE0000A2003F0CBFD23684FF000411B22D96289
:101FF0005A63DA6A002AFCDA4FF000418822986BB3
:10200000D9625A63DA6A002AFCDA9B6B01210A2042
:10201000BDE8104003F0B2BD5C08FF1F0650003859
:1020200010B500230446038043808380FFF7C2FF7E
:10203000204610BD70B5002182B006460A2003F08C
:102040009DFD3C23013BFDD11A4B1A684FF0004126
:102050008823D1625363D36A002BFCDA936B694601
:102060000DF106054FF000440020D4625063D36A9E
:10207000002BFCDA936B01F8013BA942F5D1012159
:102080000A2003F07BFD9DF801509DF800109DF89B
:1020900003409DF802209DF805009DF8043041EAB8
:1020A000052142EA042243EA002331807280B38092
:1020B00002B070BD5C08FF1F90F8383090F83920EE
:1020C0009A4205D95A1C034480F83820187E70477C
:1020D0004FF0FF30704700BF704700BFF52100236D
:1020E0000122F0B541810625022404270726032199
:1020F0004FF0FF0EC47680F8247080F825600272DD
:1021000042758275C2750276827642778277C2778F
:1021100080F823200573057780F820E043738373EC
:10212000C373037443748374C374037580F82130DC
:1021300080F8223080F8263080F8293080F82A3064
:1021400080F82710002480F8281000F1400780F85C
:102150002B2000F14C0600F158050246013947F8E2
:10216000044B4FF0000E46F8044B02F1020245F812
:10217000044BA2F86230A2F86830A2F86E30EDD1BC
:1021800080F884E0F0BD00BF07EE901AB8EEE70AD1
:10219000D0ED1E7A20EE270A704700BF07EE901A96
:1021A000B8EEE70AD0ED1F7A20EE270A704700BF8D
:1021B00007EE901AB8EEE70AD0ED207A20EE270A53
:1021C000704700BF4389F52B07D0B3F5FA7F04D0E1
:1021D000B3F5FA6F1CBFF5234381C27E102A0ED9D6
:1021E0000223C37690F82420102A03D9042380F810
:1021F00024307047044BD340DB07F7D57047034BBF
:10220000D340DA07EED4EBE710110100140101000E
:1022100038B50546012190F87700114C03F0B4FC65
:1022200095F87700012103F0A9FC95F876000121CB
:1022300003F0AAFC95F87600012103F09FFC2046EC
:1022400005F0B6FC2046074905F01EFD2046012199
:1022500005F0ECFC20460021BDE8384005F00EBD3D
:102260005C08FF1F000002B870B508460D4600214B
:1022700014461E4603F082FC0C4B196804F03F0420
:102280004FF00043CB624C63CA6A002AFCDA4FF07D
:1022900000438A6BCB624E63CB6A002BFCDA8B6BFC
:1022A00028460121BDE8704003F068BC5C08FF1FB0
:1022B000F8B590F876009DF8185002F03F02884279
:1022C0000E4642F080071C4628D00021304603F01D
:1022D00055FCDFF854E0DEF800104FF00043CB620D
:1022E0004F63CB6A002BFCDA8B6B8DB123466719E9
:1022F00000204FF00044CC624863CA6A002AFCDA2E
:102300008A6B03F8012BBB4202D0DEF80010F2E723
:102310003046012103F032FC2846F8BD012D88BF6C
:1023200047F04007D1E700BF5C08FF1F70B50446C7
:1023300040680125490080F83B1080F85E5080F825
:102340005D5060680668114632681E4690476068B6
:10235000026831461368984729466068BDE87040B6
:1023600005F012BE30B40478012C09D00CB130BC99
:102370007047134630BC0A4690F87710FFF774BFD9
:10238000134630BC0A4690F87710FFF7CFBF00BF66
:1023900010B5037A044613B1037B5B01DBB262899B
:1023A000B2F5FA7F4DD0B2F5FA6F47D0627B02F0FA
:1023B00003021A4310212046FFF7D4FF0022112107
:1023C0002046FFF7CFFFA27BE37B002A14BF8022C9
:1023D00000222BB1237C03F00F0343F040031A4388
:1023E00012212046FFF7BEFFE27DA37D002A0CBF2D
:1023F0000022202213B142F01002D2B2637D0BB151
:1024000042F00802237E0BB142F002021E21204658
:10241000FFF7A8FF627CA37C002A0CBF00222022C9
:1024200013B142F01002D2B2E37C0BB142F00802C9
:1024300020461321BDE81040FFF794BF43F0180376
:10244000B4E743F00803B1E710B5C27F837F002AE9
:1024500004460CBF0022202213B142F01002D2B277
:10246000637F0BB142F008021F212046FFF77AFF7D
:10247000A27E12B1227F5201D2B2E37E082B26D077
:10248000102B21D0042B1CD094F92030002B04DB1E
:1024900003F003031A4342F0040220212046FFF711
:1024A00061FF94F8212032B194F82220520102F009
:1024B000600242F0800220462121BDE81040FFF773
:1024C00051BF42F01002DFE742F00802DCE742F0C1
:1024D0001802D9E730B40478012C09D00CB130BC13
:1024E0007047134630BC0A4690F87610FFF7BCBE22
:1024F000134630BC0A4690F87610FFF717BF00BFAE
:1025000038B590F8272090F8253090F826505201E1
:102510009B0003F01C03002D02F0600242EA03025C
:1025200014BF6FF07F03002304461A4302F0FC023D
:102530002021FFF7CFFF94F82430083BDBB2082BB3
:1025400096BF134A0022D25C20462121FFF7C2FF2A
:1025500094F8292094F82A30002A03F0030314BFCA
:10256000202200221A4320462221FFF7B3FF94F8CD
:1025700028209200204602F00C022321FFF7AAFF38
:10258000204600222421BDE83840FFF7A3BF00BF4A
:102590006CBF0000436870B501250E46490083F802
:1025A0003B1083F85E5083F85D5004464068036832
:1025B00011461B6898470021606805F0E5FC2B4632
:1025C0002A463146606805F069FD60680A4A03687A
:1025D0005B6993420BD190F8383090F839209A42D9
:1025E00008D95A19034480F83820187E70BD9847DE
:1025F000C0B270BDFF2070BDB920000010B50378D7
:10260000012B84B00A460FD013B1FF2004B010BDD7
:10261000012390F8771000930DF10F03FFF748FEA8
:102620009DF80F0004B010BD90F87710FFF7B2FFCF
:10263000ECE700BF38B50D4620210446FFF7DEFF6A
:10264000082D00F0E7022BD0102D25D0042D1FD02F
:102650000223E37620212046FFF784FEE37E023B3F
:102660000E2B0BD8DFE803F0110A0E0A0A0A0B0A38
:102670000A0A0A0A0A0A08000B4BE36738BD0B4B2B
:10268000E36738BD0A4BE36738BD0A4BE36738BDE3
:1026900042F01002E576DDE742F00802E576D9E780
:1026A00042F01802E576D5E7B0E33F3A40DA7F39E9
:1026B00040DAFF3840DA7F3810B50378012B84B058
:1026C0000A460FD013B1FF2004B010BD012390F8CB
:1026D000761000930DF10F03FFF7EAFD9DF80F0050
:1026E00004B010BD90F87610FFF754FFECE700BF80
:1026F00038B5002303704170827080F8771080F83D
:1027000076200446FFF7EAFCFFF75CFD4389B3F54A
:10271000FA7F55D0B3F5FA6F4FD0F52B4AD094F825
:102720002430043B0C2B0BD8DFE803F0400A0A0AE4
:10273000070A0A0A3C0A0A0A3800284BC4F8803003
:10274000E37E023B0E2B0BD8DFE803F0250A080AD4
:102750000A0A220A0A0A0A0A0A0A1F00204BE36729
:102760002046FFF755FD0F212046FFF7A5FF0F215B
:1027700005462046FFF742FF45EA002005B246F62F
:102780003D039D421FD0002038BD164BE367E7E7AD
:10279000154BE367E4E7154BE367E1E7144BC4F837
:1027A0008030CDE7134BC4F88030C9E7124BC4F832
:1027B0008030C5E7114B8367B1E7114B8367AEE704
:1027C000104B8367ABE72046FFF7E2FD2046FFF79B
:1027D0003BFE2046FFF794FE284638BD240B98396F
:1027E00040DAFF38B0E33F3A40DA7F3940DA7F38E9
:1027F000240B183A9F71E139F7CC1239295C0F3C50
:10280000295C8F3D295C8F3C2DE9F0410F464168E2
:102810009DF8188004460126780081F83B0081F875
:102820005E6081F85D606068056842F080012A683A
:102830001D4690476068002105F0A6FB18B10026F0
:102840003046BDE8F081334639464246606805F0BF
:1028500025FC40450646F2D10028F1D0DFF83C8047
:102860002F1810E090F8383090F839209A4203F190
:10287000010E00EB03010ED980F838E0087E05F860
:10288000010BAF42DCD0606803685B694345E9D067
:102890009847C0B2F3E7FF20F1E700BFB92000007E
:1028A00030B50D460178012983B00CD011B1FF205D
:1028B00003B030BD90F87710009313462A46FFF717
:1028C000F7FC03B030BD90F87710009313462A460A
:1028D000FFF79AFFECE700BFF0B583B006236A4626
:1028E00028210446FFF7DCFF062801D003B0F0BD25
:1028F0009DF801709DF800109DF803609DF802207E
:102900009DF805509DF8043094F8840041EA0721B1
:1029100042EA062243EA052309B212B21BB26186DB
:10292000A286E3860028E1D0B4F86A60B4F86C505F
:10293000B4F86E00891B521B1B1A6186A286E386BF
:1029400003B0F0BDF0B583B006236A4618210446F3
:10295000FFF7A6FF062801D003B0F0BD9DF8017077
:102960009DF800109DF803609DF802209DF8055029
:102970009DF8043094F8840041EA072142EA0622D7
:1029800043EA052309B212B21BB2A185E285238670
:102990000028E1D0B4F86460B4F86650B4F8680078
:1029A000891B521B1B1AA185E285238603B0F0BD4B
:1029B00030B50D460178012983B00CD011B1FF204C
:1029C00003B030BD90F87610009313462A46FFF707
:1029D0006FFC03B030BD90F87610009313462A4682
:1029E000FFF712FFECE700BF70B582B006236A461E
:1029F00028210446FFF7DCFF062814D19DF801606A
:102A00009DF800109DF803509DF802209DF80500E8
:102A10009DF8043041EA062142EA052243EA0023F8
:102A200021876287A38702B070BD00BF002200210A
:102A30000173026042608260704700BF10B5074CAE
:102A40000749204605F020F92046012105F0EEF85F
:102A500020460021BDE8104005F010B95C08FF1FBA
:102A60000760003838B50C4605460121E0B203F096
:102A70008BF8044805F09CF821462846BDE838400C
:102A8000FFF7DCBF5C08FF1F2DE9F04F87B006465B
:102A90000391002A00F0C7804FF0000E0B465D1E28
:102AA000013A7746CDF814E0CDF804E0F246F1465D
:102AB000CDF810E0CDF800E0F446CDF808E0F3469C
:102AC00071464FF0FF337646804611E0032900F04F
:102AD0008680042940F08C802C2800F09E80B9F17B
:102AE000000F02D100944FF001099442234610D008
:102AF000022903F1010415F8010FE7D12C2800F099
:102B00008C80002FF1D19442A3464FF00107234659
:102B1000EED1029BCBEB0305284602F03BFD002DD6
:102B2000464604460ADD039B284403EB0B0223467A
:102B300012F8011B03F8011B8342F9D1049B009A90
:102B4000C2EB0308059B019A20469D1A06F08CF8FB
:102B500051EC100B06F038F83061204602F01CFDF5
:102B6000404602F017FDB8F1000F04460BDD009B54
:102B700003990B441A468044034612F8011B03F8DC
:102B8000011B4345F9D1204606F06EF851EC100BBD
:102B900006F01AF8B061204602F0FEFC284602F06A
:102BA000F9FC002D04460BDD039B019A13441F46DC
:102BB0000544034617F8012B03F8012B9D42F9D178
:102BC000204606F051F851EC100B05F0FDFF306285
:102BD000204602F0E1FC012007B0BDE8F08F2C2870
:102BE0001BD0002E81D1029388F8140001267CE7C7
:102BF00005290BD12C2810D0BAF1000F7FF475AF46
:102C0000049388F81C004FF0010A6EE706292ED1C4
:102C1000302804D02C287FF468AF013165E700200C
:102C200007B0BDE8F08F1046009202F0B3FC0446F6
:102C300006F01AF851EC100B05F0C6FF3061204683
:102C400002F0AAFC009A104602F0A4FC044606F02A
:102C50000BF851EC100B05F0B7FFB061204602F005
:102C60009BFC009A104602F095FC0446A8E709294F
:102C700009D12C28D1D0BCF1000F7FF436AF0194DC
:102C80004FF0010C31E70A29C4D12C28C5D0BEF180
:102C9000000F7FF42AAF05934FF0010E25E700BF28
:102CA000D0ED045ADFED266A90ED066ADFED254A85
:102CB000017F026A826085EEA67A10B4047D532CEF
:102CC0004FF06403C6EE267ABDEEC77AFDEEE77AD2
:102CD00017EE104A03FB04F405EE104A17EE904A73
:102CE00003FB04F306EE903AB8EEC55AF8EEE66A36
:102CF00035EEC55A76EE666AC5EE245A5DF8044B89
:102D000086EEA46AB8EEC77AF8EEE77AFFEE006ABC
:102D1000B7EE005A35EE877A76EE277A14BFF0EEDA
:102D2000455AF0EE665A572918BFF0EE456A27EE6D
:102D3000257A67EEA67A80ED007AC0ED017A7047B9
:102D40000000C842000070422DE9F0435FFA81F8AC
:102D5000ADF5017D00218146404602F00FFF494B51
:102D600019684FF00042A223CA624B63CB6A002B62
:102D7000FCDA00248B6BDFF810C1274626464FF49F
:102D800000754FF00040C8624E63CB6A002BFCDA3E
:102D90008B6BDBB20DF80430E4B10DEB040212F8DA
:102DA000012CFF2A40D0012F47D033D3022F38D136
:102DB0000D2A04F1010418D00227013DE3D1404659
:102DC000012102F0DBFE032F15D028460DF5017D11
:102DD000BDE8F083012F45D01CD3022F21D11DF86F
:102DE000012C0D2A04F10104E6D10A2BE4D140465E
:102DF000012102F0C3FEA2B269464846FFF744FE35
:102E0000054689F80C00C8BB012528460DF5017D53
:102E1000BDE8F0839DF80030242B20D00024274605
:102E2000CBE7032FC9D1E2E7FF2B1DD0012F04D040
:102E3000F0D3022FF5D10134BFE70134062C01D0C5
:102E40000127BAE79DF804309DF803709DF805202E
:102E50001B0243EA074313436345DFD1ACE7013468
:102E60000127AAE73C46A8E74046012102F086FE7A
:102E7000002528460DF5017DBDE8F0834846FFF7A3
:102E80000FFFA2E75C08FF1F414747002221FFF721
:102E90005BBF00BF90ED000A704700BF90ED010AD4
:102EA000704700BF90ED020A704700BF007B70477B
:102EB00000207047704700BF10B582B002AB0268B7
:102EC00003F8011D546819460122A04702B010BD45
:102ED000C06938B18369C06847F6FF72181A90421A
:102EE00028BF1046704700BFC36910B504463BB108
:102EF00000201871E06901F0F1FCE3691B791BB156
:102F000001232371002010BD10BD00BFC06978B13E
:102F100000B583B001220DF1070101F0B1FA0128DB
:102F20000CBF9DF807004FF0FF3003B05DF804FBC5
:102F30004FF0FF30704700BFC369C3B110B582B016
:102F40000446012218460DF1070101F099FA012803
:102F500003D04FF0FF3002B010BDE0699DF807408C
:102F6000C168013901F048FB204602B010BD184687
:102F7000704700BFC06908B101F070BB704700BF67
:102F80002DE9F04105464FF47A731348AB600023F6
:102F900028602B712B7324200C46904605F0B4FE5C
:102FA000E861B0B1064604F1200E20686168A268AD
:102FB000E36837460FC7103474453E46F5D12068A4
:102FC000386041460C2205F10D0006F0D7FB0023C6
:102FD0006B762846BDE8F08180BF00004FF47A721E
:102FE000044982600022016002710273C26142736F
:102FF000704700BF80BF0000704700BF30B58BB086
:1030000000240A460A4D8DF808400146012301A814
:103010008DF80A40019501F055FCA04218BF01242B
:1030200002D001A801F0B4F920460BB030BD00BFBA
:10303000A8BF0000F0B50E68835D2F2B08BF0136D6
:10304000841902F1FF3E002523782F2B274604F137
:10305000010408D03BB101350C2D06F101060EF834
:10306000013FF1D18719002353553B782F2B04BF23
:10307000013687190E603878003018BF0120F0BD86
:103080002DE9F04F99B08846264D069500218DF820
:103090001C1083469246994644468DF81E108DF8C2
:1030A00040108DF8421001910F9506AE05E001F039
:1030B0006FF9FDB1234634461E4602AA01A95846BF
:1030C000FFF7B8FF80F00102D2B24B4602A90546D5
:1030D0002046D04721460746012302AA70B1304658
:1030E000ADB101F0EFFB444505462046DFD10DB1FF
:1030F0000FACDFE7002019B0BDE8F08F4445F9D0F0
:10310000204601F045F9384619B0BDE8F08F444536
:1031100006D0204601F03CF9012019B0BDE8F08F3F
:103120000120E8E7A8BF000038B590F83230044627
:103130000D46D3B9FE2D1DD02A460121204600F0B0
:1031400015FE03460BB9002038BD251D2846012277
:10315000214601F0B3FEC0B1294604F12C0001F074
:1031600067F9003018BF012038BD2C3001F010F98C
:10317000FE2DE1D1257000F013FA054600F0FEF9AE
:10318000B5FA85F35B09A070DCE7024621462846C4
:1031900001F094FE0028DFD1002038BD2DE9F04F6A
:1031A00099B04FF00008DFF8E8A08DF81C80814648
:1031B000043106A8934601938DF81E808DF8408057
:1031C0008DF84280CDF818A0CDF83CA001F030F980
:1031D00006AE5D460FAF2F21284606F02FF9441B9F
:1031E000E4B2294608B32B782F2B02A81BD00C2C55
:1031F00028BF0C24224606F0C1FA18AB23443846F7
:1032000003F8588C01F0C4F8012302AA314638466D
:1032100001F058FB88B3304601F0BAF83346254434
:103220003E461F46D7E70135D5E7019831797279D7
:10323000B379B468377DCBEB05050560F068356977
:1032400089F8041089F80520B16989F80630F26917
:10325000336AC9F80C004846C9F800A0C9F808400C
:10326000C9F8105089F81470C9F81810C9F81C2052
:10327000C9F8203019B0BDE8F08F89F8040089F84A
:1032800006004846C9F800A019B0BDE8F08F00BF9D
:10329000A8BF0000F0B59DB005461F4601A86B46CB
:1032A0001446FFF77BFF009AA35C1444002B42D026
:1032B0009DF80A202F4E0A9600238DF82C308DF8A9
:1032C0002E30002A31D00AA83B46224601A901F03F
:1032D000F9FA50B301A801F05BF817F0060F43D1DB
:1032E0009DF82C700C9B9DF82DE0139622469DF8BE
:1032F0002E408DF850708DF8524015930D990E9810
:103300009DF83C70109E119C129B8DF851E0169117
:10331000179013A928468DF8607019961A941B937C
:10332000FFF72EFE28461DB0F0BD2846FFF756FEDB
:1033300028461DB0F0BD9DF808700E4E9DF809405E
:103340009DF80A30039A8DF8507013968DF851400D
:103350008DF852301592049905989DF81870079EC3
:10336000089C099B044AD2E70AA8109901F044F985
:10337000B6E700BFA8BF00009CBF000010B40C4619
:10338000002300F12C01034A20465DF8044BFFF7AF
:1033900077BE00BFFD2F0000064B074ADA6202210C
:1033A000002259609A7083F8242083F8302083F833
:1033B0003220704704A00120A8BF00004FF47A72A9
:1033C000264B02FB00F09842F0B440D8244D08216F
:1033D000012252001301B5FBF3F39842204C32D284
:1033E0000139F6D1B4FBF2F453081F02A04232D2E5
:1033F0001B4E51000123B6FBF1F4A04203F101057D
:1034000011441ED2102D2B46F5D1F022154C164931
:10341000236823F008032360206820F47F2020F431
:103420007F6040F4602040EA0703134323600B6889
:103430001B07FCD50B4A136843F008031360F0BC6C
:1034400070471A01E2E7B4FBF2F4D701CEE7044C6F
:1034500000270122CAE70022D8E700BF4FA9AB002E
:103460000095BA0A2C100B4024100B402049214A29
:103470000B6843F080030B6011461368DB07FCD434
:103480000B689B07F9D41C4B30B44FF08072184D79
:10349000186000E0A2B12968184B154C0B40013AA6
:1034A000002BF7D062B1012B0AD1236813F0800FF3
:1034B00023680FD043F001132360032030BC704712
:1034C0000B4A136843F4702343F001031360012097
:1034D00030BC704713F48030236804D043F00113EC
:1034E00023600520F4E743F001032360F0E700BF09
:1034F00030100B4024100B400C100B4001000E004C
:1035000070B50D4D0D480E4E00232B60FFF7AEFF3A
:1035100040F2E73403463268520701D507480BB141
:10352000184670BD2B60FFF7A1FF013C0346F2D1A6
:10353000002808BF052070BD08100B400000DB0C00
:1035400024100B4070B5094C002305462360084841
:10355000FFF78CFF00B170BD064E07483368256049
:10356000FFF784FF0028F6D1336870BD08100B40C8
:1035700000001A3710100B4000000229074B1A7880
:103580004AB99A782AB15B78002B0CBF022003203D
:103590007047012070470020704700BF58A00120ED
:1035A000AA4AAB491368AB4843F040632DE9F047A2
:1035B00013600B68DFF804E3A74FA84EA84DA94C91
:1035C00002F5232243F400330B6002F62C0240F292
:1035D00003130021CEF800303B6031602B60236084
:1035E0000360136843F0807343F40043136013686F
:1035F000DD01FCD44FF4C870FFF7E0FE9A4A13686F
:103600009C07FCD1944FDFF8B4E29449954D914C5E
:10361000964A934E964840F24343CEF800303B60C2
:103620004FF488670F604FF4813133602B60236063
:10363000116003688F49904D23F0380304F5C824C6
:1036400043F02803036020340B680B60283240F2FB
:10365000DC512560136843F00063136013681801A0
:10366000FCD40139F6D1834A7F48136843F08003C4
:1036700013600368DA0308D4804B022059709970F4
:10368000187059609960BDE8F0877C4C7C4B7D4E8A
:1036900021706170A1700846196031606160A1609D
:1036A000FFF7E4FE70B9784D78482B684FF4D57376
:1036B0003360FFF7DBFE48B92B682B68B3F5D57F85
:1036C00000F0C18001202070BDE8F0870528F9D105
:1036D0000020FFF737FF0028F4D16B4B1A6812F473
:1036E000401F19D06278DFF8D881694F002A05465B
:1036F0001E4608BF4FF440173846FFF723FF013539
:10370000614B002840F0F1803268002AC0F2E4806A
:103710004545F1D1002363705A4E5E480023336063
:10372000FFF7A4FE03460028CCD1574D5A482A681B
:103730003360FFF79BFE0028C4D12B682B685748E5
:103740004E4D1B0C1B0433606360FFF78FFE002897
:10375000B8D1534B53491A68120EEA700A6812F432
:10376000400F40F0AF8019684F481B68026800683E
:103770009B0203F4406343EA9253C0F3C2105A1C05
:10378000C1F30321831C093902FA03F38B40AB60B8
:103790003C4E636833604548384FFFF767FE0028AA
:1037A00090D1394D42482B684FF400733360FFF7D6
:1037B0005DFE002886D17B682A683E483360FFF7AB
:1037C00055FE00287FF47EAF02232A683A48336012
:1037D000FFF74CFE00287FF475AF254B2A681A6866
:1037E000DFF8D8A0DFF87090DFF87080194C22F075
:1037F00006021A601A68A6F5C726A6F2FC76A5F599
:10380000C82542F002021A6040F20313CAF80030E1
:10381000C9F80030C8F80000336046F2A8102B60E9
:103820002360FFF7CBFD40F243434FF48862CAF8B0
:103830000030C9F80030C8F8002033602B602360E6
:103840003878BDE8F0870123637041E700D8004075
:103850003080044014D0044004D0044008D0044018
:103860000CD0044010D0044024100B4004100B4036
:1038700028100B4030100B40BB007F1158A00120D6
:1038800038100B4008100B4010100B4000001A08B5
:10389000000030400000090200001A03000009097E
:1038A00018100B401C100B4014100B4000001B079D
:1038B00000001A1000001A3700001A0600D0044059
:1038C000A086010001220A4BAA701B68C3F31523CE
:1038D00013449B02AB605BE7064A95423FF41AAF84
:1038E0001B685B007FF516AF16E70120BDE8F08787
:1038F00014100B40A0860100F8B5384B1A780AB1B5
:103900000320F8BD5B78064603B94902344D354CB7
:10391000354B36484FF6FF774FF481322F602160E8
:103920001A60FFF7A3FD0028EBD1314B31491B682A
:103930001C3406F1400206F510702B68284F43F046
:10394000200613F4E00F2E603ED123681E05FCD53F
:103950000B6842F8403C0B6842F83C3C0B6842F86C
:10396000383C0B6842F8343C0B6842F8303C0B683A
:1039700042F82C3C0B6842F8283C0B6842F8243C87
:103980000B6842F8203C0B6842F81C3C0B6842F87C
:10399000183C0B6842F8143C0B6842F8103C0B686A
:1039A00042F80C3C0B6842F8083C0B6842F8043CB7
:1039B00040328242C1D1002009490B68084A9B0766
:1039C000FBD50D4B1360F8BD43F4E00343F0200337
:1039D0003B60FFF795FD0120EEE700BF58A00120F6
:1039E00030100B4008100B4004100B4010003A112F
:1039F00010100B4020100B4022000001F8B52B4B9B
:103A00001A780AB10320F8BD5B78044603B949026D
:103A1000274D28482A68284B2A604FF481320160DC
:103A200026481A60FFF722FD0028ECD1244B254ED2
:103A30001B68294604F500770B681D4AD806FBD59C
:103A40002B6813F4E00F1AD104F1400254F8043B40
:103A50003360A242FAD10B68DFF854E043F0100360
:103A60000B600B6813F4E00013D19742E4D11049C6
:103A70000B680F4A9B07FBD5134B1360F8BD136807
:103A800043F4E00343F010031360FFF739FD012016
:103A9000EDE7DEF8003043F4E00343F01003CEF826
:103AA0000030FFF72DFD0120E1E700BF58A0012005
:103AB00030100B4008100B4004100B4000003A1867
:103AC00010100B4020100B4012000001052822D8D6
:103AD000DFE800F003030F151B09124B124A1A60AE
:103AE000124804F065B80F4B114A1A600F4804F0F1
:103AF0005FB80C4B0F4A1A600C4804F059B8094BD8
:103B00000D4A1A60094804F053B8064B0B4A1A6074
:103B1000064804F04DB8034B094A1A60034804F004
:103B200047B800BF68A00120000001B85C08FF1F73
:103B3000043000380110003803200038010002383A
:103B40000650013810B50121007802F017F8114A2B
:103B50001378C3B11049CB7A00241846147093B17E
:103B6000DA0703D50D4AC869106018469C0703D5CB
:103B70000B4B0A6AC87A1A60420705D4030702D5BC
:103B8000084B8A6A1A6010BD074B4A6AC87A1A60E5
:103B9000F4E700BF6CA001205C08FF1F00E100E01B
:103BA00004E100E00CE100E008E100E0234B1A78BA
:103BB0001AB10078002101F0E1BF70B4204A214918
:103BC000D47A096801251D70002C26D072B6D47AEB
:103BD000E607234606D51C4DD3682E683340D361D3
:103BE0002B602346A50706D5184D14692E68D37A95
:103BF000344014622C605C0706D5154D54692E685C
:103C0000D37A344054622C601B0705D5114C93695C
:103C100025682B409362236062B61368DA688A4293
:103C200007D00D4C1C600D4AD96041F080441C61E6
:103C30001A600078002170BC01F0A0BF6CA00120C8
:103C40005C08FF1F68A0012080E100E084E100E043
:103C500088E100E08CE100E001403F0000003F808F
:103C6000F0B41248124A036882B016460093009FCF
:103C70004FF00045FF24136843F480631360D5625E
:103C80005463D36A002BFCDAB36BDBB2FF2B09D091
:103C900003680193019BDB1B8B42ECD3002002B035
:103CA000F0BC7047012002B0F0BC704788A2012030
:103CB00000C00240F8B50D464FF496711646044612
:103CC000FFF7CEFF284B1A684FF0004042F48062A5
:103CD00045F040011A60D8621A465963D36A002B36
:103CE000FCDA214918204FF000470A6826FA00F351
:103CF00042F48062DBB20A60CF624B63CB6A002B76
:103D0000FCDA083810F1080FEFD155B3082D0CBFBD
:103D10008721FF21144B1A684FF0004042F4806263
:103D20001A60D8621A465963D36A002BFCDA0E4A2D
:103D3000002716464FF00045FF21136843F48063C7
:103D40001360D5625163D36A002BFCDAB36BD8B22F
:103D50001B06607000D4F8BD0137B7F5807FECD149
:103D6000F8BD9521D6E700BF00C002402DE9F04321
:103D700000239D4E027085B0837033680193054621
:103D8000884610460121019F01F0F8FE28780121A4
:103D900001F0FAFE2878012101F0F0FE934A136841
:103DA00043F4805313600620FFF790FEDFF870E2C3
:103DB0008F4B9EF80BC01A68BCF1000F2CD072B666
:103DC0009EF80B10C8070B4608D58A48DEF80C3061
:103DD00004682340CEF81C3003600B468C0709D5DD
:103DE0008548DEF8101004689EF80B302140CEF8AC
:103DF00020100160580709D58048DEF814100468C7
:103E00009EF80B302140CEF824100160190700F114
:103E1000AB8062B69EF80BC0DEF80030D9689142E4
:103E200007D0774818607749DA6042F0804018611F
:103E30001960754A0A244FF00040FF21136843F4CB
:103E400080631360D0625163D36A002BFCDA013CBB
:103E500014F0FF04F2D1BCF1000F21D01CF0010FCF
:103E600005D06A4BDEF81C209EF80BC01A601CF0CF
:103E7000020F05D0664BDEF820209EF80BC01A60BA
:103E80001CF0040F05D0634BDEF824209EF80BC015
:103E90001A601CF0080F03D05F4BDEF828201A6070
:103EA0002846FFF783FE06E033680293029BDB1B84
:103EB000B3F5FA6F51D8002211462846FFF7FAFEF3
:103EC000012881466870EFD14FF4D5720821284649
:103ED000FFF7F0FE430726D585F802904FF0000962
:103EE00006E033680393039BDB1BB3F5FA6F34D80A
:103EF000002237212846FFF7DDFE4A4629212846C1
:103F0000FFF7D8FE68700028EBD1AB78022B39D0D0
:103F10002846FFF717FE4046FFF7D8FD012420464C
:103F200005B0BDE8F083384A042194464FF0004EB6
:103F3000FF20136843F480631360C2F82CE05063E1
:103F4000D36A002BFCDADCF838300139DBB211F02F
:103F5000FF016B70EDD1AA2B0FD02846FFF7F2FDC1
:103F6000204605B0BDE8F0832C49DEF8183008681B
:103F70000340CEF828300B604BE70223AB704FF0C4
:103F80008049B5E702463A212846FFF793FE00280C
:103F9000E3D11D4B1A684FF0004442F48062FF20C9
:103FA0001A601946DC625863CB6A174A002BFBDAA9
:103FB000936B154A03F0C003C02B04BF0323AB70FF
:103FC000032116464FF00044FF20136843F480633A
:103FD0001360D4625063D36A002BFCDA013911F00C
:103FE000FF01B36BF1D193E788A201203C8004402C
:103FF00068A0012080E100E084E100E088E100E0C9
:1040000001403F0000003F8000C0024000E100E0AE
:1040100004E100E008E100E00CE100E08CE100E0F8
:104020005C08FF1FF0B41549154A0B6882B01646AC
:104030000093009F4FF00045FF24136843F4806312
:104040001360D5625463D36A002BFCDAB36BDBB226
:10405000FF2B43700AD10B680193019BDB1BB3F567
:10406000967FEAD9002002B0F0BC7047A3F1FE00B1
:10407000B0FA80F0400902B0F0BC704788A201207D
:1040800000C00240F8B58378032B0E46044618BFE3
:104090004E021546FFF78AFD324611212046FFF7F2
:1040A00009FE18B92046FFF7BDFF20B92046FFF7EB
:1040B00049FD0020F8BD204B2049214A1A608E4658
:1040C00059631A4659631E46596305F5FD70A91CCC
:1040D00005F5FE77D36A13F0F00FFBD0C6F834E095
:1040E000B36B01F8013C1B1201F8023C02318F4214
:1040F000F0D105F50075A8420DD20F4A1646D36AD5
:1041000013F0F00FFBD0B36B191200F8021BA8429A
:1041100000F8013CF3D3084B0949084A19601946D5
:104120005A63CB6A044A13F0F00FFAD02046936B1F
:10413000FFF708FD0120F8BD00C00240FFFF00901E
:1041400000041F80F0B4314E33684FF0004743F451
:10415000806333603D46F762344671633346511CD9
:1041600002F20127E26A002AFCDA1A6811F8016CEF
:1041700042F480621A60DD625E63E26A002AFCDA61
:104180001A6811F8026B42F480628F421A60DD6295
:104190005E63E7D11D49CA6A1C4B002AFBDA1A6824
:1041A0004FF0004542F48062FF241A601946DD6238
:1041B0005C63CB6A154A002BFBDA13684FF00045AD
:1041C00043F48063FF2413601146D5625463CB6AC5
:1041D0000E4A002BFBDA13684FF0004543F480636E
:1041E000FF2413601146D5625463CB6A074A002B43
:1041F000FBDA936BDBB203F01F024370A2F1050000
:10420000B0FA80F04009F0BC704700BF00C0024027
:1042100070B5044671B18378032B0D4618BF4D026B
:104220001646FFF7C3FC2A4618212046FFF742FD39
:10423000054620B12046FFF785FC002070BD3246C0
:10424000FE212046FFF77EFF0028F3D04FF41671C1
:104250002046FFF705FD0028ECD02A460D21204618
:10426000FFF728FD0028E5D10B4B1A684FF00045F9
:1042700042F48062FF201A601946DD625863CB6AFF
:10428000054A002BFBDA936B13F0FF0FD2D12046C7
:10429000FFF758FC012070BD00C00240014B024AEC
:1042A0001A60704768A001200320003838B590F9E3
:1042B0000530002B03DBBDE8384000F013BC04469A
:1042C0000121006900F04EFCF8B1257D104B13EB85
:1042D00045151AD0A3790F4A012B9CBFA369EB6146
:1042E000E36912686B831B0CAB8232B105F11601D6
:1042F00005F1180090472B8B6B82637903F07F03E5
:104300006371BDE8384000F0EDBB002038BD00BF50
:104310007CA0012070A0012010B500F10802044625
:104320000121006A00F012FD50B1E3693BB96379E5
:10433000A268E26163F07F036371012010BD012078
:1043400010BD00BF70B50646FFF7E6FF98B1326AB0
:10435000B568117C53691479023D8D40013B74B1FD
:104360001D4402E014F0FF0407D0601900F06AFC5D
:10437000013C0028F6D1002070BD336A197CB06979
:104380004FF4007202FA01F30344B361012070BDDF
:1043900082790AB90020704710B50446FFF786FFFE
:1043A00018B10023A371012010BD002010BD00BF73
:1043B00070B44B1E01F10A04202203F8012FA3421E
:1043C000FBD101380025072610F8014F2CB32E2C05
:1043D0001ED0164A01E09C4217D012F8013B002B78
:1043E000F9D1AE421FD3A4F121025D2A1BD8A4F15A
:1043F0006102192A05F1010398BF203C0D44DBB28C
:1044000098BFE4B22C701D46DEE7002070BC7047F8
:104410000A2EFAD008250A26D6E70B78B3F1200039
:1044200018BF0120F2E71846F0E700BFB8BF000050
:1044300038B583793BB991F82020102A0D460446FF
:1044400003D0202A10D0002038BD022282714A8C6D
:10445000C3615301836100230120607123752562CC
:10446000A360E360236138BD03238371496AC1619E
:1044700000F11802284600F039FC0028EBD1E2E7F1
:10448000837913B94FF0FF3070472DE9F04F8B4619
:104490004179C90783B005465BD5C1688469641A50
:1044A000944228BF144626460194002C69D01A462F
:1044B000022ADFF8FC903D4FDFF8F880C1F3080ACC
:1044C00042D0286A0479013C04EA5124E4B2BAF1EA
:1044D000000F62D1002C60D1002956D1EA69AA6090
:1044E00090F810E04169023A02FA0EF221441144B8
:1044F000CAF500746A79B442A8BF344653062DD475
:10450000B4F5007F2AD00846002100F02BFB00B351
:104510000AEB090E0EEB040086450BD00BF1FF32BF
:10452000734613F8011B02F8011F9842F9D1CEEB34
:1045300000008344E968361B2144E96021D0AA7950
:10454000022AC1F3080ABCD12A6A506A00EB512141
:10455000CEE74FF0FF3003B0BDE8F08F3A689142EC
:10456000D1D0D8F800000378FE2B18D05A46FFF7B8
:1045700089FD0028EDD0E968361B2144A344E96099
:10458000DDD1019803B0BDE8F08F05F10802A968FC
:1045900000F074FB0028DCD0286AAA68A0E758461F
:1045A000FFF7AAF9B0FA80F04009E2E77007FF1FB1
:1045B0007CA0012078A001208379012B17D930B588
:1045C000C36883B001220DF107010446C3F343150C
:1045D000FFF756FF012802D0002003B030BDE3688A
:1045E00004481F3300EB4510E36003B030BD0020EA
:1045F000704700BF7CA00120F8B5837913B18269B0
:104600008A4201D20020F8BD022B0F4605461AD07F
:1046100007B32B6AE9681C7C4A1E04F109037C1E5F
:10462000DA40DC40A24211D9EB69AB6005F1080623
:1046300006E0A968286A00F021FB013C0028E1D0CF
:104640003246002CF5D1EF600120F8BD0029EBD0F7
:10465000A41AEBE7AF60EF600120F8BD83790BB1DE
:10466000FFF724BE184670478379012B01D0002044
:104670007047F0B54579AC0783B002461CD5856913
:104680008D420C4618D3D5B12546D6681446FFF79F
:10469000B3FF88B1B5B9E169206A00F0E1FB58B118
:1046A000E56122E000F0DCFB30B16FF07042A16800
:1046B000206A00F0C3FBC0B9002003B0F0BD18466B
:1046C00003B0F0BD01AAA168206A00F0D7FA002863
:1046D000F2D0206A0F4B90F8207001994FF6F872D3
:1046E000102F08BF13469942DCD36379A279A561E4
:1046F00063F07F036371002ADED02046FFF7D6FD0A
:104700000028D9D0B5422946204628BF3146FFF7B8
:1047100073FFD2E7F8FFFF0F70B51D4B03EB411697
:10472000F37A13F0110F02D012F0420F1ED1194B81
:1047300001751B680361738BB18A43EA0141C16152
:10474000F37A13F01803154604460DD1F36983611B
:104750000123837105F00F03002163716B06A160D3
:10476000E1600FD4012070BD102B01D0002070BD7E
:1047700000F11802006A00F0B9FA0028F6D004230C
:10478000A371E7E72046BDE87040FFF76DBF00BFAB
:104790007CA001207007FF1F2DE9F04784B001AF16
:1047A00006460C46104639469946FFF701FE78B397
:1047B0000022216A316213461546A260E260DFF8EA
:1047C000008108E0E52B1CD001460B22384604F09E
:1047D00079FD88B3E368A2699A421DD92046C3F3E4
:1047E000431AFFF7E9FE98B10378002BEAD15DB9CF
:1047F000D8F8003086F814A03361037823B101257E
:10480000E8E7002DFBD1F3E709F01203122B1DD0CE
:10481000002004B0BDE8F08709F01203122BF7D195
:10482000A5B9A379022BF3D02046FFF78BFD002812
:10483000EED0214C357514E009F03003302BE7D071
:104840004A4651463046FFF767FFE2E701213069EB
:1048500000F088F90028DBD0347D174B13EB4414AB
:10486000D6D020220021204604F05EFD97E8070004
:10487000234603C3114923F8022B0D68120C1A704A
:104880009DB104F10E0104F11000A847238AE289CA
:1048900063822383E28200F025F90028B8D04A46DB
:1048A000317D3046FFF738FFB3E742F621034FF47E
:1048B00000622382E281EBE77CA0012070A001204E
:1048C0007007FF1F10B484791CB100205DF8044B01
:1048D00070475DF8044BFFF75FBF00BF2DE9F04F55
:1048E0008B46817985B001290746019205D00123C5
:1048F0003B71002005B0BDE8F08F42799107F6D5F5
:10490000530708D5FC68B9698C4200F0B480FFF702
:1049100073FE0028EBD0019BFC68002B4AD0DFF827
:10492000A491DFF8A4A1DDF80480386A0679013E7D
:1049300006EA542616F0FF06C4F3080443D1002CFF
:1049400041D1B968002973D1FA69002A00F0838047
:10495000BA60C4F50075ADB245453AD9057C4169E8
:10496000023AAA400E4416441FFA88F51CB9F868AA
:10497000BA6990424FD23046012100F0F3F8002886
:10498000B5D04C4404EB050E74450DD00BF1FF314E
:10499000621E0EF1FF3611F8010F02F8010F964268
:1049A000F9D1C4EB0E04A344FC68B8EB05082C4411
:1049B000FC60BAD1BB69A34262D27A79BC6142F091
:1049C00080027A7165E0C4F50075ADB24545BA68FC
:1049D000C4D8017C4069023A8A400644B5F5007F9C
:1049E0001644C3D1DAF80020964204BF4FF0FF32DC
:1049F000CAF800202F4A10680278FE2A314633D0C8
:104A00005A46FFF705FC00283FF471AF0BF5007B19
:104A10004FF40075C8E700F065F800283FF467AF71
:104A20002549CAF800600A7842F001020A70A8E736
:104A300003AA00F023F900283FF45CAF386A1F4B4B
:104A400090F82050039A4FF6F871102D18BF1946B0
:104A50008A42FFF47DAF3846FFF75EFC00283FF442
:104A600046AF386ABA6874E75846FEF7C7FFB0FA2F
:104A700080F04009C7E7019B002B7FF450AF08E0AE
:104A80000F4B7A791B6823B1019B13B142F080026E
:104A90007A71120709D5BB79002B3FF428AF38464D
:104AA000FFF704FC00283FF422AF019805B0BDE8F1
:104AB000F08F00BF78A001207CA20120F8FFFF0F3B
:104AC00070A001207CA001207007FF1F00B583B0FB
:104AD00002AB012203F8011D1946FFF7FFFE03B0E8
:104AE0005DF804FB70B51A4C23780BB9012070BD3A
:104AF000184D194B286819680378FE2B17D0174AF0
:104B0000FFF786FB88B1164E316819B90023237070
:104B1000012070BD28680378FE2B0FD00F4AFFF7E5
:104B200077FB10B100233360F0E7002070BD0B4825
:104B3000FEF764FFB0FA80F04009E3E70748FEF7AC
:104B40005DFFB0FA80F040090028EBD1EDE700BF2F
:104B50007CA2012078A001207007FF1F7CA001200B
:104B600074A0012070B5124D2B6883420E4611D0FF
:104B70000446FFF7B7FF08B9002070BD0D4B186859
:104B80000378FE2B0CD00C4A2146FFF77BFA002855
:104B9000F2D02C60094B197831431970012070BD97
:104BA00021460548FEF7A8FEB0FA80F04009EEE77E
:104BB0007007FF1F78A001207CA001207CA20120AB
:104BC000F8B590F82030C469102B1A4B05460E46F4
:104BD00017461B6816D004EBD1149C4216D106F080
:104BE0007F06154A42F826701449287E0A78012863
:104BF00042F001020A7018D9A968114A0B441360E7
:104C00000120F8BD04EB11249C4208D0002120466D
:104C1000FFF7A8FF50B195F82030102B07D1F6B25E
:104C2000054A234622F81670DEE70120F8BD234628
:104C3000D5E700BF7007FF1F7CA001207CA20120E8
:104C400074A0012010B50446FFF74CFF78B1084B63
:104C5000002103F5007203F8011F9342FBD1054ABE
:104C6000054913780C6043F001031370012010BD57
:104C70007BA001207CA201207007FF1FC3680133C5
:104C80008B4218D370B590F82030102B154B04468A
:104C900016460D46C0691B680FD000EBD110984234
:104CA0000FD105F07F01104B53F8213023F07043F2
:104CB0003360012070BD0020704700EB1120984246
:104CC00007D00021FFF74EFF50B194F82030102B91
:104CD000E7D1E9B2044B33F811303360012070BDE5
:104CE000002070BD7007FF1F7CA001202DE9F04758
:104CF00082B002ADDFF8508045F8041D04469146AD
:104D00004FF0000A4FF400774FF6F8760CE094F875
:104D10002030227C0199102B14BF4346334607FAFA
:104D200002F29942924408D22A462046FFF7A6FF93
:104D30000028ECD102B0BDE8F0870120C9F800A03E
:104D400002B0BDE8F08700BFF8FFFF0F2DE9F04F7C
:104D5000176883B06FB301374FF0000AC36803F1DF
:104D6000010813B38B46064691463C46002505E0F4
:104D70001C461F46F3680135AB4216D9A04538BF23
:104D80000224214601AA304638BF2746FFF776FFA6
:104D9000631CD91B48B1019A002AE9D18B4510D078
:104DA0001C46F3680135AB42E8D8002003B0BDE8EB
:104DB000F08FA1F1010ABAFA8AFA07684FEA5A1A83
:104DC000CCE7012CF1D9F36801339C42EDD86FF0A8
:104DD000704221463046FFF7F3FE0028E5D0A74297
:104DE00014D2013C012CE0D9F36801339C42DCD899
:104DF000621C21463046FFF7E3FE0028D5D0A742CB
:104E000004F1FF3402D0012CEED1CEE7D9F8001026
:104E100059B10129C9D9F36801339942C5D83A4635
:104E20003046FFF7CDFE0028BFD0C9F80070BAF1B8
:104E3000000F01D0013737600120B7E701290CD9F5
:104E4000C3680133994210B403D85DF8044BFFF7EF
:104E5000B7BE00205DF8044B70470020704700BFCC
:104E6000F0B5022383B00546134F03600C464FF69E
:104E7000F8760FE0EB6801339C4216D8FFF7A0FEEE
:104E800098B195F82030019C102B0CBF33463B465F
:104E90009C420DD201AA21462846FFF7EFFE21468B
:104EA000002210B1012C2846E4D8002003B0F0BD48
:104EB000012003B0F0BD00BFF8FFFF0FF8B53E4B77
:104EC000054619601446DAB1042A01D90020F8BD5C
:104ED00000210846FFF746FE0028F7D0374B03EBCA
:104EE000041292F8AE215206F0D11B3403EB0414E5
:104EF000D4F80A30632BE9D9D4F80640002CE5D069
:104F000000212046FFF72EFE0028DFD02B4AB2F802
:104F10000B30B3F5007FD9D1117C0029D6D0D389CD
:104F2000002BD3D0567B002ED0D0002329762E71B3
:104F30002B74012703E009290B462974C6D007FA10
:104F400003F0B04203F10101F5D1D68A1B4906B93D
:104F50004E6AB2F80EE0AE60A644C5F81CE0B2F8A6
:104F60001110177C6984480106FB07E600F2FF1068
:104F700006EB60206E626861B2F813100F4E01B943
:104F8000316A241A0C4424FA03F340F6F4718B427C
:104F9000EB600BD94FF6F4718B4285BFD36A6B621D
:104FA0001023202385F820300120F8BD0C2385F83C
:104FB00020300120F8BD00BF78A001207CA0012096
:104FC000FF220270427070473F2932D870B58D1EA3
:104FD0001C2D05D9A1F12304032C05D9002070BD97
:104FE000154CEC40E407F5D50446C8B29FED130A12
:104FF00020701D46164600F01BFD32112B11FF21BB
:10500000A270E37061702078002100F0B7FD207875
:10501000012100F0B9FD237809495C11012051F804
:10502000242003F01F0300FA03F3134341F8243054
:1050300070BD0020704700BFFFD13C1800004842FF
:1050400080A2012003783F2B27D8002970B50446A1
:1050500024DBB42925DDB4200146A378E278607012
:10506000D01A4BF20B6202FB00F21B0301FB02F1B0
:1050700003EBE12140F61B5505FB01F18D0D72B6E6
:105080000C2000F0C5FC29460646207800F020FBE5
:10509000304600F0BDFC62B670BD7047002001468E
:1050A000DBE7C8B2D9E700BF08B5FCF771F9FCF738
:1050B00049F802F0E7FAFAE70368C9B21B68184733
:1050C0000368C9B21B6818470368C9B21B68184750
:1050D0000368C9B21B681847084B4A08134410B547
:1050E0000446B3FBF1F000F0AFFE054B1B7803B1B3
:1050F00010BD2046BDE8104002F0B4BB002A751573
:105100009E07FF1F08B5084601F0BAF8012008BD48
:1051100008B5084601F0B4F8012008BD38B50846C6
:105120000D4604F06DFA04460146284601F0B2F837
:10513000204638BD10B508461446114601F0AAF8BD
:10514000204610BD01F084B908B5084601F070F89A
:10515000003018BF012008BD08B5084601F046F828
:10516000003018BF012008BD0846114600F0BABF44
:10517000084601F001B800BF084600F097BF00BF25
:1051800000F020BF10B5064B144603EB5100B0FBF6
:10519000F1F000F059FE2046BDE8104000F0DCBE02
:1051A000002A751501F03CB901F006B901F0F4B818
:1051B00001F0D4B801F0DEB8704700BF0368F0B466
:1051C000FBB1002501249D60DC601B4C1A601C446F
:1051D000241104F130056A11032692009E60174FD6
:1051E0000679174B47F8241002F1604202F561423C
:1051F00005F01F05012000FA05F5E6541560F0BC26
:105200007047104C236843F40003236000BF0E4B2B
:105210000E4DA4F58734A4F59E7401261E60234626
:1052200004609C68002CD0D01033AB420360F8D1EE
:10523000002303601846E2E7008FFCBF8807FF1FCA
:1052400030E400E03C8004400070034040710340C3
:105250000168A9B10B4BF0B40B441B110A4E0B4F64
:105260000B4D46F8237003F1300202F01F040123B6
:105270005211A340002445F822308C600460F0BC39
:10528000704700BF008FFCBF8807FF1FB9510000A7
:1052900080E100E0024A034B012111601B681847BE
:1052A0000C7103408807FF1F024A034B0121116064
:1052B0005B6818471C7103408807FF1F024A034BB5
:1052C000012111609B6818472C7103408807FF1F5C
:1052D000024A034B01211160DB6818473C7103400F
:1052E0008807FF1FF8B50E4671B17AB1074614461C
:1052F00000253B6816F8011B1B6838469847013C9F
:105300000544F6D12846F8BD0846F8BD1046F8BD5C
:1053100000B5064A036812885B6883B001A9ADF83E
:1053200004200222984703B05DF804FB28C0000067
:10533000844641EA000313F003036DD1403A41D3A0
:1053400051F8043B40F8043B51F8043B40F8043B5F
:1053500051F8043B40F8043B51F8043B40F8043B4F
:1053600051F8043B40F8043B51F8043B40F8043B3F
:1053700051F8043B40F8043B51F8043B40F8043B2F
:1053800051F8043B40F8043B51F8043B40F8043B1F
:1053900051F8043B40F8043B51F8043B40F8043B0F
:1053A00051F8043B40F8043B51F8043B40F8043BFF
:1053B00051F8043B40F8043B51F8043B40F8043BEF
:1053C000403ABDD2303211D351F8043B40F8043B8F
:1053D00051F8043B40F8043B51F8043B40F8043BCF
:1053E00051F8043B40F8043B103AEDD20C3205D39F
:1053F00051F8043B40F8043B043AF9D2043208D097
:10540000D2071CBF11F8013B00F8013B01D30B8808
:1054100003806046704700BF082A13D38B078DD0E6
:1054200010F003038AD0C3F10403D21ADB071CBFB8
:1054300011F8013B00F8013B80D331F8023B20F822
:10544000023B7BE7043AD9D3013A11F8013B00F85B
:10545000013BF9D20B7803704B7843708B788370E3
:105460006046704708B5104C08E0236859050DD414
:1054700023681A050FD42368DB0411D4236858036A
:10548000F3D501F06DF923685905F1D501F006F85F
:1054900023681A05EFD500F009F82368DB04EDD581
:1054A00000F004F8EAE700BF3480044008B5FFF7D5
:1054B000D9FF00BF014B10221A8070470020054021
:1054C000704700BF094908B50B6830B16A461844F7
:1054D000A2F50052904202D20860184608BD03F0BF
:1054E000CDFB0C2303604FF0FF3008BD9807FF1F72
:1054F000EFF3138070B9EFF310836BB9EFF305820C
:105500005AB94FF48070EFF311832BB1984228BF42
:10551000184670474FF0FF3070470F2A01D81846E1
:10552000F1E7014BD05CEEE7F0E300E0084A1378C6
:10553000802B01D0002070470649074B07480860C0
:10554000002119701378802BFCD00120704700BF18
:1055500003E007404480044001E0074000002822A7
:10556000094A1378012B01D00020704703F18043D2
:1055700003F5FC23602119701378802BFCD1034BB9
:10558000034A1A600120704703E00740448004404A
:105590000000060203F0B8BB03F0BEBBF0B44D1E22
:1055A0002E46002400E00134B0FBF2F302FB1300AE
:1055B000092800F130078ABF3730F8B2C0B206F8C8
:1055C000010F1846002BEED10A1953704CB1107818
:1055D00015F8016F28700133E01A834202F801695F
:1055E000F5DB0846F0BC704710B4114B53F830207F
:1055F00092F8804234B1012379B182F880305DF8AD
:10560000044B704703EBC0035B681A6851B922F082
:1056100002021A605DF8044B704782F800315DF8B1
:10562000044B704742F003021A605DF8044B704768
:105630002CC000001C4A02EBC00301295B6811D09A
:1056400004291BD052F83000002280F8802229B1B2
:10565000022920D0032922D01A6070474FF48072AB
:105660001A60704752F830004FF4A27280F880122E
:105670001A601A6822F020021A60704752F830103F
:105680004FF4A272012081F880021A601A6842F079
:1056900020021A60704740F203121A6070474FF4FC
:1056A00081721A60704700BF2CC0000030B4054BF7
:1056B000054D064C002210211A602A6020601960F6
:1056C00030BC704714D0034004D0034000D00340E6
:1056D00038B5A0F14203012B044624D900297ADD14
:1056E000994B1B78012505FA03F28A4202D83F281C
:1056F0002CD938BDC21E012A30D9A0F11D02012AC1
:1057000078D90E285BD9A4F12302032A5CD9A4F12D
:105710001002012A94BF8D4A8D4A126802FB0112C1
:1057200022FA03F320E0884B1B780B2B0AD90C2BB1
:105730001CBF0C3B1941422C084657D0BDE83840ED
:1057400002F034B9C3F10C039940F4E72946FFF79E
:105750004BFF2946BDE83840FFF76CBF7D4A126811
:1057600002FB011222FA03F3A21E242A00F2E380B4
:10577000DFE812F0DA00D300CC00C500BE00B700AD
:10578000B000A900A200E100E100E1009B00E100FF
:1057900094008D00E100E10086007F007800710038
:1057A000E100E100E100E100E1006A006300E100E6
:1057B000E100E100E1005C0055004E00470044F2CA
:1057C0008412C240D2079ED5634A126802FB0112BE
:1057D00022FA03F3C8E73F288BD80021FFF704FF24
:1057E00020460121BDE83840FFF724BFBDE838401E
:1057F00002F0BEB8594A126802FB011222FA03F302
:10580000B2E75749574A0B604FF45173136038BDE4
:105810005549564A0B604FF45173136038BD5449D3
:10582000544A0B604FF45173136038BD5249534AC8
:105830000B604FF45173136038BD5149514A0B60EE
:105840004FF45173136038BD4F49504A0B604FF409
:105850005173136038BD4E494E4A0B6040F24443C9
:10586000136038BD4C494D4A0B6040F2444313600D
:1058700038BD4B494B4A0B6040F24443136038BD7E
:1058800049494A4A0B6040F24443136038BD4849D5
:10589000484A0B6040F24463136038BD4649474AAA
:1058A0000B6040F24463136038BD4549454A0B60C4
:1058B00040F24443136038BD4349444A0B6040F210
:1058C0004443136038BD4249424A0B6040F24443AE
:1058D000136038BD4049414A0B6040F244431360B5
:1058E00038BD3F493F4A0B6040F24443136038BD26
:1058F0003D493E4A0B6040F24443136038BD3C4989
:105900003C4A0B6040F24443136038BD3A493B4A7D
:105910000B604FF45173136038BD3949394A0B603D
:105920004FF45173136038BD3749384A0B6040F269
:105930004443136038BD3F2C3FF6DBAE7F29D4BF14
:1059400000210121204649E79C07FF1F08900C40D9
:10595000088003400890034008900B4008800B40EB
:1059600048900B402CB0044040900B4028B00440BD
:1059700038900B4024B0044030900B4020B00440DD
:1059800018800B404CA0044010800B4048A00440FD
:105990001880034008B004401080034004B0044065
:1059A0004080034018C004403880034014C00440C5
:1059B00018900C4004A0044010900C4000A004403B
:1059C00018900B4004C004402880034010B00440ED
:1059D000208003400CB0044028900B400CC00440D1
:1059E00020900B4008C004403080034010C00440A9
:1059F000488003401CC00440189003403490044089
:105A0000109003403090044010900B4000C00440C0
:105A100038B1102828BF1020044AC3B21078137080
:105A20007047024A01231078137070479C07FF1FCC
:105A3000A0F11001C9B2012970B45BD9DFED3B7A46
:105A40003B4AB4EEE70AF1EE10FA47F6122346BFDE
:105A50001A4602250125DFED376A002322FA03F4F6
:105A600007EE904AF8EEE77A27EEA67AB4EEC70A78
:105A7000F1EE10FA07DA0133072BEFD1D20907EE66
:105A8000902AF8EEE77A87EE807A4FF6FF74C21E0E
:105A9000F6EE007A77EE677AFCEEE77A17EE906A18
:105AA000A64228BF2646012A344637D917280ED9E0
:105AB000A0F11D02012A35D90E281ED9233803284A
:105AC00020D9012914D81C4A1C4E1D481DE01D4A2E
:105AD000C24002F0010282F00106002AE8D01A4A10
