:1000000000000320D1010000D10700008907000093
:1000100089070000890700008907000089070000A0
:10002000890700008907000089070000D107000048
:10003000D1070000890700007D1E0000811E00001E
:10004000D1070000D1070000D1070000D107000050
:10005000D1070000D1070000D1070000D107000040
:10006000D1070000D1070000D1070000D107000030
:10007000D1070000D1070000D1070000D107000020
:10008000D1070000D1070000D1070000D107000010
:10009000D1070000D1070000D1070000D107000000
:1000A000D1070000D1070000D1070000D1070000F0
:1000B000D1070000D1070000D1070000D1070000E0
:1000C000D1070000D1070000D1070000D1070000D0
:1000D000D1070000D1070000D1070000D1070000C0
:1000E000D1070000D1070000D1070000D1070000B0
:1000F000D1070000D1070000D1070000D1070000A0
:10010000D1070000D1070000D1070000D10700008F
:10011000D10700008D0D0000D1070000D1070000BD
:10012000D1070000D1070000D1070000D10700006F
:10013000D1070000D1070000D1070000D10700005F
:10014000D1070000D1070000D1070000D10700004F
:10015000D1070000D1070000D1070000D10700003F
:10016000D1070000D1070000D1070000D10700002F
:10017000D1070000D1070000D1070000D10700001F
:10018000D1070000D1070000D1070000D10700000F
:10019000D1070000D1070000D1070000D1070000FF
:1001A000D1070000D1070000D1070000D1070000EF
:1001B000D1070000D1070000D1070000D1070000DF
:1001C000D1070000D1070000D1070000D1070000CF
:1001D0005C4B4CF2205210B51A804DF628121A8052
:1001E00000BF00BF00F0F8FA574B4FF030621A60C2
:1001F000564A9A60564ADA60564B4FF470021A60BB
:10020000554B564A1A60564B1A78110703D51A787F
:1002100042F008021A70534B5349AA221A70534AEB
:10022000534B8B4204D252F8040F43F8040BF8E707
:10023000504B514900228B4202D243F8042BFAE77B
:100240004E494F4A002352F8230041F8230001335E
:10025000742BF8D14B4B4C4A802103F8011B93427D
:10026000FBD14A4B454A1A60494B8A221A70A3F5C2
:10027000805324225A70A0221A709A799207FCD5D2
:100280009A79D406FCD4434A937903F00C03082BE3
:10029000FAD1414B60221A7002331A78802AFCD1BD
:1002A0003C4B01221A715D225A719A799006FCD555
:1002B0009979384A4906FBD5384B394919600021EC
:1002C000596020231370937903F00C030C2BFAD19F
:1002D000344B354A1A60354A354C136813F4807331
:1002E00003D123604FF4A8531360324B324A1A6093
:1002F00000225A60072243F8042C304AC3F80C2D20
:1003000062B600F0B3FB2368DA0705D52C4800F08D
:100310003DFB2C4B2C4A1A602C4B1B785B0609D5F5
:10032000284C294B22689A4204D1254800F02EFB24
:100330000023236001F098FF00F054FA00F01CFA4B
:10034000FEE700BF0E20054030800440823F0400DD
:100350000100002B88ED00E0002008E0030000858C
:1003600002D0074000E007406C10FF1F0C2F000078
:100370003007FF1F6C10FF1F0C12FF1F0002FF1F32
:100380000000000000E400E064E400E008ED00E0AC
:10039000005006400040064001E007404480044011
:1003A0000000060204800440C010070010D0034083
:1003B00014D0034014E000E01FBF02000000202022
:1003C000BADA1D601CE00340A5C3945A00F0074050
:1003D000FFFFFFFFFFFFFFFFFFFFFFFFFFFFFFFF2D
:1003E000FFFFFFFFFFFFFFFFFFFFFFFFFFFFFFFF1D
:1003F000FFFFFFFFFFFFFFFFFFFFFFFFFFFFFFFF0D
:10040000FFFFFFFFFFFFFFFFFFFFFFFFDEF9FFFF23
:1004100010B5054C237833B9044B13B10448AFF33E
:1004200000800123237010BD6C10FF1F000000002E
:10043000102F0000084B10B51BB108490848AFF356
:1004400000800848036803B910BD074B002BFBD0A0
:10045000BDE81040184700BF000000007010FF1FEB
:10046000102F00006C10FF1F0000000038B50D4A6F
:100470000D490E4D0E4C1378002BFCD00B78DB078A
:10048000F9D52B6820681B1A0E2BF4D9094800F007
:100490001BF90521084801F007FB0648BDE8384074
:1004A00000F012B97411FF1F8C11FF1F9010FF1F75
:1004B0000412FF1F3407FF1FBC2B000030B52DEDC9
:1004C000048B234D234C83B0284600F0BBF828460C
:1004D00000F04EF82846B0EE409A00F057F8284653
:1004E000F0EE408A00F060F803211B48B0EE408A2D
:1004F00001F0DAFAFDEEC97A2046CDED017ABDF9B8
:10050000041000F031F90621144801F0CDFAFDEE97
:10051000E87A2046CDED017ABDF9041000F024F907
:1005200006210F4801F0C0FAFDEEC87A2046CDED55
:10053000017ABDF9041000F017F9204600F0C4F864
:10054000322003B0BDEC048BBDE8304000F03CBA73
:100550008810FF1F3407FF1FC42B0000C82B0000AA
:10056000D02B0000014800F063B800BF8810FF1FC7
:10057000B0F90030DFED047A00EE103AB8EEC00AB0
:1005800080EE270A704700BF71FDFF43B0F90230CB
:10059000DFED047A00EE103AB8EEC00A80EE270ACA
:1005A000704700BF71FDFF43B0F90430DFED047AFE
:1005B00000EE103AB8EEC00A80EE270A704700BF7E
:1005C00071FDFF4310B5184C204601F0AFFD2046E9
:1005D000012101F0E9FD2046002101F00DFE204639
:1005E000124901F00FFE01210A2000F0E7F9002175
:1005F0000A2000F0DDF923684FF000411B22D96288
:100600005A63DA6A002AFCDA4FF000419822986BAC
:10061000D9625A63DA6A002AFCDA9B6B01210A204C
:10062000BDE8104000F0C4B9F007FF1F06500038C5
:1006300010B500230446038043808380FFF7C2FF88
:10064000204610BD70B5002182B006460A2000F099
:10065000AFF93C23013BFDD11A4B1A684FF0004122
:100660008823D1625363D36A002BFCDA936B69460B
:100670000DF106054FF000440020D4625063D36AA8
:10068000002BFCDA936B01F8013BA942F5D1012163
:100690000A2000F08DF99DF801509DF800109DF89A
:1006A00003409DF802209DF805009DF8043041EAC2
:1006B000052142EA042243EA002331807280B3809C
:1006C00002B070BDF007FF1F00B5064A036812882C
:1006D0005B6883B001A9ADF804200222984703B0FB
:1006E0005DF804FBD82B0000F0B507468BB0002A5C
:1006F00033D0012A08BF0A2251B3212400E0F4B20A
:10070000B1FBF2F502FB1511C8B2092900F1300165
:1007100098BFC8B20AA988BF3730214488BFC0B289
:1007200001F8240C661E2946002DE8D133B1013CA6
:10073000E4B20AAB23442D2203F8242C3B6801AA1F
:1007400011195B683846C4F1220298470BB0F0BD1E
:1007500030228DF825202124E8E70368C9B21B6800
:1007600098470BB0F0BD00BF0029BABF49422D2306
:1007700000230A22FFF7B8BF08B5FFF777FEFFF79F
:100780009DFE01F095FAFAE708B5104C08E02368E1
:1007900059050DD423681A050FD42368DB0411D43E
:1007A00023685803F3D500F0F1FA23685905F1D511
:1007B00000F00EF823681A05EFD500F009F8236859
:1007C000DB04EDD500F004F8EAE700BF3480044014
:1007D00008B5FFF7D9FF00BF014B10221A80704700
:1007E00000200540704700BF094908B50B6830B1CB
:1007F0006A461844A2F50052904202D20860184698
:1008000008BD01F02BFD0C2303604FF0FF3008BD45
:100810003007FF1F084A1378802B01D00020704753
:100820000649074B07480860002119701378802B90
:10083000FCD00120704700BF03E007404480044023
:1008400001E0074000002822094A1378012B01D05B
:100850000020704703F1804303F5FC2360211970E9
:100860001378802BFCD1034B034A1A600120704798
:1008700003E007404480044000000602F0B44D1E2F
:100880002E46002400E00134B0FBF2F302FB13001B
:10089000092800F130078ABF3730F8B2C0B206F835
:1008A000010F1846002BEED10A1953704CB1107885
:1008B00015F8016F28700133E01A834202F80169CC
:1008C000F5DB0846F0BC704710B4114B53F83020EC
:1008D00092F8804234B1012379B182F880305DF81A
:1008E000044B704703EBC0035B681A6851B922F0F0
:1008F00002021A605DF8044B704782F800315DF81F
:10090000044B704742F003021A605DF8044B7047D5
:10091000DC2B00001C4A02EBC00301295B6811D0EC
:1009200004291BD052F83000002280F8802229B11F
:10093000022920D0032922D01A6070474FF4807218
:100940001A60704752F830004FF4A27280F880129B
:100950001A601A6822F020021A60704752F83010AC
:100960004FF4A272012081F880021A601A6842F0E6
:1009700020021A60704740F203121A6070474FF469
:1009800081721A60704700BFDC2B000030B4054B49
:10099000054D064C002210211A602A602060196063
:1009A00030BC704714D0034004D0034000D0034053
:1009B0003F2801D8FFF788BF704700BF3F2801D804
:1009C000FFF7A8BF704700BF2DE9F843054672B690
:1009D000224F234B234A1B683C68126862B65201BF
:1009E00002D5322B88BF0134B5B3C3F52F3303F2E0
:1009F0001F331D4EDFF86890DFF868809B084FF4C6
:100A00007A72A6FB031302FB04F404EB930472B6A0
:100A1000D9F800103A68D8F800E062B6C1F52F3373
:100A200003F21F339B08A6FB03031EF0806FC4EB89
:100A300093034FF47A7002D0322988BF013200FB51
:100A40000233B3F57A7F04D3013D05D004F57A74FF
:100A5000DDE701F02DF9DAE7BDE8F8839010FF1F1C
:100A600018E000E004ED00E0176CC116F8B54E4B3D
:100A70004E48DFF85CC14E4C4E49DFF858E14E4E0F
:100A80004E4D4F4F4FF000621A604FF080521A6087
:100A90004FF000521A604FF080421A604FF000424F
:100AA0001A600022026028234EF6FF70CCF8000086
:100AB000CEF8003023600EF5012E0B6033602B6002
:100AC00006F500263B6005F50025A36207F5002723
:100AD0008B6204F5012401F5012106F6E87605F69E
:100AE000E87507F57F6710310EF1100E2034336082
:100AF0002B60CEF800303B600B602360314CBB6153
:100B00008B6109212160A7F5002704F58054203F5F
:100B100008343A602060BB60E36047F8041C04F5C9
:100B2000FD2407F5FE27043704F2FC7422603860C8
:100B3000A360FB6044F8041C083404F6FC74C7F896
:100B4000FC2F2060A4F5E124A4F2DC7433602B6058
:100B5000C7F8F81F21681C4841F400712160016842
:100B60001A4C0EF57F4E0EF1E80E07F5883706F5A4
:100B7000803605F5803541F000710160CEF8002027
:100B800047F6FF710822396033602B60226001F064
:100B90007FF91920FFF718FF00F05EFE40F21310F6
:100BA000BDE8F840FFF710BF04E100E00480034017
:100BB000148003401C800340248003402C800340A9
:100BC00034800340008003400480044000900C40C7
:100BD000088003400C800340431E032B14D872B6D8
:100BE0000A4951F8230068B170B4094C058834F8FB
:100BF0001320466841F82360521B24F8132062B684
:100C000070BC704762B6704700207047EC10FF1F41
:100C1000F411FF1F013803280BD872B6074B53F8A5
:100C2000203043B100205B680130002BFBD162B65D
:100C30007047002070471846F9E700BF4011FF1FBA
:100C400030B472B62B4A13781D0706D52A4B196AA1
:100C5000002936D0996A002941D053781C0706D55F
:100C6000254B196C00293ED0996C002939D0937816
:100C7000190705D5204B196E002936D0996E89B118
:100C8000D3781B0707D51C4BD3F880207AB3D3F851
:100C9000882011213AB162B6184B00221A7030BC7C
:100CA00000F076BE0D21154C154D227843F83150D9
:100CB00003EBC1030830013A5860227062B630BCC1
:100CC000704704220D4C0F4D217843F8325003EB4E
:100CD000C20308304A1E5860227062B6EFE7052151
:100CE000E1E70921DFE70822ECE70C22EAE710221E
:100CF000E8E700BF042E00000000FF1F6911FF1F7E
:100D0000C800400088004000431E032B1DD81B4A2A
:100D1000400140F0100030B4104472B6184CE25C50
:100D2000032A1BD8DFE802F00212151703220D88F0
:100D3000E25410F0080F14BFC823882343EA054388
:100D400008310360416062B630BC7047083002224F
:100D5000EDE70522EBE708300422E8E7094A52F8FC
:100D6000230038B1084A52F82300416042F82310AA
:100D700062B6E9E742F82310034AF7E70000FF1FD5
:100D80007811FF1F4011FF1F5011FF1F2DE9F04F79
:100D9000DFF818B3DFF818A387B044E0AE4F4FEA8E
:100DA000930807EBC809013ED9F8042003F00803B3
:100DB000F6B2A2F1080003F0FF04002B40F004811A
:100DC00057F838301B0C99B222F8081C002B00F0A1
:100DD000F280A24B22F8064C42F8044C53F826202D
:100DE000002A00F06E819E4D55F8263058609D4CCB
:100DF00045F8260034F81630194424F8161000F08F
:100E0000A7FD002800F05681974A984B19F0080F6B
:100E100000F1080018BF1346C9F8040047F838303D
:100E200008238BF800309BF80040E4B261071BD523
:100E30008F4B1B78ABB18F490A7802F0FF032AB1C0
:100E4000013BDBB20B70002B00F0EF848A490A787B
:100E500002F0FF032AB1013BDBB20B70002B00F064
:100E6000F78004238BF8003004F0080303F0FF023E
:100E7000002B00F0D6809AF80030DBB21E098DD12D
:100E80009C08DFF8D49159F8342009EBC401C2F36F
:100E90008302013A49680C2A7ED8DFE802F081819A
:100EA0007D7D7D7D7D7D477D7D7D07000868734D5F
:100EB0004A68734F734E286081B240F281606A4B7A
:100EC0006A604FF0010E0022814249F834303A60E6
:100ED000C9F81020C9F8182086F800E05E4C00F22E
:100EE000F480B1F5D06F80F07883B1F5817F00F0A8
:100EF000628300F28782802900F0EC82822940F030
:100F00001E83A98801F07F01042900F218835E483E
:100F10005E4C89000844227062700278930740F1A9
:100F2000798384F800E04FF0020ED8E2544F3A681B
:100F300042B3574B534E5749188834780D784028A0
:100F4000864645F0020828BF4FF0400E002C84F082
:100F500001043470CEEB00000CBF8824C82409EBD8
:100F6000C80680B285F0010544EA0E44726018801C
:100F700049F8384072440D7018B9BEF1400F18BFDF
:100F800000223A603D4B1A88B2F5A06F04D10021CF
:100F90009A785970404B1A70404A012313703FE70A
:100FA000364A158842F22100854200F0FF812E4A20
:100FB00049F83420F0E72C4A2C4B19F0080F18BFE1
:100FC000134647F838302BE700F0E2FC344A354945
:100FD00052F82630002B00F0B68158688C5D42F83C
:100FE000260003F10802C9F80420032C05D8DFE825
:100FF00004F0120F150204228A551A8819F0080FFE
:101000000CBF8823C82343EA024347F8383007E778
:1010100002228A55F1E703228A55EEE705228A5516
:10102000EBE7E00700F11A82210600F14982A207EE
:1010300006D51D4A1D4913780220DBB213700870D3
:10104000E30602D5194B10221A7007B0BDE8F08FE5
:1010500000F00AFE05E700BF0000FF1FEC10FF1FB5
:101060009810FF1FF411FF1FC800400088004000C7
:101070007411FF1FFD10FF1F7C11FF1F6011FF1F68
:101080009410FF1FFC10FF1FC02007406C11FF1FB2
:10109000A810FF1F6811FF1F9820074094200740E9
:1010A0004011FF1F7811FF1F882007408020074054
:1010B00090200740AB4A47F838001378013313708B
:1010C000AEE643F82600A84D91E642F221008142A7
:1010D00000F0358100F2AF81B1F5086F00F01B829E
:1010E000B1F5106F40F02B82226AA049A8780870F1
:1010F000120600F14583D9F828209D49130600F116
:101100003A83D9F830209A49150600F12F83D9F88F
:1011100038209749140600F12483D9F840209449D7
:10112000100600F11983D9F848209149120600F100
:101130000E83D9F850208E49130600F10383D9F8A5
:1011400058208B49150600F1F882D9F860208849AB
:10115000140600F12983D9F868208549100600F1AA
:101160001E83D9F870208249120600F11383D9F842
:1011700078207F49130600F10883D9F880207C4944
:10118000150600F11C83D9F888207949140600F16E
:101190001083D9F890207649100600F1C882D9F85A
:1011A00098207349120600F1BC827248724A734952
:1011B000019073486C4D734C04970023059602957B
:1011C000804617460E461D460394386828B1446889
:1011D00000F0DEFB2046002CF9D100233B60029B8F
:1011E00030681A46002342F8253028B1446800F0E0
:1011F000CFFB2046002CF9D100223260019A98F8EA
:1012000000301146002241F8042B039A0191023B61
:101210004FF0000122F81510032B09D8DFE813F076
:101220004B0104004B0104004FF0010388F800302B
:101230000135042D07F1040706F1040608F1010841
:10124000C3D1514C514B2278464D049F059E00213D
:1012500029701A70130700F14F8262784C49DFF849
:1012600010810A7010074FF00001C9F83010C9F85A
:10127000381000F12B824749A2780A700021C9F882
:101280005010C9F858101107DFF8E48000F1DC8134
:10129000E2784149364C0A7000211207C9F87010F3
:1012A000C9F8781000F1B98133780193002183F0F7
:1012B0000102C9F89010C9F89810002002908046E9
:1012C0008446044635490D7845F0020E09EBCE03FD
:1012D0000393019B002B039B5C600CBF8824C824F4
:1012E00044EA080385F0010449F83E3032700C707E
:1012F000DFF87CE02A4BDFF8A480002840F026814C
:10130000BCF1400F1BD144F0020C09EBCC03029C52
:10131000DFF85CE05C60002A40F02E81020442F0BD
:1013200088029DF804304EF83C20044433700D7060
:101330002346402803D100201A4A3B6010801A4AF5
:101340000123137028E68B5D032B00F22D8101A28F
:1013500052F823F0210E0000210E0000AB14000013
:10136000B11400006911FF1F9810FF1F7411FF1FB7
:101370000000FF1F5011FF1FEC10FF1F4011FF1F47
:101380007811FF1FF411FF1F042E0000C420074036
:10139000C8200740CC200740D02007406811FF1F1D
:1013A000FC10FF1FA810FF1F94200740928892B9DD
:1013B000B14A0D784878157050708D78C87895705E
:1013C000D07010680D79157186284D79897955711D
:1013D000917100F0A580A949A94E0A78307882F071
:1013E0000105002842F002020D700CBF8821C821BF
:1013F00049F8321009EBC20280F001000021307080
:101400005160D4E540F20232914240F08D80A988CB
:1014100001F07F01042900F292806A88002A40F0DE
:101420008E809848CDF804E089000844017841F0A6
:101430000201017041E742F2212081427BD1A9885B
:10144000002940F0E480904B904A9148AC781D68A8
:101450001560CDF804E00A4604702EE78D4B8E48E7
:1014600086491A614FF0020E80F800E0854F0A703D
:101470008A49196099608A4E8A4D8B4C9A610D2178
:101480003970FF213170DFF840E229702270874DFA
:10149000874A8EF800109F27012406F8047C5D60BF
:1014A0000470DA6007B0BDE8F08F00238B55B7E415
:1014B00001238B55B4E44FF0000388F80030B7E601
:1014C0007049784B80220D2008701A70A2077FF5B2
:1014D000B7ADAEE5774C4FF0020E22706270EA882D
:1014E000724580F0A38165490D78402A944645F005
:1014F000020E28BF4FF0400C04EB0C0309EBCE00AA
:101500000293012344604FEA0C48CCEB02000193A4
:101510000022C824E4E6684A664C12782270DEE7AE
:10152000664A0F21117056E7B1F5A06F07D101236C
:1015300000220193C1E642F221329142F7D0514A92
:101540000F231370544A0123137025E540287FF6BA
:10155000DAAE44F002040EEBC401029E4E60BAB152
:101560009DF80410564A19703346403888F80050E8
:1015700040334EF83420DFE69DF804303370020427
:10158000029B0D7042F0C80203444EF83C20D0E6A6
:101590009DF804101970029B404A88F800504038AA
:1015A00040334EF83420C7E619F0080F0CBF022371
:1015B00003238B5534E4A98801F07F010429BED8A8
:1015C0006A88002ABBD12F48CDF804E0890008447E
:1015D000017821F0020101706FE63A4A5468002C4C
:1015E000ADD06888B5F804E003E00C325468002CF4
:1015F000A5D013888342F8D153887345F5D1000AEA
:1016000003280CBF94F800E0B2F808E067E7CDF8D3
:1016100004E052E64FF0020E61E700F099F900286D
:1016200000F0F18008301D4AC4F88400C4F880201E
:1016300000F08EF9002800F0E0800830204AC9F858
:101640008C00C9F888202FE600F082F9002800F00D
:10165000E6800830114AC8F86400C8F8602000F03D
:1016600077F9002800F0D5800830154AC9F86C00D9
:10167000C9F868200CE600BFFC11FF1F6811FF1FAE
:10168000FC10FF1FC02007409010FF1F0412FF1F17
:101690008C11FF1F0000FF1F9420074088004000AE
:1016A000882007408020074098200740AC10FF1F8B
:1016B0000011FF1F6C11FF1F7411FF1FFD10FF1F92
:1016C000C8004000082E00008C20074000F040F9C0
:1016D000002800F08C8008305D4AC8F84400C8F843
:1016E000402000F035F900287BD00830594AC9F86D
:1016F0004C00C9F84820BEE500F02AF900286AD05D
:101700000830534AC9F82400C9F8202000F020F915
:1017100000285AD008304F4AC9F82C00C9F82820B0
:101720009BE5D1F89C00083800F032F93DE5D1F88E
:101730009400083800F02CF931E5C86D083800F045
:1017400027F902E5486D083800F022F9F7E4C86C83
:10175000083800F01DF9ECE4486C083800F018F97E
:10176000E1E4C86B083800F013F9D6E4486B083898
:1017700000F00EF9CBE4C86A083800F009F9C0E4BB
:10178000606A083800F004F9B5E4C86F083800F062
:10179000FFF8F2E4486F083800F0FAF8E7E4C86EA2
:1017A000083800F0F5F8DCE4486E083800F0F0F88E
:1017B000D1E4D1F88C00083800F0EAF8E9E4D1F877
:1017C0008400083800F0E4F8DDE42A78C9F828003D
:1017D00001322A7041E52A78C9F8200001322A70C6
:1017E00094E72A78C9F8480001322A7043E52A783C
:1017F000C8F8400001322A7073E72A78C9F88800D7
:1018000001322A7050E52A78C4F8800001322A702B
:101810000EE72A78C9F8680001322A7038E52A787C
:10182000C8F8600001322A7019E700BEBEF1400F0F
:10183000F44628BF4FF0400C04EB0C030293012345
:10184000CCEB0E004FEA0C48002201933AE500BFB2
:1018500088004000C80040002DE9F041274C00F00E
:1018600089FB002204F1A00023461A605A60083365
:1018700083424FF00001F8D12148224A0368DFF883
:101880009CE0214E214D224FDFF894C0DFF8948078
:1018900043F480230360136843F040731360032311
:1018A0008EF80030A023337002F5C922C4F3072359
:1018B00000F528302B708030C4F3074310323B70A2
:1018C000240EFF230470134D8CF80030124888F862
:1018D00000301370012306F8AC3C4FF400140EF8EE
:1018E000441C7026102107F82C3C2E70046082F8EE
:1018F000F810AEF1440EBDE8F08100BF0000FF1FFC
:101900003480044000D80040402107409C2007401C
:10191000B020074035E400E004E100E04421074046
:10192000802007408820074000F0A2B800F07AB875
:1019300000F054B800F08EB800F06AB900F044B975
:101940000846114600F0B0B8084600F031B900BFB3
:1019500072B60D480268B2FA82F30B2B10DC4FF01E
:101960000041D94022EA0102026062B6074803EB57
:10197000C303DB00C2180021C150104651607047FC
:1019800062B60020704700BF4407FF1FD003FF1F4F
:101990000D4B0E4AC31AA2FB03231B090B2B0CD8B9
:1019A0000B4A127852B972B60A484FF000410268E9
:1019B00021FA03F31A43026062B67047064A1278AE
:1019C000002AF0D0FFF73CB9D003FF1F398EE3386F
:1019D0006911FF1F4407FF1F7411FF1F38B50F4D1A
:1019E000286878B143880288C118013393420C7A81
:1019F00002D24380204638BDFFF7CAFF00232046AD
:101A00002B6038BD064B1B782BB10320FFF7E4F8A1
:101A100028600028E6D14FF0FF3038BD8811FF1F45
:101A20007411FF1F10B5094C206818B14388184481
:101A3000007A10BD064B1B782BB10320FFF7CCF8C2
:101A400020600028F2D14FF0FF3010BD8811FF1F39
:101A50007411FF1F044B054A1B6890881BB11A883C
:101A60005B88D31A184470478811FF1FF411FF1FB9
:101A70000B4B1B789BB110B50A4C206848B1FFF79F
:101A800087FF002303202360FFF7A6F830B1FFF79C
:101A90007FFF0320FFF7A0F80028F8D110BD7047A2
:101AA0007411FF1F8811FF1F2DE9F04FDFF8F89028
:101AB00083B0012289F80020019169B3DFF8EC803E
:101AC000354F019E8346D8F80000B0B3334D4488AB
:101AD000C4F14001B14228BF314604EB010E00229F
:101AE0001FFA8EFE2A70761AA0F802E000F10802B2
:101AF00051B1013C224459441BF8014B02F8014FFB
:101B00008B45F9D1B0F802E0BEF13F0F0BD8244A63
:101B100005211170002ED6D10198002389F80030DC
:101B200003B0BDE8F08F4022028001460420FFF799
:101B3000EBF80022C8F80020E9E73A7822B3194C04
:101B4000164D4FF0010A07E0013C16D02A78A2B9E1
:101B500000F0AEF83A78BAB10420FFF75BF8072836
:101B6000F2D889F800A0FFF7F3FEC8F800000028BB
:101B7000ADD10D4B013C1870E8D101234FF0FF307F
:101B80002B7003B0BDE8F08F00234FF0FF3089F8D1
:101B9000003003B0BDE8F08F7411FF1F8411FF1FE8
:101BA0007C11FF1F214801007D11FF1F8011FF1FC5
:101BB00000B583B002AB012103F8010D1846FFF711
:101BC00073FF03B05DF804FB38B50E4D0E4C28686A
:101BD0000123237028B1408800232370C0F1400006
:101BE00038BD0A4B1B7813B90020207038BD042083
:101BF000FFF710F80728F7D8FFF7AAFE286000289B
:101C0000E9D1F1E78011FF1F7D11FF1F7411FF1F44
:101C1000F8B5114B1B788BB1104E114D346801276C
:101C20002F7064B10F4A6388002717702146238004
:101C30000420FFF769F8376000232B70F8BDFFF729
:101C400087FE084B28B1014604201C70FFF75CF8A2
:101C5000F2E71F70F0E700BF7411FF1F8011FF1F34
:101C60007D11FF1F7C11FF1F38B50E4B1B7873B918
:101C70000D4C216861B103F0FF054B880B800420F7
:101C8000FFF742F8256038BD084B01221A7038BDB5
:101C9000FFF75EFE0028F7D00146BDE8384004207B
:101CA000FFF732B87D11FF1F8011FF1F7C11FF1F4E
:101CB0002DE9F843314E337893B1314F3A787AB900
:101CC0000122D9073A7036D49A0719D400225B074B
:101CD0003A7005D52B4B1A6812B1EFF305820AB1A1
:101CE000BDE8F883EFF3108172B6186818B1264C7E
:101CF0002278002A2ED00029F2D162B6BDE8F883FE
:101D0000DFF8908098F80020002ADFD0DFF8889074
:101D1000002405E0013498F80030E4B2A34212D95F
:101D200059F824502B6828461B6998470028F1D0A1
:101D30002B699847EEE7FFF78DFEC8B9134B1B7868
:101D40001BB93378C0E73378C0E7337803F0FE037C
:101D50003370B9E745691D60012323705DB1AA6145
:101D600001B962B600254577836898472570B7E7C3
:101D700000F0FEF8E2E7064B1D60F1E74807FF1FA1
:101D80008D11FF1F9C11FF1FA011FF1F4B07FF1F8D
:101D90009811FF1FBC11FF1FA411FF1F10B4EFF318
:101DA000108272B6437F33B9017F012908D003291D
:101DB00010D00123437702B962B65DF8044B704737
:101DC000114C2168A1B1114943610B68836108601E
:101DD0005861EEE70E4C216881B10E4943610B68F2
:101DE0008361086058610C4B4FF080511960E0E747
:101DF000064B4161816120601860DAE7054B416163
:101E0000816120601860EEE79C11FF1F9811FF1F91
:101E10009011FF1F9411FF1F04ED00E010B4047F28
:101E20004160022CC26003D05DF8044BFFF7B6BFDF
:101E300083685DF8044B184770B5EFF3108272B6F3
:101E40000C4C206880B10C4E00254369236073B1AF
:101E50009D6102B962B6457783689847EFF31082B7
:101E600072B620680028F0D102B962B670BD336046
:101E7000EFE700BF9011FF1F9411FF1FFFF7DCBFBA
:101E8000024A136801331360704700BF9010FF1FB0
:101E900030B42948294A2A4B2A4D6024E121047094
:101EA00011701B78284C082B30D00A2B2748284962
:101EB00037D00C2B0CBF35225D2212232A60236001
:101EC00002600B60234B24491B78244ABBB10123D9
:101ED0000B601360224B23491B78234A012B26D920
:101EE000042B0FD9082B1ED9102B94BF86238723D0
:101EF0000B6013601D4B01221A7030BC70470B60E1
:101F00001360E7E784230B601360F3E700F58E208E
:101F10000F490830212213232A60236002600B60DE
:101F2000D0E73922F7E785230B601360E2E78023CF
:101F30000B601360DEE700BF004007400140074030
:101F40004907FF1F08B003400CB0034008B00B4026
:101F50000CB00B40BE11FF1F20B0034020B00B405F
:101F60004A07FF1F24B0034024B00B40BD11FF1FE0
:101F7000704700BF10B584B072B6FEF74BFC184A2C
:101F8000184B19491160702280211A701A46197075
:101F900013781B06FCD5154B1C68FEF755FC62B682
:101FA000134B9C429CBF04EB840464002046114CFC
:101FB00001A90A22FEF762FC01A92046002311F8BC
:101FC000012B01333AB10A2B20F8022FF7D1162347
:101FD000237004B010BD5B00DBB2237004B010BDF1
:101FE0000400024000000240000007410C000240D3
:101FF0007F969800D807FF1FF0B4464B464A986B6F
:102000005C6B01791170454922790A701A6B00796D
:102010000870002A46D05968C9688A423ED82168AB
:10202000CC8B240402F1FF3065D4C0F30E00C883CA
:10203000C88B80B2C882996B0968C88B000452D4DF
:10204000C2F30E00C883C88B002480B212F1FF32A5
:10205000C88218BF01221C63596B2E4809680D689D
:1020600000F12C04A54236D00068C46814F0804FFB
:102070000C680D6815BF248824780235013544F0BA
:1020800000440D604463996B254B0979197021490F
:1020900012B14A6B12791A70F0BC7047521A1A6367
:1020A0000122D9E7D86B196805681E4C0A63CC6217
:1020B000CC682D681C4E24F080440327B542CC60C8
:1020C00083F82D701FD1037F4260022BC2601ED0A7
:1020D000F0BCFFF763BE016890F82C00CC6840F0BC
:1020E00000404863CFE7CC8BC2F3080004F47E4481
:1020F0002043C883A7E7CC8BC0F3080004F47E44D8
:102100002043C88394E72B461146F0BC18478368E8
:10211000F0BC1847F007FF1F1F8000401C800040E4
:102120001B80004000000FFF1D1E000090E80C0007
:10213000F0B41C6859682568164F174E2943216072
:10214000164D17491760D66015611160417A154A1E
:102150005C180C3194F82C4053F8215002EBC40168
:1021600049680D60017A5C1803EB8101247ECD691A
:1021700002EBC40149680D60817A581803EB8103B2
:1021800090F84000596C02EBC002F0BC5368196033
:10219000704700BF01401F00011000380110007897
:1021A00000001F80DC2B00004268036805CA10B4E1
:1021B000046822430260DA6889B942F08072D96803
:1021C0008A4209D0196848040CD40A48186042F0C1
:1021D0008040DA60186119605DF8044B704722F0A6
:1021E0008072ECE742F08041DA605DF8044B1961DF
:1021F000704700BF01401F0043680CCB11680B43C0
:10220000136070474268036805CA10B4046822432B
:102210000260D868840100F0E06205D5080900F486
:10222000706021F470410143D8681143814209D0A4
:102230001A68500409D40848186041F08040D960F9
:1022400018611A605DF8044B704741F08042D96014
:102250005DF8044B1A61704701401F00014B18687C
:10226000704700BF580CFF1F70B50F4E0F4D761B07
:10227000B61018BF002405D0013455F8043B984728
:10228000A642F9D10A4E0B4D761B00F033FEB61074
:1022900018BF002406D0013455F8043B9847A642E5
:1022A000F9D170BD70BD00BF002F0000002F0000ED
:1022B0000C2F0000002F0000024B0146186800F0B0
:1022C00003B800BF580CFF1F2DE9F04F01F10B05BB
:1022D000162D83B0064640F29F8035F0070500F1C9
:1022E000BF80A94200F2BC8000F0A6FAB5F5FC7FE1
:1022F000C0F09C826B0A00F0BA80042B00F283814C
:10230000A80900F1390E4FEA4E033830C44F07EBED
:102310008303A3F108015C68A14207D1ACE0002A65
:1023200080F2AC80E468A14200F0A680636823F0EC
:1023300003035A1B0F2AF2DDB9493C6901F1080E6B
:10234000744500F0B381636823F003035A1B0F2A1E
:1023500000F39981002AC1F814E0C1F810E080F27E
:102360009E80B3F5007F80F06781DB0803F1010CEC
:1023700001229B1002FA03F34A6851F83C80C4F82A
:10238000088001EBCC091A43A9F10803E3604A6015
:1023900041F83C40C8F80C40831001249C40944212
:1023A00000F28A80144206D120F003006400144237
:1023B00000F10400FAD007EBC009CC468046DCF8F7
:1023C0000C108C4507D173E1002A80F28181C96825
:1023D0008C4500F06D814B6823F003035A1B0F2AD4
:1023E000F2DD0C46D1F80CC054F8088F4B1945F0BB
:1023F00001054D6042F00101C8F80CC03046CCF830
:1024000008807B613B61C3F80CE0C3F808E05960C9
:102410009A5000F013FA1FE0102921D800F00CFAAE
:102420001025062302207E4F07EB8303A3F1080249
:102430005C68944200F045816368E168A56823F018
:102440000303234430465A68E96042F001028D607C
:102450005A6000F0F3F90834204603B0BDE8F08F6D
:1024600000240C232046336003B0BDE8F08F8023A6
:102470004FF0400E3F2049E770465DE72344E16896
:102480005A68A56842F00102E96030468D605A60E2
:1024900000F0D4F90834204603B0BDE8F08F23449F
:1024A00030465A6842F001025A6000F0C7F9083419
:1024B000204603B0BDE8F08FBC68636823F00308D2
:1024C000A84504D3C5EB08030F2B00F38C80554BB4
:1024D000DFF860911A68D9F8003001332A4404EB20
:1024E000080A00F0608102F580520F3222F47F6208
:1024F00022F00F0211463046019200F0A1F9B0F12E
:10250000FF3F8346019A00F05881824500F2FC802B
:10251000454B1968DA451144196000F05381D9F828
:102520000000DFF810E101301BBFCAEB0B0A514479
:10253000CEF800B019601BF0070100F01781C1F15F
:102540000800C1F58051834408315A44C2F30B029C
:10255000C2EB010949463046019300F071F9431C72
:10256000019B00F03F81CBEB00024A4442F00102A4
:102570001968C7F808B04944BC42CBF80420196078
:10258000DFF8A49016D0B8F10F0F40F2FD8062681A
:10259000A8F10C0323F00703E01802F001024FF04A
:1025A000050E1A430F2B6260C0F804E0C0F808E083
:1025B00000F21C811D4BBC681A68914288BF1960EB
:1025C0001B4B1A689142626888BF196022F00302AF
:1025D0009542A2EB050301D80F2B04DC304600F036
:1025E0002DF9002438E7621943F0010345F0010595
:1025F00065603046BA60536000F020F90834204628
:1026000003B0BDE8F08F142B71D9542B00F2A480D5
:10261000280B00F16F0E4FEA4E036E3076E600BFD6
:102620005C0CFF1FC811FF1FCC11FF1FC411FF1F3F
:10263000C011FF1F6810FF1F5A0A042A5ED9142A0E
:1026400000F2B38002F15C0149005B3207EB810CC0
:1026500057F82110DFF8DC81ACF1080C8C4500F054
:1026600088804A6822F00302934202D289688C452E
:10267000F7D1D1F80CC07A68C4F80CC0A160CCF8CE
:102680000840CC6088E6631942F0010745F0010577
:10269000656030464B610B61C3F80CE0C3F808E09D
:1026A0005F609A50083400F0C9F8D5E64A6873E6CE
:1026B00008F1010818F0030F0CF1080C7FF47FAE4D
:1026C00030E0DC68A34208BF02303FF435AEB3E629
:1026D0000B440C465A68C96854F8085F42F001027E
:1026E0005A603046E9608D6000F0A8F8B4E603F166
:1026F0005C0E03F15B004FEA4E0307E69A0902F114
:10270000390149003832A1E7BC424A4B3FF400AFDF
:102710009C68626822F003025AE759F80839994523
:1027200040F0828010F0030F00F1FF30F5D17B689C
:1027300023EA04037B6064009C423FF6BDAE002C9C
:102740003FF4BAAE1C4240467FF435AE64001C42F2
:1027500000F10400FAD02EE6B3F5AA7F18D8E80BF2
:1027600000F1780E4FEA4E037730CFE54FF48051F9
:10277000EBE60121D8F80430921001FA02F21A4374
:10278000C8F80420614677E70123CBF8043025E739
:1027900040F25452934220D8A80C00F17D0E4FEA2B
:1027A0004E037C30B2E51032A4E6542A26D81A0B28
:1027B00002F16F0149006E3248E7BC68626822F09E
:1027C000030205E7CAF30B0000287FF4A8AE4244D9
:1027D000BB6842F001025A60ECE6FE234FF07F0E28
:1027E0007E2093E501224FF00009C1E604F10801C3
:1027F000304600F0A9F8D9F80010DBE6B2F5AA7F60
:1028000005D8DA0B02F17801490077321EE740F271
:1028100054518A4205D89A0C02F17D0149007C325C
:1028200014E7FE217E2211E77B6884E7E808431C59
:102830005B00F8E55C0CFF1F704700BF704700BFEE
:1028400038B5074C0023054608462360FDF7CCFF4A
:10285000431C00D038BD2368002BFBD02B6038BD53
:102860000812FF1F024B13B1024800F005B8704771
:102870000000000085280000002301461A46184683
:1028800000F04AB938B5074D074C2C1BA41005D0F1
:10289000013C55F8043D9847002CF9D1BDE838407B
:1028A00000F034BB0000000000000000F8B5234F2A
:1028B0000C460646FFF7C0FFBB685D6825F00305C0
:1028C000291B01F6EF7121F47F6121F00F01A1F5C1
:1028D0008054B4F5805F07DB00213046FFF7B0FF7E
:1028E000BB682B44984204D03046FFF7A7FF002076
:1028F000F8BD61423046FFF7A3FF01300DD0104B09
:10290000BA6819682D1B45F001053046091B556052
:102910001960FFF793FF0120F8BD00213046FFF753
:102920008FFFBA68831A0F2BDEDD064C044924683A
:1029300043F00103001B53600860D5E75C0CFF1FE8
:10294000CC11FF1F6810FF1F002945D02DE9F04171
:102950000D468046FFF770FF55F8047C6A4927F062
:102960000103A5F10804E2188E685068B24220F015
:10297000030062D0FE0750600BD455F8087CE41BBE
:1029800001F1080EA56875453B446FD0E768EF601C
:10299000BD6015186D68ED0742D543F00102626015
:1029A000E350B3F5007F18D2DB085A1C4D6851F88C
:1029B0003270A76001209B1000FA03F301EBC20004
:1029C0001D430838E0604D6041F83240FC604046ED
:1029D000BDE8F041FFF732BF70475A0A042A53D8C6
:1029E0009A0902F139077F0002F1380501EB8700EF
:1029F00051F827204449083890424DD0516821F0C1
:102A000003018B4202D292689042F7D1D068E06015
:102A1000A2608460D4604046BDE8F041FFF70EBF7D
:102A200095683A4FBD4203443FD0D068E86043F018
:102A3000010285606260E350B3E7FF07034407D4F7
:102A400055F8082CA41A1344A068E268C26090608C
:102A50002F4A126843F00100934260608C60B6D345
:102A60002C4B40461968FFF721FFB0E71118496861
:102A7000C90744D49168D268CA60034443F0010096
:102A800091606060E350A2E7142A17D802F15C0756
:102A90007F0002F15B05A9E7AA104B68012505FA42
:102AA00002F213434B600246B1E743F001024C616E
:102AB0000C61E560A5606260E35088E7542A06D89F
:102AC0001A0B02F16F077F0002F16E058EE7B2F577
:102AD000AA7F06D8DA0B02F178077F0002F17705AA
:102AE00084E740F25450824206D89A0C02F17D07E6
:102AF0007F0002F17C0579E7FE277E2576E743F02B
:102B000001026260E35062E75C0CFF1F640CFF1F70
:102B10006410FF1FC811FF1F2DE9F047254C2568E1
:102B2000D5F848410646884692469946C4B360683F
:102B30001F2817DC431C76B104EB80050122C5F881
:102B400088A0D4F8881182401143022EC4F888115D
:102B5000C5F808911ED00230636044F82080002040
:102B6000BDE8F087144B03B34FF4C870FFF7A4FB24
:102B70000446D0B1D5F84831002780E88800C5F870
:102B8000484138460123C4F88871C4F88C71002E7E
:102B9000E1D0D1E7D4F88C110A43C4F88C21DAE7EC
:102BA00005F5A674C5F84841C1E74FF0FF30BDE810
:102BB000F08700BFF02E0000B922000048656E6C5F
:102BC0006F000000583A2000090920593A200000FF
:102BD0000909205A3A2000000D0AFFFF4008FE4371
:102BE00040A004404408FE4344A004400018FE43B3
:102BF00000C004403000FE43309004403400FE43E7
:102C0000349004401C18FE431CC004401018FE43BE
:102C100010C004400818FE4308C004400C18FE43CE
:102C20000CC004400C10FE430CB004401010FE43D6
:102C300010B004401810FE4318B004401C10FE43AE
:102C40001CB004401410FE4314B004400418FE43AA
:102C500004C004400010FE4300B004400008FE43DE
:102C600000A004400408FE4304A004400C08FE43F6
:102C70000CA004400808FE4308A004401418FE43BA
:102C800014C004401818FE4318C004400410FE434A
:102C900004B004400810FE4308B004406820FE431E
:102CA00068D004401400FE43149004403800FE43F2
:102CB000389004403C00FE433C9004404000FE43FA
:102CC000409004404808FE4348A004404C08FE439E
:102CD0004CA004402808FE4328A004402C08FE43D2
:102CE0002CA004406020FE4360D004406420FE43DA
:102CF00064D004402010FE4320B004402410FE4362
:102D000024B004402810FE4328B004402C10FE4399
:102D10002CB004404400FE43449004407000FE4345
:102D2000709004407400FE43749004406800FE43B9
:102D3000689004405008FE4350A004405808FE43E9
:102D400058A004405C08FE435CA004405408FE43C5
:102D500054A004402018FE4320C004402418FE4321
:102D600024C004401008FE4310A004401408FE4391
:102D700014A004403818FE4338C004403418FE4301
:102D800034C004403018FE4330C004403C18FE43B9
:102D90003CC004402C18FE432CC004402820FE43B5
:102DA00028D004402C20FE432CD004400020FE43B9
:102DB00000D004400420FE4304D004400820FE4319
:102DC00008D004400C20FE430CD004401020FE43E9
:102DD00010D004401420FE4314D004400000000032
:102DE0000000000049190000411900003D190000D1
:102DF0003919000035190000311900002D190000A3
:102E00002919000000151915000100004C07FF1FCB
:102E100012000000000200007807FF1F43000000BE
:102E200000030000D407FF1F000000000103090495
:102E30006007FF1F0000000002030904BC07FF1F1A
:102E40000000000003030904D807FF1F0000000072
:102E50000000000000000000000000003C80044072
:102E600000100000041A0000FF7F00000F0E000099
:102E7000F91F00000C0827FF0002000000020000FC
:102E800000020000000000000B071CFF0002000011
:102E90000002000000020000000000000D0E1B00F8
:102EA0000002000000020000000200000A02090601
:102EB000141715160F1A2D00000200000002000062
:102EC00000020000000200000002000000020000FA
:102ED00000020000000200000002000000020000EA
:102EE0000003000001010202040408081001200090
:102EF0003008FF1FF8B500BFF8BC08BC9E467047FD
:0C2F000065280000350400006505000095
:042F0C00F8B500BF55
:102F10000C12FF1FE42D000000000000E803000079
:102F200000000000FFFFFFFF010A04011201100171
:102F300002000040C0168304770201020301000072
:102F400018035400650065006E007300790064008A
:102F5000750069006E006F0009024300020100C0A5
:102F600032090400000102020100052400100105DD
:102F7000240101010424020605240600010705823C
:102F80000310004009040100020A000000070503C5
:102F900002400000070584024000000016035500AF
:102FA0005300420020005300650072006900610078
:102FB0006C000000040309040C0300000000000082
:102FC0000000000000000000000000000000000001
:102FD00000C002405C2E0000000000000000000065
:102FE00000000000000000000000000000000000E1
:102FF00000000000000000000000000000000000D1
:1030000000000000000000000000000000000000C0
:10301000000000001C0BFF1F840BFF1FEC0BFF1FA9
:1030200000000000000000000000000000000000A0
:103030000000000000000000000000000000000090
:103040000000000000000000000000000000000080
:103050000000000000000000000000000000000070
:103060000000000000000000000000000000000060
:103070000000000000000000000000000000000050
:103080000000000000000000000000000000000040
:103090000000000000000000000000000000000030
:1030A0000000000000000000000000000000000020
:1030B000000000000000000001000000000000000F
:1030C0000E33CDAB34126DE6ECDE05000B000000D4
:1030D00000000000000000000000000000000000F0
:1030E00000000000000000000000000000000000E0
:1030F00000000000000000000000000000000000D0
:1031000000000000000000000000000000000000BF
:1034300000000000000000003008FF1F0000000036
:10344000000000005C0CFF1F5C0CFF1F640CFF1FE2
:10345000640CFF1F6C0CFF1F6C0CFF1F740CFF1F14
:10346000740CFF1F7C0CFF1F7C0CFF1F840CFF1FC4
:10347000840CFF1F8C0CFF1F8C0CFF1F940CFF1F74
:10348000940CFF1F9C0CFF1F9C0CFF1FA40CFF1F24
:10349000A40CFF1FAC0CFF1FAC0CFF1FB40CFF1FD4
:1034A000B40CFF1FBC0CFF1FBC0CFF1FC40CFF1F84
:1034B000C40CFF1FCC0CFF1FCC0CFF1FD40CFF1F34
:1034C000D40CFF1FDC0CFF1FDC0CFF1FE40CFF1FE4
:1034D000E40CFF1FEC0CFF1FEC0CFF1FF40CFF1F94
:1034E000F40CFF1FFC0CFF1FFC0CFF1F040DFF1F43
:1034F000040DFF1F0C0DFF1F0C0DFF1F140DFF1FF0
:10350000140DFF1F1C0DFF1F1C0DFF1F240DFF1F9F
:10351000240DFF1F2C0DFF1F2C0DFF1F340DFF1F4F
:10352000340DFF1F3C0DFF1F3C0DFF1F440DFF1FFF
:10353000440DFF1F4C0DFF1F4C0DFF1F540DFF1FAF
:10354000540DFF1F5C0DFF1F5C0DFF1F640DFF1F5F
:10355000640DFF1F6C0DFF1F6C0DFF1F740DFF1F0F
:10356000740DFF1F7C0DFF1F7C0DFF1F840DFF1FBF
:10357000840DFF1F8C0DFF1F8C0DFF1F940DFF1F6F
:10358000940DFF1F9C0DFF1F9C0DFF1FA40DFF1F1F
:10359000A40DFF1FAC0DFF1FAC0DFF1FB40DFF1FCF
:1035A000B40DFF1FBC0DFF1FBC0DFF1FC40DFF1F7F
:1035B000C40DFF1FCC0DFF1FCC0DFF1FD40DFF1F2F
:1035C000D40DFF1FDC0DFF1FDC0DFF1FE40DFF1FDF
:1035D000E40DFF1FEC0DFF1FEC0DFF1FF40DFF1F8F
:1035E000F40DFF1FFC0DFF1FFC0DFF1F040EFF1F3E
:1035F000040EFF1F0C0EFF1F0C0EFF1F140EFF1FEB
:10360000140EFF1F1C0EFF1F1C0EFF1F240EFF1F9A
:10361000240EFF1F2C0EFF1F2C0EFF1F340EFF1F4A
:10362000340EFF1F3C0EFF1F3C0EFF1F440EFF1FFA
:10363000440EFF1F4C0EFF1F4C0EFF1F540EFF1FAA
:10364000540EFF1F5C0EFF1F5C0EFF1F640EFF1F5A
:10365000640EFF1F6C0EFF1F6C0EFF1F740EFF1F0A
:10366000740EFF1F7C0EFF1F7C0EFF1F840EFF1FBA
:10367000840EFF1F8C0EFF1F8C0EFF1F940EFF1F6A
:10368000940EFF1F9C0EFF1F9C0EFF1FA40EFF1F1A
:10369000A40EFF1FAC0EFF1FAC0EFF1FB40EFF1FCA
:1036A000B40EFF1FBC0EFF1FBC0EFF1FC40EFF1F7A
:1036B000C40EFF1FCC0EFF1FCC0EFF1FD40EFF1F2A
:1036C000D40EFF1FDC0EFF1FDC0EFF1FE40EFF1FDA
:1036D000E40EFF1FEC0EFF1FEC0EFF1FF40EFF1F8A
:1036E000F40EFF1FFC0EFF1FFC0EFF1F040FFF1F39
:1036F000040FFF1F0C0FFF1F0C0FFF1F140FFF1FE6
:10370000140FFF1F1C0FFF1F1C0FFF1F240FFF1F95
:10371000240FFF1F2C0FFF1F2C0FFF1F340FFF1F45
:10372000340FFF1F3C0FFF1F3C0FFF1F440FFF1FF5
:10373000440FFF1F4C0FFF1F4C0FFF1F540FFF1FA5
:10374000540FFF1F5C0FFF1F5C0FFF1F640FFF1F55
:10375000640FFF1F6C0FFF1F6C0FFF1F740FFF1F05
:10376000740FFF1F7C0FFF1F7C0FFF1F840FFF1FB5
:10377000840FFF1F8C0FFF1F8C0FFF1F940FFF1F65
:10378000940FFF1F9C0FFF1F9C0FFF1FA40FFF1F15
:10379000A40FFF1FAC0FFF1FAC0FFF1FB40FFF1FC5
:1037A000B40FFF1FBC0FFF1FBC0FFF1FC40FFF1F75
:1037B000C40FFF1FCC0FFF1FCC0FFF1FD40FFF1F25
:1037C000D40FFF1FDC0FFF1FDC0FFF1FE40FFF1FD5
:1037D000E40FFF1FEC0FFF1FEC0FFF1FF40FFF1F85
:1037E000F40FFF1FFC0FFF1FFC0FFF1F0410FF1F34
:1037F0000410FF1F0C10FF1F0C10FF1F1410FF1FE1
:103800001410FF1F1C10FF1F1C10FF1F2410FF1F90
:103810002410FF1F2C10FF1F2C10FF1F3410FF1F40
:103820003410FF1F3C10FF1F3C10FF1F4410FF1FF0
:103830004410FF1F4C10FF1F4C10FF1F5410FF1FA0
:0C3840005410FF1F00000200FFFFFFFFFC
:00000001FF
