:1000000000000320D1010000554700000D4700000B
:100010000D4700000D4700000D4700000D47000090
:100020000D4700000D4700000D470000910D000036
:10003000554700000D470000095E00000D5E0000FE
:100040005547000055470000554700005547000040
:100050005547000055470000554700005547000030
:100060005547000055470000554700005547000020
:100070005547000055470000554700005547000010
:100080005547000055470000554700005547000000
:1000900055470000554700005547000055470000F0
:1000A000D5670000E1670000554700005547000094
:1000B00055470000554700005547000055470000D0
:1000C00055470000554700005547000055470000C0
:1000D00055470000554700005547000055470000B0
:1000E00055470000554700005547000055470000A0
:1000F0005547000055470000554700005547000090
:10010000E5420000F94200000D43000021430000D9
:1001100055470000194D00005547000055470000A5
:10012000554700005547000055470000554700005F
:10013000554700005547000055470000554700004F
:10014000554700005547000055470000554700003F
:10015000554700005547000055470000554700002F
:100160005547000055470000ED6700005547000067
:10017000554700005547000055470000554700000F
:1001800055470000554700005547000055470000FF
:1001900055470000554700005547000055470000EF
:1001A00055470000554700005547000055470000DF
:1001B00055470000554700005547000055470000CF
:1001C00055470000554700005547000055470000BF
:1001D0005C4B4CF2205210B51A804DF628121A8052
:1001E00000BF00BF04F0BAFA574B4FF030621A60FC
:1001F000564A9A60564ADA60564B4FF470021A60BB
:10020000554B564A1A60564B1A78110703D51A787F
:1002100042F008021A70534B5349AA221A70534AEB
:10022000534B8B4204D252F8040F43F8040BF8E707
:10023000504B514900228B4202D243F8042BFAE77B
:100240004E494F4A002352F8230041F8230001335E
:10025000742BF8D14B4B4C4A802103F8011B93427D
:10026000FBD14A4B454A1A60494B8A221A70A3F5C2
:10027000805324225A70A0221A709A799207FCD5D2
:100280009A79D406FCD4434A937903F00C03082BE3
:10029000FAD1414B60221A7002331A78802AFCD1BD
:1002A0003C4B01221A715D225A719A799006FCD555
:1002B0009979384A4906FBD5384B394919600021EC
:1002C000596020231370937903F00C030C2BFAD19F
:1002D000344B354A1A60354A354C136813F4807331
:1002E00003D123604FF4A8531360324B324A1A6093
:1002F00000225A60072243F8042C304AC3F80C2D20
:1003000062B604F079FB2368DA0705D52C4804F0BF
:1003100003FB2C4B2C4A1A602C4B1B785B0609D52F
:10032000284C294B22689A4204D1254804F0F4FA5B
:100330000023236006F048FF04F016FA04F044F9A5
:10034000FEE700BF0E20054030800440823F0400DD
:100350000100002B88ED00E0002008E0030000858C
:1003600002D0074000E007403813FF1F0CAA00002E
:100370003007FF1F3813FF1F301EFF1F0002FF1F33
:100380000000000000E400E064E400E008ED00E0AC
:10039000005006400040064001E007404480044011
:1003A0000000060204800440C010070010D0034083
:1003B00014D0034014E000E01FBF02000000202022
:1003C000F30137601CE00340A5C3945A00F00740D6
:1003D000FFFFFFFFFFFFFFFFFFFFFFFFFFFFFFFF2D
:1003E000FFFFFFFFFFFFFFFFFFFFFFFFFFFFFFFF1D
:1003F000FFFFFFFFFFFFFFFFFFFFFFFFFFFFFFFF0D
:10040000FFFFFFFFFFFFFFFFFFFFFFFFDEF9FFFF23
:1004100010B5054C237833B9044B13B10448AFF33E
:1004200000800123237010BD3813FF1F000000005F
:1004300008AA0000084B10B51BB108490848AFF3E3
:1004400000800848036803B910BD074B002BFBD0A0
:10045000BDE81040184700BF000000003C13FF1F1C
:1004600008AA00003813FF1F0000000000B583B089
:10047000002300930348044B80224FF4547100F092
:1004800097FBFEE70814FF1F8D04000080B54F4D59
:100490004F4CDFF84C91DFF84C810BE0012104F068
:1004A0004DFA4C4898F80020494902F003FE062016
:1004B00000F0F2FB202787F31188444803F0B8FBD3
:1004C000424803F0EBFB414803F03AFC424802F09B
:1004D0005DFF002686F311883C48B5F9321003F021
:1004E00009F8B5F93410394884ED000A03F002F830
:1004F000B5F93610354884ED010A02F0FBFFB5F975
:100500002C10324884ED020A02F0EAFFB5F92E10F1
:100510002E4884ED030A02F0E3FFB5F930102B48B2
:1005200084ED040A02F0DCFFB5F93810274884EDA9
:10053000050A02F0E9FFB5F93A10244884ED060AED
:1005400002F0E2FFB5F93C10204884ED070A02F002
:10055000DBFF214884ED080A02F0C0FE1E4884ED4E
:10056000090A02F0C3FE1C4884ED0A0A02F0C6FE26
:1005700084ED0B0A87F31188D9F8283086F31188A7
:10058000236487F31188154803F02CFE86F3118845
:10059000124803F02BFE114884ED0C0A03F02AFEEA
:1005A0000E4884ED0D0A03F029FE0C4884ED0E0A76
:1005B00003F028FE0346014684F83C300720002B58
:1005C0007FF46CAF072004F0B9F96AE77813FF1FD6
:1005D0008017FF1F6017FF1F5817FF1F5413FF1FBF
:1005E000381CFF1F0014FF1F38B5044608460D468F
:1005F00007F066FA2368024629465B68204698475A
:100600000546204603F0ACFE284438BD08B501215C
:10061000092004F099F90121082004F095F901213D
:10062000072004F091F90121062004F08DF9012141
:10063000092004F083F90121072004F07FF9252225
:100640002421174803F000FA40B90121082004F0E2
:1006500075F914491448FFF7C7FFFEE71021104849
:1006600003F094F92221114803F0A8FBFE21104861
:1006700000F02EFD50B10F4802F076FC0E490A48FA
:10068000FFF7B2FF0D4800F055F8FEE70121082002
:1006900004F054F90A490448FFF7A6FFFEE700BF3B
:1006A0007813FF1FE4A000005007FF1F5413FF1F23
:1006B0005818FF1F6017FF1F1CA100006D040000E9
:1006C00030A10000704700BF10B50A4C204600F072
:1006D00059FC094A0949204605F054FC084802F033
:1006E0004BFE084802F0A4FE0748BDE8104003F0A6
:1006F00049BB00BF6017FF1F3007FF1FA10F00009D
:100700005817FF1F7813FF1F5413FF1F08B5002051
:1007100008F064FA054A1368984205D90449096843
:1007200088423CBF10600346184608BDC417FF1F2F
:10073000C817FF1F10B582B072B6154C2060FFF7C6
:10074000E5FFADF10C03984201900AD2431EADF1D2
:100750000D01552203F8012F8B42FBD1ADF10C03A3
:1007600001930C4B1B6883F308880B4B1B6883F3C6
:100770000988062383F31488BFF36F8F00F0ECFA27
:1007800000F028F9236803B19847FFF79BFFFCE7C7
:10079000CC17FF1F3407FF1FC817FF1F034B044A66
:1007A0001B68A3F5C8731360704700BF3407FF1FB1
:1007B000C817FF1F10B4202383F3118890F820304E
:1007C000072B0ED8DFE803F0280D0D2408040D08D0
:1007D000426A93680133936090E80C001A600268E3
:1007E00053604FF0FF34002281680E4B446280F862
:1007F00020201B689A688A42FBD25A6842600360D4
:1008000000211060586081F311885DF8044B704737
:10081000436A00221A60E4E7002383F311885DF83D
:10082000044B7047381CFF1F034B00221B605B60AA
:100830001B615B619A607047381CFF1F0022816852
:10084000084B10B4044680F820201B689A688A423E
:10085000FBD25A6862602360204614605C605DF8D9
:10086000044B7047381CFF1F0A4B99691A6810B473
:1008700081F82000142081F82300106818600124FA
:10088000436082F8204010465DF8044B9A6100F006
:10089000BFBA00BF381CFF1F30B54B1C87B012D049
:1008A0000C4C0D4AA369054601A800F00FFA284632
:1008B000FFF7DAFF049B13B101A800F025FAA36942
:1008C000586A07B030BD034CFFF7CEFFA369586AE2
:1008D00007B030BD381CFF1FB5070000164B70B4C1
:1008E00004469D694162A868A16881424FF00002F8
:1008F0000CD884F820201B689A689142FBD95A686A
:100900006260236014605C6070BC704785F82020D2
:100910001A46126891688842FBD3506868600126C5
:100920002A600560556084F82060294620469C6155
:1009300070BC00F06DBA00BF381CFF1F084B9A69ED
:100940001B6892F823109B68906821B9834234BFDA
:10095000002001207047834294BF0020012070478F
:10096000381CFF1F194830B402688169136803609E
:10097000586092F823508261012482F820409DB98A
:100980008C6881F8205000E01B689A68A242FBD274
:100990005A684A6014240B601160596081F8234042
:1009A000806930BC00F034BA00228C6881F82020C5
:1009B00000E01B689A68A242FBD85A684A600B6044
:1009C0008069116030BC596000F022BA381CFF1FEA
:1009D000FEE700BFF8B5194C194E1A4DFFF724FF7A
:1009E00000F066F900F02CFA20468022164900F04B
:1009F0005DF8164B012280F82020DF68144A44F885
:100A0000180C4FF6FF0139400A430024C461DA6034
:100A1000F26842F08072F2602A68102042F001020F
:100A200020212A60D87783F8221084F3118862B6D7
:100A30000848BDE8F84000F0A3B800BF681CFF1FDD
:100A4000F0ED00E0001000E07CA1000000ED00E00F
:100A50000003FA055CA10000F8B5124DAA6992F8EE
:100A6000233013B1013B82F82330AA6AEB690E4EA2
:100A70000132B342AA6213D09C68013C9C607CB9ED
:100A800020271A68D968DC605660EA6184F311880F
:100A90001869884787F31188EB699A68002AF0D0B3
:100AA000F8BD00BF381CFF1F541CFF1FF0B5104CD1
:100AB000C263656981610226826080F8206000223D
:100AC00000F12C014FF0140E012700F128064561BA
:100AD000046180F823E080F8227080F8212082638E
:100AE0004263286160618662C1620163F0BD00BF3C
:100AF000381CFF1F836841691F4AF0B545680669C5
:100B00000468C76843F8304C142003F8250C012012
:100B100003F8260C4FF0020E002003F828EC03F82F
:100B2000270C43F82C5CA3F1AC045569DFF84CE0CA
:100B300043F86C6C43F8681C43F83C4CA3F1480143
:100B4000A3F11C04A3F1200643F8100C43F8140C85
:100B500043F8407C43F80C7C43F84CEC43F8382CC9
:100B600043F8345C08462961516143F8206C43F82E
:100B70001C4C43F8184CF0BD381CFF1F290E000018
:100B800043688268934210B504D2552103F8011BD3
:100B90009A42FBD1202383F31188FFF7ABFF00219A
:100BA0000446FFF79BFE002383F31188204610BD07
:100BB000F8B54618B04205D20546552705F8017B21
:100BC000AE42FBD1202484F31188483944181A4ED0
:100BD000E061776944F8243C069B44F8203CA4F18A
:100BE000640102251423A260E160E26384F82050CE
:100BF00084F82330002504F12C03DFF844E00F498A
:100C000044F804EC04F12802012084F82200A161D8
:100C10002661676184F82150A563656320463C61C5
:100C20002946A262E36223637461FFF757FE85F3EE
:100C300011882046F8BD00BF381CFF1F74A10000BA
:100C4000290E000038B5104B9C69A36A606204F15C
:100C500028059D4207D01A68A2621846FFF7EEFDEC
:100C6000A36AAB42F7D194F8223043B994F821300B
:100C70009B0704D1636922691A61226953610F20BD
:100C8000BDE83840FFF7F0BD381CFF1F202383F379
:100C90001188FFF7D7BF00BF08B50146202383F3B3
:100CA00011880820FFF7F8FD002383F3118808BDA1
:100CB000054B4FF0FF3003F11C020021586299628E
:100CC000DA611A62704700BF381CFF1F70B40D4E06
:100CD000F469A5680361A942C26004D92468491B6C
:100CE000A5688D42FAD36368436004601860606051
:100CF0008160A3684FF0FF32591AA160726270BC24
:100D0000704700BF381CFF1F03688268416830B419
:100D10009D68064C2A449A600B60056800224FF0DB
:100D2000FF336960C260636230BC7047381CFF1FCC
:100D300008B5202383F31188FFF78EFE002383F389
:100D40001188BDE8084000F033B800BF10B5044674
:100D500003F0A6FA204610BD4EF65F220149024874
:100D600003F054BA310D0000D017FF1F30B4054B0B
:100D7000054A0649802400251C711D60184630BCB8
:100D800005F000B9D017FF1F3007FF1F4D0D000001
:100D9000064A536823F001035360EFF30983683375
:100DA00083F30988002383F31188704730EF00E054
:100DB000202383F31188124B5B6813F4006302D184
:100DC00083F31188704710B5F1EE103AEFF3098400
:100DD0000C4B4FF08072DB6844F8083C44F84C2C14
:100DE000A4F1680383F30988FFF7A8FD18B1064B47
:100DF00044F8503C10BD054B44F8503C10BD00BFBA
:100E000000ED00E030EF00E0390E00003C0E000085
:100E10002DE9F04F2DED108AC1F80CD0C3689D4626
:100E2000BDEC108ABDE8F08F002383F311882846BB
:100E3000A0470020FFF72AFFFFF794FD00DFFEE741
:100E4000034A044B02F1800159601A60704700BFE9
:100E5000D817FF1F101EFF1F00207047704700BFEC
:100E600010B582B002AB026803F8011D5468194640
:100E70000122A04702B010BDC06938B18369C068C3
:100E800047F6FF72181A904228BF1046704700BFFD
:100E9000C36910B504463BB100201871E06901F048
:100EA000F1FCE3691B791BB101232371002010BD04
:100EB00010BD00BFC06978B100B583B001220DF14B
:100EC000070101F0B1FA01280CBF9DF807004FF0AF
:100ED000FF3003B05DF804FB4FF0FF30704700BFF8
:100EE000C369C3B110B582B00446012218460DF1A2
:100EF000070101F099FA012803D04FF0FF3002B04A
:100F000010BDE0699DF80740C168013901F048FB58
:100F1000204602B010BD1846704700BFC06908B136
:100F200001F070BB704700BF2DE9F04105464FF45A
:100F30007A731348AB60002328602B712B73242035
:100F40000C46904606F080F9E861B0B1064604F11F
:100F5000200E20686168A268E36837460FC7103426
:100F600074453E46F5D12068386041460C2205F1B3
:100F70000D0006F063FE00236B762846BDE8F08185
:100F80009CA100004FF47A72044982600022016043
:100F900002710273C2614273704700BF9CA10000DE
:100FA000704700BF30B58BB000240A460A4D8DF85B
:100FB00008400146012301A88DF80A40019501F07F
:100FC00055FCA04218BF012402D001A801F0B4F9D9
:100FD00020460BB030BD00BFC4A10000F0B50E68C4
:100FE000835D2F2B08BF0136841902F1FF3E0025D7
:100FF00023782F2B274604F1010408D03BB101359B
:101000000C2D06F101060EF8013FF1D187190023DE
:1010100053553B782F2B04BF013687190E60387863
:10102000003018BF0120F0BD2DE9F04F99B088467F
:10103000264D069500218DF81C1083469246994650
:1010400044468DF81E108DF840108DF84210019125
:101050000F9506AE05E001F06FF9FDB12346344669
:101060001E4602AA01A95846FFF7B8FF80F0010208
:10107000D2B24B4602A905462046D0472146074634
:10108000012302AA70B13046ADB101F0EFFB444537
:1010900005462046DFD10DB10FACDFE7002019B0C7
:1010A000BDE8F08F4445F9D0204601F045F93846B7
:1010B00019B0BDE8F08F444506D0204601F03CF958
:1010C000012019B0BDE8F08F0120E8E7C4A10000BD
:1010D00038B590F8323004460D46D3B9FE2D1DD0F8
:1010E0002A460121204600F015FE03460BB90020D8
:1010F00038BD251D28460122214601F0B3FEC0B1AE
:10110000294604F12C0001F067F9003018BF0120D6
:1011100038BD2C3001F010F9FE2DE1D1257000F022
:1011200013FA054600F0FEF9B5FA85F35B09A070E5
:10113000DCE702462146284601F094FE0028DFD174
:10114000002038BD2DE9F04F99B04FF00008DFF8CE
:10115000E8A08DF81C808146043106A893460193CF
:101160008DF81E808DF840808DF84280CDF818A053
:10117000CDF83CA001F030F906AE5D460FAF2F214F
:10118000284606F0D5FB441BE4B2294608B32B7869
:101190002F2B02A81BD00C2C28BF0C24224606F0B3
:1011A0004DFD18AB2344384603F8588C01F0C4F8C1
:1011B000012302AA3146384601F058FB88B3304675
:1011C00001F0BAF8334625443E461F46D7E70135BD
:1011D000D5E7019831797279B379B468377DCBEB73
:1011E00005050560F068356989F8041089F805205F
:1011F000B16989F80630F269336AC9F80C004846CB
:10120000C9F800A0C9F80840C9F8105089F814704E
:10121000C9F81810C9F81C20C9F8203019B0BDE869
:10122000F08F89F8040089F806004846C9F800A044
:1012300019B0BDE8F08F00BFC4A10000F0B59DB0AB
:1012400005461F4601A86B461446FFF77BFF009A30
:10125000A35C1444002B42D09DF80A202F4E0A961E
:1012600000238DF82C308DF82E30002A31D00AA8BA
:101270003B46224601A901F0F9FA50B301A801F05A
:101280005BF817F0060F43D19DF82C700C9B9DF86E
:101290002DE0139622469DF82E408DF850708DF863
:1012A000524015930D990E989DF83C70109E119C1C
:1012B000129B8DF851E01691179013A928468DF8CE
:1012C000607019961A941B93FFF72EFE28461DB0E6
:1012D000F0BD2846FFF756FE28461DB0F0BD9DF82C
:1012E00008700E4E9DF809409DF80A30039A8DF85B
:1012F000507013968DF851408DF852301592049924
:1013000005989DF81870079E089C099B044AD2E72F
:101310000AA8109901F044F9B6E700BFC4A1000083
:10132000B8A1000010B40C46002300F12C01034AC0
:1013300020465DF8044BFFF777BE00BFA50F000005
:10134000064B074ADA620221002259609A7083F83C
:10135000242083F8302083F8322070475818FF1F6C
:10136000C4A100004FF47A72264B02FB00F09842B1
:10137000F0B440D8244D0821012252001301B5FBDE
:10138000F3F39842204C32D20139F6D1B4FBF2F497
:1013900053081F02A04232D21B4E51000123B6FB5C
:1013A000F1F4A04203F1010511441ED2102D2B4689
:1013B000F5D1F022154C1649236823F00803236069
:1013C000206820F47F2020F47F6040F4602040EA11
:1013D0000703134323600B681B07FCD50B4A1368F4
:1013E00043F008031360F0BC70471A01E2E7B4FB56
:1013F000F2F4D701CEE7044C00270122CAE700220D
:10140000D8E700BF4FA9AB000095BA0A2C100B40DB
:1014100024100B402049214A0B6843F080030B60E5
:1014200011461368DB07FCD40B689B07F9D41C4BEF
:1014300030B44FF08072184D186000E0A2B12968F6
:10144000184B154C0B40013A002BF7D062B1012B21
:101450000AD1236813F0800F23680FD043F00113E3
:101460002360032030BC70470B4A136843F4702399
:1014700043F001031360012030BC704713F4803047
:10148000236804D043F0011323600520F4E743F000
:1014900001032360F0E700BF30100B4024100B4025
:1014A0000C100B4001000E0070B50D4D0D480E4E96
:1014B00000232B60FFF7AEFF40F2E73403463268AB
:1014C000520701D507480BB1184670BD2B60FFF7D6
:1014D000A1FF013C0346F2D1002808BF052070BDE2
:1014E00008100B400000DB0C24100B4070B5094CB9
:1014F0000023054623600848FFF78CFF00B170BD4C
:10150000064E074833682560FFF784FF0028F6D1B0
:10151000336870BD08100B4000001A3710100B40E4
:1015200000000229074B1A784AB99A782AB15B78E9
:10153000002B0CBF022003207047012070470020C1
:10154000704700BFAC18FF1FAA4AAB491368AB48ED
:1015500043F040632DE9F04713600B68DFF804E3C4
:10156000A74FA84EA84DA94C02F5232243F40033FF
:101570000B6002F62C0240F203130021CEF800307B
:101580003B6031602B6023600360136843F080731D
:1015900043F4004313601368DD01FCD44FF4C870BA
:1015A000FFF7E0FE9A4A13689C07FCD1944FDFF8DE
:1015B000B4E29449954D914C964A934E964840F228
:1015C0004343CEF800303B604FF488670F604FF420
:1015D000813133602B602360116003688F49904D27
:1015E00023F0380304F5C82443F0280303602034B3
:1015F0000B680B60283240F2DC512560136843F021
:101600000063136013681801FCD40139F6D1834AD2
:101610007F48136843F0800313600368DA0308D43B
:10162000804B022059709970187059609960BDE81C
:10163000F0877C4C7C4B7D4E21706170A170084618
:10164000196031606160A160FFF7E4FE70B9784D08
:1016500078482B684FF4D5733360FFF7DBFE48B949
:101660002B682B68B3F5D57F00F0C1800120207076
:10167000BDE8F0870528F9D10020FFF737FF0028E3
:10168000F4D16B4B1A6812F4401F19D06278DFF85E
:10169000D881694F002A05461E4608BF4FF44017FF
:1016A0003846FFF723FF0135614B002840F0F180F9
:1016B0003268002AC0F2E4804545F1D1002363700E
:1016C0005A4E5E4800233360FFF7A4FE034600280D
:1016D000CCD1574D5A482A683360FFF79BFE00284B
:1016E000C4D12B682B6857484E4D1B0C1B0433602C
:1016F0006360FFF78FFE0028B8D1534B53491A6837
:10170000120EEA700A6812F4400F40F0AF801968B8
:101710004F481B68026800689B0203F4406343EA79
:101720009253C0F3C2105A1CC1F30321831C093920
:1017300002FA03F38B40AB603C4E6368336045486C
:10174000384FFFF767FE002890D1394D42482B688B
:101750004FF400733360FFF75DFE002886D17B688D
:101760002A683E483360FFF755FE00287FF47EAFBD
:1017700002232A683A483360FFF74CFE00287FF4C2
:1017800075AF254B2A681A68DFF8D8A0DFF870908B
:10179000DFF87080194C22F006021A601A68A6F56C
:1017A000C726A6F2FC76A5F5C82542F002021A600B
:1017B00040F20313CAF80030C9F80030C8F800003E
:1017C000336046F2A8102B602360FFF7CBFD40F298
:1017D00043434FF48862CAF80030C9F80030C8F8B3
:1017E000002033602B6023603878BDE8F087012348
:1017F000637041E700D800403080044014D00440BA
:1018000004D0044008D004400CD0044010D0044060
:1018100024100B4004100B4028100B4030100B40DC
:10182000BB007F11AC18FF1F38100B4008100B4095
:1018300010100B4000001A080000304000000902A0
:1018400000001A030000090918100B401C100B407F
:1018500014100B4000001B0700001A1000001A377C
:1018600000001A0600D00440A086010001220A4BA5
:10187000AA701B68C3F3152313449B02AB605BE79C
:10188000064A95423FF41AAF1B685B007FF516AF1E
:1018900016E70120BDE8F08714100B40A086010078
:1018A000F8B5384B1A780AB10320F8BD5B780646C4
:1018B00003B94902344D354C354B36484FF6FF7766
:1018C0004FF481322F6021601A60FFF7A3FD0028DA
:1018D000EBD1314B31491B681C3406F1400206F54F
:1018E00010702B68284F43F0200613F4E00F2E6091
:1018F0003ED123681E05FCD50B6842F8403C0B68BE
:1019000042F83C3C0B6842F8383C0B6842F8343CE7
:101910000B6842F8303C0B6842F82C3C0B6842F8EC
:10192000283C0B6842F8243C0B6842F8203C0B68CA
:1019300042F81C3C0B6842F8183C0B6842F8143C17
:101940000B6842F8103C0B6842F80C3C0B6842F8FC
:10195000083C0B6842F8043C40328242C1D100206E
:1019600009490B68084A9B07FBD50D4B1360F8BD6E
:1019700043F4E00343F020033B60FFF795FD0120B3
:10198000EEE700BFAC18FF1F30100B4008100B40F3
:1019900004100B4010003A1110100B4020100B40A7
:1019A00022000001F8B52B4B1A780AB10320F8BDCC
:1019B0005B78044603B94902274D28482A68284B1A
:1019C0002A604FF48132016026481A60FFF722FD39
:1019D0000028ECD1244B254E1B68294604F50077DE
:1019E0000B681D4AD806FBD52B6813F4E00F1AD1FB
:1019F00004F1400254F8043B3360A242FAD10B6870
:101A0000DFF854E043F010030B600B6813F4E000C0
:101A100013D19742E4D110490B680F4A9B07FBD5BD
:101A2000134B1360F8BD136843F4E00343F0100355
:101A30001360FFF739FD0120EDE7DEF8003043F4D5
:101A4000E00343F01003CEF80030FFF72DFD012036
:101A5000E1E700BFAC18FF1F30100B4008100B402F
:101A600004100B4000003A1810100B4020100B40DF
:101A700012000001052822D8DFE800F003030F154B
:101A80001B09124B124A1A60124804F01BBB0F4B81
:101A9000114A1A600F4804F015BB0C4B0F4A1A602C
:101AA0000C4804F00FBB094B0D4A1A60094804F0BA
:101AB00009BB064B0B4A1A60064804F003BB034BF4
:101AC000094A1A60034804F0FDBA00BFBC18FF1FA2
:101AD000000001B80C08FF1F043000380110003866
:101AE00003200038010002380650013810B50121EA
:101AF000007802F023FF114A1378C3B11049CB7A62
:101B000000241846147093B1DA0703D50D4AC8694A
:101B1000106018469C0703D50B4B0A6AC87A1A60F6
:101B2000420705D4030702D5084B8A6A1A6010BD24
:101B3000074B4A6AC87A1A60F4E700BFC018FF1F53
:101B40000C08FF1F00E100E004E100E00CE100E010
:101B500008E100E0234B1A781AB10078002102F066
:101B6000EDBE70B4204A2149D47A096801251D7060
:101B7000002C26D072B6D47AE607234606D51C4D33
:101B8000D3682E683340D3612B602346A50706D562
:101B9000184D14692E68D37A344014622C605C07A7
:101BA00006D5154D54692E68D37A344054622C60A2
:101BB0001B0705D5114C936925682B409362236060
:101BC00062B61368DA688A4207D00D4C1C600D4A71
:101BD000D96041F080441C611A600078002170BC1B
:101BE00002F0ACBEC018FF1F0C08FF1FBC18FF1F7F
:101BF00080E100E084E100E088E100E08CE100E0C9
:101C000001403F0000003F80F0B41248124A0368D0
:101C100082B016460093009F4FF00045FF241368E2
:101C200043F480631360D5625463D36A002BFCDAFB
:101C3000B36BDBB2FF2B09D003680193019BDB1B65
:101C40008B42ECD3002002B0F0BC7047012002B000
:101C5000F0BC7047D41AFF1F00C00240F8B50D4613
:101C60004FF4967116460446FFF7CEFF284B1A68CC
:101C70004FF0004042F4806245F040011A60D862A3
:101C80001A465963D36A002BFCDA214918204FF019
:101C900000470A6826FA00F342F48062DBB20A6069
:101CA000CF624B63CB6A002BFCDA083810F1080FC7
:101CB000EFD155B3082D0CBF8721FF21144B1A68B3
:101CC0004FF0004042F480621A60D8621A465963AD
:101CD000D36A002BFCDA0E4A002716464FF0004567
:101CE000FF21136843F480631360D5625163D36AA4
:101CF000002BFCDAB36BD8B21B06607000D4F8BDC1
:101D00000137B7F5807FECD1F8BD9521D6E700BF4C
:101D100000C002402DE9F04300239D4E027085B0C3
:101D20008370336801930546884610460121019F60
:101D300002F004FE2878012102F006FE2878012135
:101D400002F0FCFD934A136843F4805313600620AD
:101D5000FFF790FEDFF870E28F4B9EF80BC01A6819
:101D6000BCF1000F2CD072B69EF80B10C8070B46C2
:101D700008D58A48DEF80C3004682340CEF81C30C1
:101D800003600B468C0709D58548DEF810100468FF
:101D90009EF80B302140CEF820100160580709D57D
:101DA0008048DEF8141004689EF80B302140CEF80D
:101DB00024100160190700F1AB8062B69EF80BC0D9
:101DC000DEF80030D968914207D07748186077492B
:101DD000DA6042F0804018611960754A0A244FF0B9
:101DE0000040FF21136843F480631360D0625163A5
:101DF000D36A002BFCDA013C14F0FF04F2D1BCF1F1
:101E0000000F21D01CF0010F05D06A4BDEF81C201A
:101E10009EF80BC01A601CF0020F05D0664BDEF86E
:101E200020209EF80BC01A601CF0040F05D0634BF5
:101E3000DEF824209EF80BC01A601CF0080F03D0B7
:101E40005F4BDEF828201A602846FFF783FE06E085
:101E500033680293029BDB1BB3F5FA6F51D8002263
:101E600011462846FFF7FAFE012881466870EFD137
:101E70004FF4D57208212846FFF7F0FE430726D518
:101E800085F802904FF0000906E033680393039B46
:101E9000DB1BB3F5FA6F34D8002237212846FFF751
:101EA000DDFE4A4629212846FFF7D8FE6870002843
:101EB000EBD1AB78022B39D02846FFF717FE40460E
:101EC000FFF7D8FD0124204605B0BDE8F083384A6D
:101ED000042194464FF0004EFF20136843F48063C2
:101EE0001360C2F82CE05063D36A002BFCDADCF8F4
:101EF00038300139DBB211F0FF016B70EDD1AA2B44
:101F00000FD02846FFF7F2FD204605B0BDE8F0836C
:101F10002C49DEF8183008680340CEF828300B60F2
:101F20004BE70223AB704FF08049B5E702463A21F8
:101F30002846FFF793FE0028E3D11D4B1A684FF0A7
:101F4000004442F48062FF201A601946DC62586344
:101F5000CB6A174A002BFBDA936B154A03F0C003D8
:101F6000C02B04BF0323AB70032116464FF000447F
:101F7000FF20136843F480631360D4625063D36A14
:101F8000002BFCDA013911F0FF01B36BF1D193E7BB
:101F9000D41AFF1F3C800440BC18FF1F80E100E002
:101FA00084E100E088E100E001403F0000003F8064
:101FB00000C0024000E100E004E100E008E100E0D0
:101FC0000CE100E08CE100E00C08FF1FF0B41549C3
:101FD000154A0B6882B016460093009F4FF00045EB
:101FE000FF24136843F480631360D5625463D36A9B
:101FF000002BFCDAB36BDBB2FF2B43700AD10B680A
:102000000193019BDB1BB3F5967FEAD9002002B058
:10201000F0BC7047A3F1FE00B0FA80F0400902B0B6
:10202000F0BC7047D41AFF1F00C00240F8B5837897
:10203000032B0E46044618BF4E021546FFF78AFDD5
:10204000324611212046FFF709FE18B92046FFF756
:10205000BDFF20B92046FFF749FD0020F8BD204B09
:102060002049214A1A608E4659631A4659631E4612
:10207000596305F5FD70A91C05F5FE77D36A13F0C9
:10208000F00FFBD0C6F834E0B36B01F8013C1B1233
:1020900001F8023C02318F42F0D105F50075A842EB
:1020A0000DD20F4A1646D36A13F0F00FFBD0B36B74
:1020B000191200F8021BA84200F8013CF3D3084BA8
:1020C0000949084A196019465A63CB6A044A13F051
:1020D000F00FFAD02046936BFFF708FD0120F8BD02
:1020E00000C00240FFFF009000041F80F0B4314E9A
:1020F00033684FF0004743F4806333603D46F76236
:10210000344671633346511C02F20127E26A002A09
:10211000FCDA1A6811F8016C42F480621A60DD6220
:102120005E63E26A002AFCDA1A6811F8026B42F474
:1021300080628F421A60DD625E63E7D11D49CA6A20
:102140001C4B002AFBDA1A684FF0004542F480620B
:10215000FF241A601946DD625C63CB6A154A002BC6
:10216000FBDA13684FF0004543F48063FF241360EB
:102170001146D5625463CB6A0E4A002BFBDA136812
:102180004FF0004543F48063FF2413601146D5628D
:102190005463CB6A074A002BFBDA936BDBB203F084
:1021A0001F024370A2F10500B0FA80F04009F0BCB4
:1021B000704700BF00C0024070B5044671B183781B
:1021C000032B0D4618BF4D021646FFF7C3FC2A46E7
:1021D00018212046FFF742FD054620B12046FFF7B3
:1021E00085FC002070BD3246FE212046FFF77EFFB1
:1021F0000028F3D04FF416712046FFF705FD0028A4
:10220000ECD02A460D212046FFF728FD0028E5D115
:102210000B4B1A684FF0004542F48062FF201A60B1
:102220001946DD625863CB6A054A002BFBDA936BD3
:1022300013F0FF0FD2D12046FFF758FC012070BDEC
:1022400000C00240014B024A1A607047BC18FF1FD1
:102250000320003838B590F90530002B03DBBDE8CA
:10226000384000F013BC04460121006900F04EFC28
:10227000F8B1257D104B13EB45151AD0A3790F4A01
:10228000012B9CBFA369EB61E36912686B831B0C94
:10229000AB8232B105F1160105F1180090472B8B86
:1022A0006B82637903F07F036371BDE8384000F00F
:1022B000EDBB002038BD00BFD018FF1FC418FF1FA2
:1022C00010B500F1080204460121006A00F012FD79
:1022D00050B1E3693BB96379A268E26163F07F03BF
:1022E0006371012010BD012010BD00BF70B506460E
:1022F000FFF7E6FF98B1326AB568117C536914792B
:10230000023D8D40013B74B11D4402E014F0FF0416
:1023100007D0601900F06AFC013C0028F6D10020CB
:1023200070BD336A197CB0694FF4007202FA01F390
:102330000344B361012070BD82790AB9002070475F
:1023400010B50446FFF786FF18B10023A3710120E2
:1023500010BD002010BD00BF70B44B1E01F10A0477
:10236000202203F8012FA342FBD1013800250726C4
:1023700010F8014F2CB32E2C1ED0164A01E09C42BF
:1023800017D012F8013B002BF9D1AE421FD3A4F1B4
:1023900021025D2A1BD8A4F16102192A05F101036B
:1023A00098BF203C0D44DBB298BFE4B22C701D46B0
:1023B000DEE7002070BC70470A2EFAD008250A26F6
:1023C000D6E70B78B3F1200018BF0120F2E71846DA
:1023D000F0E700BFD4A1000038B583793BB991F88C
:1023E0002020102A0D46044603D0202A10D00020B9
:1023F00038BD022282714A8CC3615301836100237C
:102400000120607123752562A360E360236138BDFC
:1024100003238371496AC16100F11802284600F064
:1024200039FC0028EBD1E2E7837913B94FF0FF3094
:1024300070472DE9F04F8B464179C90783B00546B7
:102440005BD5C1688469641A944228BF1446264645
:102450000194002C69D01A46022ADFF8FC903D4F07
:10246000DFF8F880C1F3080A42D0286A0479013CF9
:1024700004EA5124E4B2BAF1000F62D1002C60D119
:10248000002956D1EA69AA6090F810E04169023A41
:1024900002FA0EF221441144CAF500746A79B4427A
:1024A000A8BF344653062DD4B4F5007F2AD0084681
:1024B000002100F02BFB00B30AEB090E0EEB040029
:1024C00086450BD00BF1FF32734613F8011B02F85F
:1024D000011F9842F9D1CEEB00008344E968361B16
:1024E0002144E96021D0AA79022AC1F3080ABCD1AB
:1024F0002A6A506A00EB5121CEE74FF0FF3003B05B
:10250000BDE8F08F3A689142D1D0D8F80000037846
:10251000FE2B18D05A46FFF789FD0028EDD0E96858
:10252000361B2144A344E960DDD1019803B0BDE826
:10253000F08F05F10802A96800F074FB0028DCD0D8
:10254000286AAA68A0E75846FFF7AAF9B0FA80F00F
:102550004009E2E73807FF1FD018FF1FCC18FF1F04
:102560008379012B17D930B5C36883B001220DF1EF
:1025700007010446C3F34315FFF756FF012802D0B5
:10258000002003B030BDE36804481F3300EB451062
:10259000E36003B030BD0020704700BFD018FF1FBC
:1025A000F8B5837913B182698A4201D20020F8BD5F
:1025B000022B0F4605461AD007B32B6AE9681C7C2C
:1025C0004A1E04F109037C1EDA40DC40A24211D904
:1025D000EB69AB6005F1080606E0A968286A00F01F
:1025E00021FB013C0028E1D03246002CF5D1EF6000
:1025F0000120F8BD0029EBD0A41AEBE7AF60EF6033
:102600000120F8BD83790BB1FFF724BE184670474F
:102610008379012B01D000207047F0B54579AC07D4
:1026200083B002461CD585698D420C4618D3D5B1BE
:102630002546D6681446FFF7B3FF88B1B5B9E169FE
:10264000206A00F0E1FB58B1E56122E000F0DCFB1C
:1026500030B16FF07042A168206A00F0C3FBC0B9CE
:10266000002003B0F0BD184603B0F0BD01AAA16878
:10267000206A00F0D7FA0028F2D0206A0F4B90F8B9
:10268000207001994FF6F872102F08BF1346994237
:10269000DCD36379A279A56163F07F036371002ABB
:1026A000DED02046FFF7D6FD0028D9D0B542294616
:1026B000204628BF3146FFF773FFD2E7F8FFFF0F30
:1026C00070B51D4B03EB4116F37A13F0110F02D0D6
:1026D00012F0420F1ED1194B01751B680361738BF9
:1026E000B18A43EA0141C161F37A13F01803154638
:1026F00004460DD1F36983610123837105F00F0353
:10270000002163716B06A160E1600FD4012070BDF0
:10271000102B01D0002070BD00F11802006A00F0FB
:10272000B9FA0028F6D00423A371E7E72046BDE8F4
:102730007040FFF76DBF00BFD018FF1F3807FF1FA5
:102740002DE9F04784B001AF06460C4610463946E5
:102750009946FFF701FE78B30022216A31621346E1
:102760001546A260E260DFF8008108E0E52B1CD08E
:1027700001460B22384605F045F888B3E368A269A4
:102780009A421DD92046C3F3431AFFF7E9FE98B1D8
:102790000378002BEAD15DB9D8F8003086F814A090
:1027A0003361037823B10125E8E7002DFBD1F3E77E
:1027B00009F01203122B1DD0002004B0BDE8F087F1
:1027C00009F01203122BF7D1A5B9A379022BF3D08C
:1027D0002046FFF78BFD0028EED0214C357514E024
:1027E00009F03003302BE7D04A4651463046FFF718
:1027F00067FFE2E70121306900F088F90028DBD0AB
:10280000347D174B13EB4414D6D0202200212046F0
:1028100005F02AF897E80700234603C3114923F877
:10282000022B0D68120C1A709DB104F10E0104F117
:102830001000A847238AE28963822383E28200F0A2
:1028400025F90028B8D04A46317D3046FFF738FFD9
:10285000B3E742F621034FF400622382E281EBE703
:10286000D018FF1FC418FF1F3807FF1F10B484794A
:102870001CB100205DF8044B70475DF8044BFFF776
:102880005FBF00BF2DE9F04F8B46817985B00129EC
:102890000746019205D001233B71002005B0BDE839
:1028A000F08F42799107F6D5530708D5FC68B969CE
:1028B0008C4200F0B480FFF773FE0028EBD0019B40
:1028C000FC68002B4AD0DFF8A491DFF8A4A1DDF862
:1028D0000480386A0679013E06EA542616F0FF069F
:1028E000C4F3080443D1002C41D1B968002973D145
:1028F000FA69002A00F08380BA60C4F50075ADB2B1
:1029000045453AD9057C4169023AAA400E4416442D
:102910001FFA88F51CB9F868BA6990424FD2304660
:10292000012100F0F3F80028B5D04C4404EB050E6B
:1029300074450DD00BF1FF31621E0EF1FF3611F818
:10294000010F02F8010F9642F9D1C4EB0E04A34423
:10295000FC68B8EB05082C44FC60BAD1BB69A34203
:1029600062D27A79BC6142F080027A7165E0C4F586
:102970000075ADB24545BA68C4D8017C4069023AD9
:102980008A400644B5F5007F1644C3D1DAF800202A
:10299000964204BF4FF0FF32CAF800202F4A106859
:1029A0000278FE2A314633D05A46FFF705FC00284C
:1029B0003FF471AF0BF5007B4FF40075C8E700F0F2
:1029C00065F800283FF467AF2549CAF800600A7827
:1029D00042F001020A70A8E703AA00F023F90028D8
:1029E0003FF45CAF386A1F4B90F82050039A4FF6C3
:1029F000F871102D18BF19468A42FFF47DAF384692
:102A0000FFF75EFC00283FF446AF386ABA6874E707
:102A10005846FEF7C7FFB0FA80F04009C7E7019BB0
:102A2000002B7FF450AF08E00F4B7A791B6823B17D
:102A3000019B13B142F080027A71120709D5BB796C
:102A4000002B3FF428AF3846FFF704FC00283FF482
:102A500022AF019805B0BDE8F08F00BFCC18FF1F72
:102A6000D01AFF1FF8FFFF0FC418FF1FD018FF1F59
:102A70003807FF1F00B583B002AB012203F8011D28
:102A80001946FFF7FFFE03B05DF804FB70B51A4C62
:102A900023780BB9012070BD184D194B28681968AF
:102AA0000378FE2B17D0174AFFF786FB88B1164E26
:102AB000316819B900232370012070BD286803789C
:102AC000FE2B0FD00F4AFFF777FB10B100233360C6
:102AD000F0E7002070BD0B48FEF764FFB0FA80F00D
:102AE0004009E3E70748FEF75DFFB0FA80F04009D0
:102AF0000028EBD1EDE700BFD01AFF1FCC18FF1F55
:102B00003807FF1FD018FF1FC818FF1F70B5124DE0
:102B10002B6883420E4611D00446FFF7B7FF08B971
:102B2000002070BD0D4B18680378FE2B0CD00C4AAA
:102B30002146FFF77BFA0028F2D02C60094B197868
:102B400031431970012070BD21460548FEF7A8FEEB
:102B5000B0FA80F04009EEE73807FF1FCC18FF1FDE
:102B6000D018FF1FD01AFF1FF8B590F82030C469A5
:102B7000102B1A4B05460E4617461B6816D004EB61
:102B8000D1149C4216D106F07F06154A42F82670F1
:102B90001449287E0A78012842F001020A7018D9E7
:102BA000A968114A0B4413600120F8BD04EB1124FD
:102BB0009C4208D000212046FFF7A8FF50B195F8AD
:102BC0002030102B07D1F6B2054A234622F81670A2
:102BD000DEE70120F8BD2346D5E700BF3807FF1F19
:102BE000D018FF1FD01AFF1FC818FF1F10B50446CA
:102BF000FFF74CFF78B1084B002103F5007203F892
:102C0000011F9342FBD1054A054913780C6043F03C
:102C100001031370012010BDCF18FF1FD01AFF1F32
:102C20003807FF1FC36801338B4218D370B590F883
:102C30002030102B154B044616460D46C0691B6804
:102C40000FD000EBD11098420FD105F07F01104B4F
:102C500053F8213023F070433360012070BD002011
:102C6000704700EB1120984207D00021FFF74EFF7C
:102C700050B194F82030102BE7D1E9B2044B33F86F
:102C800011303360012070BD002070BD3807FF1F78
:102C9000D018FF1F2DE9F04782B002ADDFF8508059
:102CA00045F8041D044691464FF0000A4FF40077A2
:102CB0004FF6F8760CE094F82030227C0199102B26
:102CC00014BF4346334607FA02F29942924408D2AF
:102CD0002A462046FFF7A6FF0028ECD102B0BDE847
:102CE000F0870120C9F800A002B0BDE8F08700BF5E
:102CF000F8FFFF0F2DE9F04F176883B06FB301376E
:102D00004FF0000AC36803F1010813B38B4606466F
:102D100091463C46002505E01C461F46F3680135F8
:102D2000AB4216D9A04538BF0224214601AA30463D
:102D300038BF2746FFF776FF631CD91B48B1019ABD
:102D4000002AE9D18B4510D01C46F3680135AB420F
:102D5000E8D8002003B0BDE8F08FA1F1010ABAFA6B
:102D60008AFA07684FEA5A1ACCE7012CF1D9F368BE
:102D700001339C42EDD86FF0704221463046FFF798
:102D8000F3FE0028E5D0A74214D2013C012CE0D983
:102D9000F36801339C42DCD8621C21463046FFF7C1
:102DA000E3FE0028D5D0A74204F1FF3402D0012C65
:102DB000EED1CEE7D9F8001059B10129C9D9F3688D
:102DC00001339942C5D83A463046FFF7CDFE002878
:102DD000BFD0C9F80070BAF1000F01D001373760D9
:102DE0000120B7E701290CD9C3680133994210B417
:102DF00003D85DF8044BFFF7B7BE00205DF8044B25
:102E000070470020704700BFF0B5022383B005462D
:102E1000134F03600C464FF6F8760FE0EB68013372
:102E20009C4216D8FFF7A0FE98B195F82030019C7F
:102E3000102B0CBF33463B469C420DD201AA2146C3
:102E40002846FFF7EFFE2146002210B1012C28464C
:102E5000E4D8002003B0F0BD012003B0F0BD00BFF6
:102E6000F8FFFF0FF8B53E4B054619601446DAB17E
:102E7000042A01D90020F8BD00210846FFF746FECC
:102E80000028F7D0374B03EB041292F8AE2152061C
:102E9000F0D11B3403EB0414D4F80A30632BE9D9C6
:102EA000D4F80640002CE5D000212046FFF72EFE86
:102EB0000028DFD02B4AB2F80B30B3F5007FD9D110
:102EC000117C0029D6D0D389002BD3D0567B002E7D
:102ED000D0D0002329762E712B74012703E0092915
:102EE0000B462974C6D007FA03F0B04203F1010182
:102EF000F5D1D68A1B4906B94E6AB2F80EE0AE602B
:102F0000A644C5F81CE0B2F81110177C698448018A
:102F100006FB07E600F2FF1006EB60206E626861B8
:102F2000B2F813100F4E01B9316A241A0C4424FA76
:102F300003F340F6F4718B42EB600BD94FF6F4715A
:102F40008B4285BFD36A6B621023202385F8203023
:102F50000120F8BD0C2385F820300120F8BD00BF0A
:102F6000CC18FF1FD018FF1F2DE9F04F4A4B8DB032
:102F7000814693E8070000AF3B1D03C3391D474856
:102F80001A70FEF7CFF900283BD107F11005381D64
:102F900004F096FD0146381D02F04CFD404801F05A
:102FA000DFF93A1D52233D492846FEF747F907F15C
:102FB0003002BB6912F8140D397D89F80C00C9F88C
:102FC000083089F8041009F10D0309F11A0012F80C
:102FD000011F03F8011B8342F9D1FB6AC9F81C30B9
:102FE0002846FDF7DDFFD9F800302E495B687822CE
:102FF00048469847484601F0B3F93437BD46BDE826
:10300000F08F4FF0010B07F11005BBF57A7FDFF869
:10301000A0A0254E29464FF00A025846E8462ED079
:1030200004F0FAF8284604F04BFD00F1110222F0FA
:103030000702ADEB020D69460446DAF8000041F8DC
:10304000040B224608460434294601F0C5FA0DEB6C
:10305000040E306832794DF8040069468EF8042079
:103060000E48FEF75FF988B10BF1010BC546BBF5C1
:103070007A7F29464FF00A025846E846D0D10B4BDA
:1030800093E807003B1D83E8070080E76946381D89
:1030900004F0B6FCC5467AE7E4A100005818FF1F0B
:1030A0005007FF1FF8A10000E8A1000074A2000073
:1030B000F0A10000F0B5044683B00868854E0D46C7
:1030C000174603F0FDFC41EC100B2046042101F0F3
:1030D0009FF9236801225B6831462046984768685B
:1030E00003F0EEFC41EC100B2046042101F090F9B6
:1030F000236801225B68314620469847A86803F0A0
:10310000DFFC41EC100B2046042101F081F923681B
:1031100001225B68314620469847E86803F0D0FCFE
:1031200041EC100B2046042101F072F923680122C2
:103130005B68314620469847286903F0C1FC41ECA2
:10314000100B2046042101F063F9236801225B681B
:10315000314620469847686903F0B2FC41EC100BF9
:103160002046042101F054F9236801225B683146AE
:1031700020469847A86903F0A3FC41EC100B2046B9
:10318000042101F045F9236801225B68314620469D
:103190009847E86903F094FC41EC100B20460421A9
:1031A00001F036F9236801225B68314620469847D2
:1031B000286A03F085FC41EC100B2046042101F045
:1031C00027F9236801225B68314620469847686AE0
:1031D00003F076FC41EC100B2046042101F018F9B5
:1031E000236801225B68314620469847A86A03F0AD
:1031F00067FC41EC100B2046042101F009F923681B
:1032000001225B68314620469847E86A03F058FC83
:10321000CDE900019DED000B2046042101F0F8F8F6
:10322000236801225B68314620469847286B03F0EB
:1032300047FC41EC100B2046062101F0E9F8236819
:1032400001225B68314620469847686B03F038FCE2
:1032500041EC100B2046062101F0DAF82368012228
:103260005B68314620469847A86B03F029FC41EC87
:10327000100B2046062101F0CBF8236831465B682D
:103280000122204698473946204601F0B9F82368C4
:1032900031465B6801222046984795F83C1020464D
:1032A00001F0AEF8236831465B680122204698475A
:1032B000296C204601F0A4F8236807495B68204682
:1032C000012298472368DB68204603B0BDE8F04040
:1032D000184700BF80A2000084A20000B0F90030AF
:1032E00000EE103ABAEEEA0A704700BFB0F90230B9
:1032F00000EE103ABAEEEA0A704700BFB0F90430A7
:1033000000EE103ABAEEEA0A704700BF10B5184C4A
:10331000204602F0D7FE2046012102F011FF204690
:10332000002102F035FF2046124902F037FF01214B
:103330000A2001F009FB00210A2001F0FFFA2368AE
:103340004FF000411B22D9625A63DA6A002AFCDA84
:103350004FF000418822986BD9625A63DA6A002ADA
:10336000FCDA9B6B01210A20BDE8104001F0E6BAAF
:103370000C08FF1F0650003810B5002304460380D8
:1033800043808380FFF7C2FF204610BD70B5002147
:1033900082B006460A2001F0D1FA3C23013BFDD160
:1033A0001A4B1A684FF000418823D1625363D36AE5
:1033B000002BFCDA936B69460DF106054FF00044D3
:1033C0000020D4625063D36A002BFCDA936B01F8BF
:1033D000013BA942F5D101210A2001F0AFFA9DF885
:1033E00001509DF800109DF803409DF802209DF8C3
:1033F00005009DF8043041EA052142EA042243EA2F
:10340000002331807280B38002B070BD0C08FF1FB2
:1034100090F8383090F839209A4205D95A1C034464
:1034200080F83820187E70474FF0FF30704700BF9B
:10343000704700BFF52100230122F0B54181062528
:1034400002240427072603214FF0FF0EC47680F8DC
:10345000247080F82560027242758275C27502760A
:10346000827642778277C27780F8232005730577CA
:1034700080F820E043738373C373037443748374CD
:10348000C374037580F8213080F8223080F826302C
:1034900080F8293080F82A3080F82710002480F83E
:1034A000281000F1400780F82B2000F14C0600F1B5
:1034B00058050246013947F8044B4FF0000E46F814
:1034C000044B02F1020245F8044BA2F86230A2F864
:1034D0006830A2F86E30EDD180F884E0F0BD00BF16
:1034E00007EE901AB8EEE70AD0ED1E7A20EE270A12
:1034F000704700BF07EE901AB8EEE70AD0ED1F7ACA
:1035000020EE270A704700BF07EE901AB8EEE70AD0
:10351000D0ED207A20EE270A704700BF4389F52BB3
:1035200007D0B3F5FA7F04D0B3F5FA6F1CBFF523CB
:103530004381C27E102A0ED90223C37690F824203C
:10354000102A03D9042380F824307047044BD34059
:10355000DB07F7D57047034BD340DA07EED4EBE730
:10356000101101001401010038B50546012190F841
:103570007700114C01F0E8F995F87700012101F08E
:10358000DDF995F87600012101F0DEF995F8760075
:10359000012101F0D3F9204602F094FD20460749AD
:1035A00002F0FCFD2046012102F0CAFD2046002168
:1035B000BDE8384002F0ECBD0C08FF1F000002B867
:1035C00070B508460D46002114461E4601F0B6F9B6
:1035D0000C4B196804F03F044FF00043CB624C637E
:1035E000CA6A002AFCDA4FF000438A6BCB624E6352
:1035F000CB6A002BFCDA8B6B28460121BDE87040BA
:1036000001F09CB90C08FF1FF8B590F876009DF802
:10361000185002F03F0288420E4642F080071C46D6
:1036200028D00021304601F089F9DFF854E0DEF8B7
:1036300000104FF00043CB624F63CB6A002BFCDAE3
:103640008B6B8DB12346671900204FF00044CC628C
:103650004863CA6A002AFCDA8A6B03F8012BBB4272
:1036600002D0DEF80010F2E73046012101F066F9E1
:103670002846F8BD012D88BF47F04007D1E700BFBD
:103680000C08FF1F70B5044640680125490080F80A
:103690003B1080F85E5080F85D5060680668114607
:1036A00032681E4690476068026831461368984742
:1036B00029466068BDE8704002F0F0BE30B404787E
:1036C000012C09D00CB130BC7047134630BC0A46FF
:1036D00090F87710FFF774BF134630BC0A4690F895
:1036E0007710FFF7CFBF00BF10B5037A044613B1C0
:1036F000037B5B01DBB26289B2F5FA7F4DD0B2F594
:10370000FA6F47D0627B02F003021A431021204671
:10371000FFF7D4FF002211212046FFF7CFFFA27B45
:10372000E37B002A14BF802200222BB1237C03F00C
:103730000F0343F040031A4312212046FFF7BEFF58
:10374000E27DA37D002A0CBF0022202213B142F0AB
:103750001002D2B2637D0BB142F00802237E0BB19E
:1037600042F002021E212046FFF7A8FF627CA37CE4
:10377000002A0CBF0022202213B142F01002D2B264
:10378000E37C0BB142F0080220461321BDE8104053
:10379000FFF794BF43F01803B4E743F00803B1E721
:1037A00010B5C27F837F002A04460CBF002220226E
:1037B00013B142F01002D2B2637F0BB142F00802A3
:1037C0001F212046FFF77AFFA27E12B1227F52010D
:1037D000D2B2E37E082B26D0102B21D0042B1CD094
:1037E00094F92030002B04DB03F003031A4342F06A
:1037F000040220212046FFF761FF94F8212032B116
:1038000094F82220520102F0600242F08002204629
:103810002121BDE81040FFF751BF42F01002DFE761
:1038200042F00802DCE742F01802D9E730B404782D
:10383000012C09D00CB130BC7047134630BC0A468D
:1038400090F87610FFF7BCBE134630BC0A4690F8DD
:103850007610FFF717BF00BF38B590F8272090F813
:10386000253090F8265052019B0003F01C03002DD8
:1038700002F0600242EA030214BF6FF07F030023EC
:1038800004461A4302F0FC022021FFF7CFFF94F810
:103890002430083BDBB2082B96BF134A0022D25CCF
:1038A00020462121FFF7C2FF94F8292094F82A30FE
:1038B000002A03F0030314BF202200221A432046EB
:1038C0002221FFF7B3FF94F828209200204602F04F
:1038D0000C022321FFF7AAFF204600222421BDE885
:1038E0003840FFF7A3BF00BF88A20000436870B54F
:1038F00001250E46490083F83B1083F85E5083F89B
:103900005D5004464068036811461B6898470021D3
:10391000606802F0C3FD2B462A463146606802F01B
:1039200047FE60680A4A03685B6993420BD190F8CE
:10393000383090F839209A4208D95A19034480F84F
:103940003820187E70BD9847C0B270BDFF2070BD92
:103950001134000010B50378012B84B00A460FD053
:1039600013B1FF2004B010BD012390F8771000932D
:103970000DF10F03FFF748FE9DF80F0004B010BDD6
:1039800090F87710FFF7B2FFECE700BF38B50D46AF
:1039900020210446FFF7DEFF082D00F0E7022BD0C0
:1039A000102D25D0042D1FD00223E37620212046A0
:1039B000FFF784FEE37E023B0E2B0BD8DFE803F01B
:1039C000110A0E0A0A0A0B0A0A0A0A0A0A0A080057
:1039D0000B4BE36738BD0B4BE36738BD0A4BE3671E
:1039E00038BD0A4BE36738BD42F01002E576DDE7EB
:1039F00042F00802E576D9E742F01802E576D5E70D
:103A0000B0E33F3A40DA7F3940DAFF3840DA7F38B6
:103A100010B50378012B84B00A460FD013B1FF20F4
:103A200004B010BD012390F8761000930DF10F0340
:103A3000FFF7EAFD9DF80F0004B010BD90F8761076
:103A4000FFF754FFECE700BF38B500230370417067
:103A5000827080F8771080F876200446FFF7EAFC41
:103A6000FFF75CFD4389B3F5FA7F55D0B3F5FA6FE4
:103A70004FD0F52B4AD094F82430043B0C2B0BD8B4
:103A8000DFE803F0400A0A0A070A0A0A3C0A0A0A9F
:103A90003800284BC4F88030E37E023B0E2B0BD855
:103AA000DFE803F0250A080A0A0A220A0A0A0A0AB3
:103AB0000A0A1F00204BE3672046FFF755FD0F2140
:103AC0002046FFF7A5FF0F2105462046FFF742FFDE
:103AD00045EA002005B246F63D039D421FD0002076
:103AE00038BD164BE367E7E7154BE367E4E7154B93
:103AF000E367E1E7144BC4F88030CDE7134BC4F81B
:103B00008030C9E7124BC4F88030C5E7114B83679A
:103B1000B1E7114B8367AEE7104B8367ABE72046F5
:103B2000FFF7E2FD2046FFF73BFE2046FFF794FE3D
:103B3000284638BD240B983940DAFF38B0E33F3AC5
:103B400040DA7F3940DA7F38240B183A9F71E13927
:103B5000F7CC1239295C0F3C295C8F3D295C8F3CE6
:103B60002DE9F0410F4641689DF818800446012672
:103B7000780081F83B0081F85E6081F85D606068E4
:103B8000056842F080012A681D4690476068002160
:103B900002F084FC18B100263046BDE8F0813346BF
:103BA00039464246606802F003FD40450646F2D1C0
:103BB0000028F1D0DFF83C802F1810E090F8383062
:103BC00090F839209A4203F1010E00EB03010ED95F
:103BD00080F838E0087E05F8010BAF42DCD0606861
:103BE00003685B694345E9D09847C0B2F3E7FF201B
:103BF000F1E700BF1134000030B50D46017801290E
:103C000083B00CD011B1FF2003B030BD90F8771015
:103C1000009313462A46FFF7F7FC03B030BD90F837
:103C20007710009313462A46FFF79AFFECE700BF90
:103C3000F0B583B006236A4628210446FFF7DCFF6F
:103C4000062801D003B0F0BD9DF801709DF800106A
:103C50009DF803609DF802209DF805509DF8043002
:103C600094F8840041EA072142EA062243EA052348
:103C700009B212B21BB26186A286E3860028E1D0A7
:103C8000B4F86A60B4F86C50B4F86E00891B521B2B
:103C90001B1A6186A286E38603B0F0BDF0B583B03F
:103CA00006236A4618210446FFF7A6FF062801D01E
:103CB00003B0F0BD9DF801709DF800109DF8036001
:103CC0009DF802209DF805509DF8043094F884007A
:103CD00041EA072142EA062243EA052309B212B269
:103CE0001BB2A185E28523860028E1D0B4F8646088
:103CF000B4F86650B4F86800891B521B1B1AA185E2
:103D0000E285238603B0F0BD30B50D460178012968
:103D100083B00CD011B1FF2003B030BD90F8761005
:103D2000009313462A46FFF76FFC03B030BD90F8AE
:103D30007610009313462A46FFF712FFECE700BF08
:103D400070B582B006236A4628210446FFF7DCFFDF
:103D5000062814D19DF801609DF800109DF80350CD
:103D60009DF802209DF805009DF8043041EA0621E7
:103D700042EA052243EA002321876287A38702B033
:103D800070BD00BF002200210173026042608260AA
:103D9000704700BF10B5074C0749204602F0FEF9F6
:103DA0002046012102F0CCF920460021BDE8104058
:103DB00002F0EEB90C08FF1F0760003838B50C465A
:103DC00005460121E0B200F0BFFD044802F07AF997
:103DD00021462846BDE83840FFF7DCBF0C08FF1F2E
:103DE0002DE9F04F87B006460391002A00F0C78006
:103DF0004FF0000E0B465D1E013A7746CDF814E0F9
:103E0000CDF804E0F246F146CDF810E0CDF800E040
:103E1000F446CDF808E0F34671464FF0FF3376469E
:103E2000804611E0032900F08680042940F08C8050
:103E30002C2800F09E80B9F1000F02D100944FF0C1
:103E400001099442234610D0022903F1010415F818
:103E5000010FE7D12C2800F08C80002FF1D1944283
:103E6000A3464FF001072346EED1029BCBEB03059F
:103E7000284600F0C5FC002D464604460ADD039B9B
:103E8000284403EB0B02234612F8011B03F8011B25
:103E90008342F9D1049B009AC2EB0308059B019A67
:103EA00020469D1A03F080F951EC100B03F02CF919
:103EB0003061204600F0A6FC404600F0A1FCB8F1BD
:103EC000000F04460BDD009B03990B441A46804407
:103ED000034612F8011B03F8011B4345F9D12046A4
:103EE00003F062F951EC100B03F00EF9B0612046BB
:103EF00000F088FC284600F083FC002D04460BDD12
:103F0000039B019A13441F460544034617F8012BEF
:103F100003F8012B9D42F9D1204603F045F951ECFD
:103F2000100B03F0F1F83062204600F06BFC01202A
:103F300007B0BDE8F08F2C281BD0002E81D1029352
:103F400088F8140001267CE705290BD12C2810D015
:103F5000BAF1000F7FF475AF049388F81C004FF09E
:103F6000010A6EE706292ED1302804D02C287FF4D0
:103F700068AF013165E7002007B0BDE8F08F10465B
:103F8000009200F03DFC044603F00EF951EC100BDA
:103F900003F0BAF83061204600F034FC009A104675
:103FA00000F02EFC044603F0FFF851EC100B03F078
:103FB000ABF8B061204600F025FC009A104600F0F6
:103FC0001FFC0446A8E7092909D12C28D1D0BCF14F
:103FD000000F7FF436AF01944FF0010C31E70A294E
:103FE000C4D12C28C5D0BEF1000F7FF42AAF0593B1
:103FF0004FF0010E25E700BFD0ED045ADFED266A31
:1040000090ED066ADFED254A017F026A826085EE47
:10401000A67A10B4047D532C4FF06403C6EE267AC2
:10402000BDEEC77AFDEEE77A17EE104A03FB04F403
:1040300005EE104A17EE904A03FB04F306EE903AA1
:10404000B8EEC55AF8EEE66A35EEC55A76EE666AFF
:10405000C5EE245A5DF8044B86EEA46AB8EEC77A22
:10406000F8EEE77AFFEE006AB7EE005A35EE877A8F
:1040700076EE277A14BFF0EE455AF0EE665A5729CD
:1040800018BFF0EE456A27EE257A67EEA67A80ED36
:10409000007AC0ED017A70470000C842000070420B
:1040A0002DE9F0435FFA81F8ADF5017D00218146ED
:1040B000404600F043FC494B19684FF00042A223F0
:1040C000CA624B63CB6A002BFCDA00248B6BDFF8EF
:1040D00010C1274626464FF400754FF00040C862D5
:1040E0004E63CB6A002BFCDA8B6BDBB20DF804302D
:1040F000E4B10DEB040212F8012CFF2A40D0012F8D
:1041000047D033D3022F38D10D2A04F1010418D03F
:104110000227013DE3D14046012100F00FFC032FAF
:1041200015D028460DF5017DBDE8F083012F45D05F
:104130001CD3022F21D11DF8012C0D2A04F10104FA
:10414000E6D10A2BE4D14046012100F0F7FBA2B2F0
:1041500069464846FFF744FE054689F80C00C8BB8F
:10416000012528460DF5017DBDE8F0839DF800305E
:10417000242B20D000242746CBE7032FC9D1E2E728
:10418000FF2B1DD0012F04D0F0D3022FF5D1013425
:10419000BFE70134062C01D00127BAE79DF80430AF
:1041A0009DF803709DF805201B0243EA0743134363
:1041B0006345DFD1ACE701340127AAE73C46A8E715
:1041C0004046012100F0BAFB002528460DF5017D8F
:1041D000BDE8F0834846FFF70FFFA2E70C08FF1F7A
:1041E000414747002221FFF75BBF00BF90ED000A67
:1041F000704700BF90ED010A704700BF90ED020AC2
:10420000704700BF007B7047704700BF0368F0B481
:10421000FBB1002501249D60DC601B4C1A601C442E
:10422000241104F130056A11032692009E60174F95
:104230000679174B47F8241002F1604202F56142FB
:1042400005F01F05012000FA05F5E6541560F0BCE5
:104250007047104C236843F40003236000BF0E4BEB
:104260000E4DA4F58734A4F59E7401261E602346E6
:1042700004609C68002CD0D01033AB420360F8D1AE
:10428000002303601846E2E7008FFCBF3C07FF1FD6
:1042900030E400E03C800440007003404071034083
:1042A0000168A9B10B4BF0B40B441B110A4E0B4F24
:1042B0000B4D46F8237003F1300202F01F04012376
:1042C0005211A340002445F822308C600460F0BCF9
:1042D000704700BF008FFCBF3C07FF1F0942000072
:1042E00080E100E0024A034B012111601B6818477E
:1042F0000C7103403C07FF1F024A034B0121116070
:104300005B6818471C7103403C07FF1F024A034BC0
:10431000012111609B6818472C7103403C07FF1F67
:10432000024A034B01211160DB6818473C710340CE
:104330003C07FF1FF8B50E4671B17AB10746144627
:1043400000253B6816F8011B1B6838469847013C5E
:104350000544F6D12846F8BD0846F8BD1046F8BD1C
:1043600000B5064A036812885B6883B001A9ADF8FE
:1043700004200222984703B05DF804FB94A20000D9
:10438000F0B507468BB0002A33D0012A08BF0A22B5
:1043900051B3212400E0F4B2B1FBF2F502FB151198
:1043A000C8B2092900F1300198BFC8B20AA988BF74
:1043B0003730214488BFC0B201F8240C661E29465C
:1043C000002DE8D133B1013CE4B20AAB23442D22E5
:1043D00003F8242C3B6801AA11195B683846C4F124
:1043E000220298470BB0F0BD30228DF82520212401
:1043F000E8E70368C9B21B6898470BB0F0BD00BF7F
:104400000029BABF49422D2300230A22FFF7B8BF73
:104410002DE9F04357EC106B85B005460C4610EEC5
:10442000102A3B4610EE100A394602F037FE0028EB
:1044300040F0B28027F00049304649464FF0FF3245
:10444000594B02F02BFE90B9304649464FF0FF32EF
:10445000554B02F005FE50B92B6854495B6828465D
:10446000032298478046404605B0BDE8F0834FF0F0
:1044700060424F4B3046394602F006FE002872D1AA
:104480004FF060424B4B3046394602F0DFFD0028CA
:1044900069D1002200233046394602F0D7FD0028BA
:1044A00064D18146002C67D0434900204FF00008BA
:1044B0003BA3D3E9002308F1010802F055FB5FFAA2
:1044C00088F39C42F4D802460B463046394602F047
:1044D00099F90F46064602F0F7FD804602F0CEFA43
:1044E00002460B463046394602F08AF94B460646EC
:1044F0000F460A2241462846FFF742FF0F2C28BFED
:104500000F2404F101092E2380465FFA89F98DF802
:10451000003001240022294B3046394602F024FBAA
:104520000F46064602F0D0FD04AB2344C0B200F1B2
:10453000300203F8102C02F0B1FA02460B46304666
:10454000394602F05DF90134E4B24C4506460F46A7
:10455000E0D12B6822465B6828466946984740466A
:1045600005B0BDE8F0832B68154977E707F10043F4
:104570001F464FF0010995E700220F4B30463946A0
:1045800002F040F902F0A0FD4B4601460A222846FF
:10459000FFF7F6FE804666E72B680A495EE700BF34
:1045A000000000A09999B93FFFFFEF7FA0A2000093
:1045B000FFFFEF41FFFFEFC10000E03F000024409C
:1045C0009CA2000098A2000008B5FCF71FF8FCF7B9
:1045D00079F801F033FBFAE7844641EA000313F06F
:1045E00003036DD1403A41D351F8043B40F8043BFA
:1045F00051F8043B40F8043B51F8043B40F8043BBD
:1046000051F8043B40F8043B51F8043B40F8043BAC
:1046100051F8043B40F8043B51F8043B40F8043B9C
:1046200051F8043B40F8043B51F8043B40F8043B8C
:1046300051F8043B40F8043B51F8043B40F8043B7C
:1046400051F8043B40F8043B51F8043B40F8043B6C
:1046500051F8043B40F8043B51F8043B40F8043B5C
:1046600051F8043B40F8043B403ABDD2303211D3FC
:1046700051F8043B40F8043B51F8043B40F8043B3C
:1046800051F8043B40F8043B51F8043B40F8043B2C
:10469000103AEDD20C3205D351F8043B40F8043BFC
:1046A000043AF9D2043208D0D2071CBF11F8013BFA
:1046B00000F8013B01D30B8803806046704700BFC0
:1046C000082A13D38B078DD010F003038AD0C3F1CF
:1046D0000403D21ADB071CBF11F8013B00F8013BB1
:1046E00080D331F8023B20F8023B7BE7043AD9D370
:1046F000013A11F8013B00F8013BF9D20B78037045
:104700004B7843708B7883706046704708B5104CC7
:1047100008E0236859050DD423681A050FD42368CF
:10472000DB0411D423685803F3D500F0F5FA2368AD
:104730005905F1D500F00EF823681A05EFD500F001
:1047400009F82368DB04EDD500F004F8EAE700BFC0
:104750003480044008B5FFF7D9FF00BF014B102299
:104760001A80704700200540704700BF094908B50E
:104770000B6830B16A461844A2F50052904202D24A
:104780000860184608BD02F019FD0C2303604FF0C5
:10479000FF3008BD4C07FF1F084A1378802B01D05B
:1047A000002070470649074B074808600021197030
:1047B0001378802BFCD00120704700BF03E0074036
:1047C0004480044001E0074000002822094A137891
:1047D000012B01D00020704703F1804303F5FC2337
:1047E000602119701378802BFCD1034B034A1A60A7
:1047F0000120704703E007404480044000000602A7
:1048000002F022BD02F028BDF0B44D1E2E46002459
:1048100000E00134B0FBF2F302FB1300092800F1C1
:1048200030078ABF3730F8B2C0B206F8010F184619
:10483000002BEED10A1953704CB1107815F8016FA6
:1048400028700133E01A834202F80169F5DB08465B
:10485000F0BC704710B4114B53F8302092F88042EE
:1048600034B1012379B182F880305DF8044B704790
:1048700003EBC0035B681A6851B922F002021A60A8
:104880005DF8044B704782F800315DF8044B7047C7
:1048900042F003021A605DF8044B7047A4A20000C6
:1048A0001C4A02EBC00301295B6811D004291BD00C
:1048B00052F83000002280F8802229B1022920D04D
:1048C000032922D01A6070474FF480721A60704733
:1048D00052F830004FF4A27280F880121A601A6801
:1048E00022F020021A60704752F830104FF4A27282
:1048F000012081F880021A601A6842F020021A60D2
:10490000704740F203121A6070474FF481721A60C8
:10491000704700BFA4A2000030B4054B054D064C03
:10492000002210211A602A602060196030BC704794
:1049300014D0034004D0034000D003403F2801D8E6
:10494000FFF788BF704700BF3F2801D8FFF7A8BF17
:10495000704700BF2DE9F843054672B6224F234B3E
:10496000234A1B683C68126862B6520102D5322B9A
:1049700088BF0134B5B3C3F52F3303F21F331D4E87
:10498000DFF86890DFF868809B084FF47A72A6FB26
:10499000031302FB04F404EB930472B6D9F800107D
:1049A0003A68D8F800E062B6C1F52F3303F21F333E
:1049B0009B08A6FB03031EF0806FC4EB93034FF428
:1049C0007A7002D0322988BF013200FB0233B3F57E
:1049D0007A7F04D3013D05D004F57A74DDE701F058
:1049E0002DF9DAE7BDE8F883D41AFF1F18E000E0DC
:1049F00004ED00E0176CC116F8B54E4B4E48DFF8D9
:104A00005CC14E4C4E49DFF858E14E4E4E4D4F4F73
:104A10004FF000621A604FF080521A604FF000525F
:104A20001A604FF080421A604FF000421A60002274
:104A3000026028234EF6FF70CCF80000CEF800305C
:104A400023600EF5012E0B6033602B6006F5002607
:104A50003B6005F50025A36207F500278B6204F58E
:104A6000012401F5012106F6E87605F6E87507F55B
:104A70007F6710310EF1100E203433602B60CEF8BA
:104A800000303B600B602360314CBB618B610921BE
:104A90002160A7F5002704F58054203F08343A60D0
:104AA0002060BB60E36047F8041C04F5FD2407F5B3
:104AB000FE27043704F2FC7422603860A360FB60B8
:104AC00044F8041C083404F6FC74C7F8FC2F20607A
:104AD000A4F5E124A4F2DC7433602B60C7F8F81F5E
:104AE00021681C4841F40071216001681A4C0EF5E0
:104AF0007F4E0EF1E80E07F5883706F5803605F58E
:104B0000803541F000710160CEF8002047F6FF715A
:104B10000822396033602B60226001F07FF9192090
:104B2000FFF718FF00F05EFE40F21310BDE8F840FA
:104B3000FFF710BF04E100E004800340148003404D
:104B40001C800340248003402C80034034800340B9
:104B5000008003400480044000900C400880034023
:104B60000C800340431E032B14D872B60A4951F837
:104B7000230068B170B4094C058834F813204668E6
:104B800041F82360521B24F8132062B670BC7047B2
:104B900062B6704700207047301BFF1F181EFF1FB2
:104BA000013803280BD872B6074B53F8203043B1B5
:104BB00000205B680130002BFBD162B670470020FB
:104BC00070471846F9E700BF841BFF1F30B472B668
:104BD0002B4A13781D0706D52A4B196A002936D0AF
:104BE000996A002941D053781C0706D5254B196CCA
:104BF00000293ED0996C002939D09378190705D542
:104C0000204B196E002936D0996E89B1D3781B07D5
:104C100007D51C4BD3F880207AB3D3F88820112114
:104C20003AB162B6184B00221A7030BC00F076BE62
:104C30000D21154C154D227843F8315003EBC1037B
:104C40000830013A5860227062B630BC70470422C6
:104C50000D4C0F4D217843F8325003EBC20308305E
:104C60004A1E5860227062B6EFE70521E1E709218C
:104C7000DFE70822ECE70C22EAE71022E8E700BFB2
:104C8000CCA400000000FF1FAD1BFF1FC8004000A8
:104C900088004000431E032B1DD81B4A400140F0F2
:104CA000100030B4104472B6184CE25C032A1BD8D2
:104CB000DFE802F00212151703220D88E25410F00B
:104CC000080F14BFC823882343EA05430831036053
:104CD000416062B630BC704708300222EDE7052221
:104CE000EBE708300422E8E7094A52F8230038B11C
:104CF000084A52F82300416042F8231062B6E9E7FF
:104D000042F82310034AF7E70000FF1FBC1BFF1FF8
:104D1000841BFF1F941BFF1F2DE9F04FDFF818B312
:104D2000DFF818A387B044E0AE4F4FEA930807EBD3
:104D3000C809013ED9F8042003F00803F6B2A2F135
:104D4000080003F0FF04002B40F0048157F83830CE
:104D50001B0C99B222F8081C002B00F0F280A24B29
:104D600022F8064C42F8044C53F82620002A00F0A2
:104D70006E819E4D55F8263058609D4C45F82600B2
:104D800034F81630194424F8161000F0A7FD002856
:104D900000F05681974A984B19F0080F00F108006F
:104DA00018BF1346C9F8040047F8383008238BF8B9
:104DB00000309BF80040E4B261071BD58F4B1B7895
:104DC000ABB18F490A7802F0FF032AB1013BDBB295
:104DD0000B70002B00F0EF848A490A7802F0FF0381
:104DE0002AB1013BDBB20B70002B00F0F7800423EB
:104DF0008BF8003004F0080303F0FF02002B00F0F2
:104E0000D6809AF80030DBB21E098DD19C08DFF8FD
:104E1000D49159F8342009EBC401C2F38302013A5A
:104E200049680C2A7ED8DFE802F081817D7D7D7D96
:104E30007D7D477D7D7D07000868734D4A68734F0F
:104E4000734E286081B240F281606A4B6A604FF015
:104E5000010E0022814249F834303A60C9F810202E
:104E6000C9F8182086F800E05E4C00F2F480B1F535
:104E7000D06F80F07883B1F5817F00F0628300F21B
:104E80008782802900F0EC82822940F01E83A98865
:104E900001F07F01042900F218835E485E4C89000E
:104EA0000844227062700278930740F1798384F895
:104EB00000E04FF0020ED8E2544F3A6842B3574B2D
:104EC000534E5749188834780D784028864645F067
:104ED000020828BF4FF0400E002C84F0010434700B
:104EE000CEEB00000CBF8824C82409EBC80680B2B2
:104EF00085F0010544EA0E447260188049F8384094
:104F000072440D7018B9BEF1400F18BF00223A600C
:104F10003D4B1A88B2F5A06F04D100219A785970E0
:104F2000404B1A70404A012313703FE7364A1588F8
:104F300042F22100854200F0FF812E4A49F83420D8
:104F4000F0E72C4A2C4B19F0080F18BF134647F80E
:104F500038302BE700F0E2FC344A354952F826306D
:104F6000002B00F0B68158688C5D42F8260003F1F2
:104F70000802C9F80420032C05D8DFE804F0120F5A
:104F8000150204228A551A8819F0080F0CBF8823CD
:104F9000C82343EA024347F8383007E702228A551C
:104FA000F1E703228A55EEE705228A55EBE7E00791
:104FB00000F11A82210600F14982A20706D51D4A96
:104FC0001D4913780220DBB213700870E30602D586
:104FD000194B10221A7007B0BDE8F08F00F00AFEDE
:104FE00005E700BF0000FF1F301BFF1FDC1AFF1F7B
:104FF000181EFF1FC800400088004000B81BFF1F9C
:10500000411BFF1FC01BFF1FA41BFF1FD81AFF1F40
:10501000401BFF1FC0200740B01BFF1FEC1AFF1FE3
:10502000AC1BFF1F9820074094200740841BFF1FE4
:10503000BC1BFF1F882007408020074090200740AE
:10504000AB4A47F83800137801331370AEE643F8E3
:105050002600A84D91E642F22100814200F0358100
:1050600000F2AF81B1F5086F00F01B82B1F5106F4F
:1050700040F02B82226AA049A8780870120600F13D
:105080004583D9F828209D49130600F13A83D9F8C1
:1050900030209A49150600F12F83D9F83820974916
:1050A000140600F12483D9F840209449100600F139
:1050B0001983D9F848209149120600F10E83D9F8D6
:1050C00050208E49130600F10383D9F858208B49EC
:1050D000150600F1F882D9F860208849140600F11D
:1050E0002983D9F868208549100600F11E83D9F874
:1050F00070208249120600F11383D9F878207F4985
:10510000130600F10883D9F880207C49150600F1C8
:105110001C83D9F888207949140600F11083D9F846
:1051200090207649100600F1C882D9F8982073497A
:10513000120600F1BC827248724A734901907348AA
:105140006C4D734C049700230596029580461746D4
:105150000E461D460394386828B1446800F0DEFB13
:105160002046002CF9D100233B60029B30681A4690
:10517000002342F8253028B1446800F0CFFB2046D8
:10518000002CF9D100223260019A98F800301146C3
:10519000002241F8042B039A0191023B4FF00001D9
:1051A00022F81510032B09D8DFE813F04B01040097
:1051B0004B0104004FF0010388F800300135042D45
:1051C00007F1040706F1040608F10108C3D1514CA8
:1051D000514B2278464D049F059E002129701A707C
:1051E000130700F14F8262784C49DFF810810A7092
:1051F00010074FF00001C9F83010C9F8381000F15D
:105200002B824749A2780A700021C9F85010C9F8CA
:1052100058101107DFF8E48000F1DC81E2784149A1
:10522000364C0A7000211207C9F87010C9F87810BE
:1052300000F1B98133780193002183F00102C9F8AC
:105240009010C9F8981000200290804684460446C9
:1052500035490D7845F0020E09EBCE030393019B0F
:10526000002B039B5C600CBF8824C82444EA08031D
:1052700085F0010449F83E3032700C70DFF87CE0B4
:105280002A4BDFF8A480002840F02681BCF1400FB3
:105290001BD144F0020C09EBCC03029CDFF85CE06C
:1052A0005C60002A40F02E81020442F088029DF8E2
:1052B00004304EF83C20044433700D7023464028DF
:1052C00003D100201A4A3B6010801A4A0123137050
:1052D00028E68B5D032B00F22D8101A252F823F00A
:1052E000AD4D0000AD4D0000375400003D540000AE
:1052F000AD1BFF1FDC1AFF1FB81BFF1F0000FF1FA5
:10530000941BFF1F301BFF1F841BFF1FBC1BFF1FB5
:10531000181EFF1FCCA40000C4200740C82007406F
:10532000CC200740D0200740AC1BFF1F401BFF1FB5
:10533000EC1AFF1F94200740928892B9B14A0D7869
:105340004878157050708D78C8789570D070106856
:105350000D79157186284D7989795571917100F013
:10536000A580A949A94E0A78307882F00105002865
:1053700042F002020D700CBF8821C82149F832109A
:1053800009EBC20280F00100002130705160D4E5C9
:1053900040F20232914240F08D80A98801F07F01F5
:1053A000042900F292806A88002A40F08E80984892
:1053B000CDF804E089000844017841F00201017051
:1053C00041E742F2212081427BD1A988002940F0A7
:1053D000E480904B904A9148AC781D681560CDF8F8
:1053E00004E00A4604702EE78D4B8E4886491A6108
:1053F0004FF0020E80F800E0854F0A708A4919606C
:1054000099608A4E8A4D8B4C9A610D213970FF212B
:105410003170DFF840E229702270874D874A8EF89C
:1054200000109F27012406F8047C5D600470DA6098
:1054300007B0BDE8F08F00238B55B7E401238B55EF
:10544000B4E44FF0000388F80030B7E67049784BB9
:1054500080220D2008701A70A2077FF5B7ADAEE567
:10546000774C4FF0020E22706270EA88724580F02D
:10547000A38165490D78402A944645F0020E28BF65
:105480004FF0400C04EB0C0309EBCE000293012318
:1054900044604FEA0C48CCEB020001930022C82480
:1054A000E4E6684A664C12782270DEE7664A0F210D
:1054B000117056E7B1F5A06F07D1012300220193C7
:1054C000C1E642F221329142F7D0514A0F231370C4
:1054D000544A0123137025E540287FF6DAAE44F0E4
:1054E00002040EEBC401029E4E60BAB19DF8041096
:1054F000564A19703346403888F8005040334EF809
:105500003420DFE69DF8043033700204029B0D70F6
:1055100042F0C80203444EF83C20D0E69DF8041047
:105520001970029B404A88F80050403840334EF8CA
:105530003420C7E619F0080F0CBF022303238B5554
:1055400034E4A98801F07F010429BED86A88002AC2
:10555000BBD12F48CDF804E089000844017821F040
:10556000020101706FE63A4A5468002CADD0688899
:10557000B5F804E003E00C325468002CA5D0138881
:105580008342F8D153887345F5D1000A03280CBF34
:1055900094F800E0B2F808E067E7CDF804E052E6DE
:1055A0004FF0020E61E700F099F9002800F0F18059
:1055B00008301D4AC4F88400C4F8802000F08EF939
:1055C000002800F0E0800830204AC9F88C00C9F8B3
:1055D00088202FE600F082F9002800F0E6800830ED
:1055E000114AC8F86400C8F8602000F077F9002874
:1055F00000F0D5800830154AC9F86C00C9F8682059
:105600000CE600BF201EFF1FAC1BFF1F401BFF1F2F
:10561000C0200740D41AFF1F281EFF1FD01BFF1FEA
:105620000000FF1F942007408800400088200740AA
:105630008020074098200740F01AFF1F441BFF1FDF
:10564000B01BFF1FB81BFF1F411BFF1FC8004000FE
:10565000D0A400008C20074000F040F9002800F0A2
:105660008C8008305D4AC8F84400C8F8402000F03B
:1056700035F900287BD00830594AC9F84C00C9F8E0
:105680004820BEE500F02AF900286AD00830534AC5
:10569000C9F82400C9F8202000F020F900285AD0C9
:1056A00008304F4AC9F82C00C9F828209BE5D1F8EA
:1056B0009C00083800F032F93DE5D1F89400083834
:1056C00000F02CF931E5C86D083800F027F902E543
:1056D000486D083800F022F9F7E4C86C083800F08B
:1056E0001DF9ECE4486C083800F018F9E1E4C86BE7
:1056F000083800F013F9D6E4486B083800F00EF9CA
:10570000CBE4C86A083800F009F9C0E4606A0838D8
:1057100000F004F9B5E4C86F083800F0FFF8F2E4CF
:10572000486F083800F0FAF8E7E4C86E083800F06F
:10573000F5F8DCE4486E083800F0F0F8D1E4D1F870
:105740008C00083800F0EAF8E9E4D1F88400083861
:1057500000F0E4F8DDE42A78C9F8280001322A7064
:1057600041E52A78C9F8200001322A7094E72A78A6
:10577000C9F8480001322A7043E52A78C8F8400089
:1057800001322A7073E72A78C9F8880001322A703A
:1057900050E52A78C4F8800001322A700EE72A7892
:1057A000C9F8680001322A7038E52A78C8F8600024
:1057B00001322A7019E700BEBEF1400FF44628BF3F
:1057C0004FF0400C04EB0C0302930123CCEB0E00D2
:1057D0004FEA0C48002201933AE500BF88004000E0
:1057E000C80040002DE9F041274C00F089FB002261
:1057F00004F1A00023461A605A60083383424FF038
:105800000001F8D12148224A0368DFF89CE0214ECC
:10581000214D224FDFF894C0DFF8948043F48023B9
:105820000360136843F04073136003238EF8003065
:10583000A023337002F5C922C4F3072300F52830F2
:105840002B708030C4F3074310323B70240EFF23CB
:105850000470134D8CF80030124888F80030137033
:10586000012306F8AC3C4FF400140EF8441C7026DB
:10587000102107F82C3C2E70046082F8F810AEF16D
:10588000440EBDE8F08100BF0000FF1F34800440DB
:1058900000D80040402107409C200740B02007402E
:1058A00035E400E004E100E04421074080200740A7
:1058B0008820074000F0A2B800F07AB800F054B891
:1058C00000F08EB800F06AB900F044B908461146FD
:1058D00000F0B0B8084600F031B900BF72B60D480C
:1058E0000268B2FA82F30B2B10DC4FF00041D94072
:1058F00022EA0102026062B6074803EBC303DB0041
:10590000C2180021C15010465160704762B6002095
:10591000704700BF6007FF1FD003FF1F0D4B0E4AEB
:10592000C31AA2FB03231B090B2B0CD80B4A1278BA
:1059300052B972B60A484FF00041026821FA03F3E7
:105940001A43026062B67047064A1278002AF0D005
:10595000FFF73CB9D003FF1F398EE338AD1BFF1FA3
:105960006007FF1FB81BFF1F38B50F4D286878B1BF
:1059700043880288C118013393420C7A02D24380D3
:10598000204638BDFFF7CAFF002320462B6038BDF4
:10599000064B1B782BB10320FFF7E4F828600028A2
:1059A000E6D14FF0FF3038BDCC1BFF1FB81BFF1FE7
:1059B00010B5094C206818B143881844007A10BD0E
:1059C000064B1B782BB10320FFF7CCF82060002892
:1059D000F2D14FF0FF3010BDCC1BFF1FB81BFF1FD3
:1059E000044B054A1B6890881BB11A885B88D31A40
:1059F00018447047CC1BFF1F181EFF1F0B4B1B7852
:105A00009BB110B50A4C206848B1FFF787FF00230F
:105A100003202360FFF7A6F830B1FFF77FFF0320D4
:105A2000FFF7A0F80028F8D110BD7047B81BFF1F82
:105A3000CC1BFF1F2DE9F04FDFF8F89083B0012257
:105A400089F80020019169B3DFF8EC80354F019EA1
:105A50008346D8F80000B0B3334D4488C4F1400108
:105A6000B14228BF314604EB010E00221FFA8EFE20
:105A70002A70761AA0F802E000F1080251B1013C48
:105A8000224459441BF8014B02F8014F8B45F9D1D0
:105A9000B0F802E0BEF13F0F0BD8244A0521117087
:105AA000002ED6D10198002389F8003003B0BDE85C
:105AB000F08F4022028001460420FFF7EBF800221D
:105AC000C8F80020E9E73A7822B3194C164D4FF098
:105AD000010A07E0013C16D02A78A2B900F0AEF81E
